:020000040000FA
:10000000181F0020150100002F0100003101000021
:1000100000000000000000000000000000000000E0
:10002000000000000000000000000000330100009C
:100030000000000000000000350100003701000052
:1000400039010000390100001D050000D103000046
:1000500039010000000000005102000039010000D9
:1000600039010000390100003901000039010000A8
:100070003901000039010000390100003901000098
:1000800039010000B103000039010000390100000E
:10009000FD03000039010000510400007504000058
:1000A00039010000390100000000000000000000DC
:1000B0000000000000000000000000000000000040
:1000C0000348854600F094F800480047DD6C0000C6
:1000D000181F0020401E00BF00BF00BF00BF00BFB0
:1000E00000BF00BF00BF00BF00BF00BF00BFF1D115
:1000F00070470000401E00BF00BF00BF00BF00BF30
:1001000000BF00BF00BF00BF00BF00BF00BFF1D1F4
:10011000704700000321094802680A43026008484A
:1001200002680A4302600748804707480047FEE725
:10013000FEE7FEE7FEE7FEE7FEE7000024050040DD
:1001400054050040C9040000C100000030B50B4652
:10015000014600202022012409E00D46D5409D42A1
:1001600005D31D469540491B254695404019154627
:10017000521E002DF1DC30BD03460B439B0703D01C
:1001800009E008C9121F08C0042AFAD203E00B785C
:100190000370401C491C521EF9D27047D2B201E0D4
:1001A0000270401C491EFBD270470022F6E710B5D2
:1001B00013460A4604461946FFF7F0FF204610BDD5
:1001C00030B504460020034600E05B1C934203D296
:1001D000E05CCD5C401BF8D030BD0321001D401E0B
:1001E000037812021A43491EF9D5104670470000E1
:1001F000064C0125064E05E0E36807CC2B430C3C7A
:1002000098471034B442F7D3FFF75EFF50A10000C7
:1002100070A1000030B58C180278401C13071B0F2A
:1002200001D10378401C120906D10278401C03E07A
:1002300005780D70401C491C5B1EF9D101E00B7064
:10024000491C521EFBD1A142E6D3002030BD000064
:10025000F8B50024FF2501350126274600942846DD
:1002600007F0B8F8002808D034484068304204D07D
:10027000334800212818344301602D1D76007F1C6F
:10028000ADB2042FEBD3FF207D3007F0A3F8002898
:1002900007D02C4800210160400704432A48006928
:1002A00000902A4F200712D00126002526420AD0AE
:1002B0002748AA00111808690969C004C00E8903FB
:1002C000BA58890F904776006D1C042DEED3002C90
:1002D00030DA00241D4E0821301940304156491CA7
:1002E00025D0077ABD06AD0E284605F04DF88000F2
:1002F0003658002E1BD0BF090121A940154AA8007D
:1003000080180068009A8003800F114202D00228F2
:1003100002D00CE003280AD1032F05D102280AD00D
:100320000221284607F036F839462846B047641CB3
:10033000062CCFD3F8BD0321F3E700000063004093
:10034000006000407C61004000050050C8100020A3
:100350000065004000070050C106C90E012088401A
:10036000014908607047000000E200E08307FF22B7
:10037000DB0E9A408907090E994000280BDA000726
:10038000000F0838830808489B001818C369934376
:100390000B43C3617047830804489B001B1818680F
:1003A000904308431860704700ED00E000E400E06F
:1003B00010B506490020086048608860C86003499D
:1003C00040390860486009F039FB10BD4011014018
:1003D00010B50848816801290AD1074949684907C9
:1003E00006D500218160084609F0F2F809F03AFAD2
:1003F00010BD00000031004000330040FEB5002079
:10040000C043124D02906869019068462E6905F05C
:10041000A7FF074606F0A0FB0446002F08D002AA5B
:100420000199009805F0C8FF029806F0DFFB06E08E
:10043000029806F0DBFB002801D1002C02D03046E8
:1004400004F0C8FF00206871FEBD000064010020B8
:1004500010B507484068002807D08047002803D01F
:100460000022114600F096FB10BD06F09DFA10BD6B
:100470000002002070B5134C20780025002803D01E
:100480002570012008F04CFD6078002803D06570CD
:10049000002008F045FDA078002803D0A5700220B8
:1004A00008F03EFDE078002803D0E570042008F055
:1004B00037FD2079002803D02571032008F030FD96
:1004C00070BD0000B401002010B506F0DFFA00286E
:1004D00005D00E490C484860C8130D4988610D4885
:1004E000018CC9B201290ED1818C09070BD1018D74
:1004F0000906090F042906D1808D0006000F02D1DC
:1005000005490120886010BDDFFF07C000050040DD
:10051000006C0040C00F00F0000600407CB51B4C92
:10052000A0681B4E0025002818D0A56019488069D6
:10053000C1B2194800F063FB002805D001216A46CA
:1005400011700190684607E013488168C068401A3E
:10055000012803D16846057071688847E069002862
:1005600003D0E561032007F07FF9606A00280BD013
:100570006562084980390868086002216A4611707E
:1005800001907168684688477CBD000000210040EA
:100590002401002000250040A81000200FB410B551
:1005A00003A9044B044A029800F024F810BC08BCCC
:1005B00004B01847816400008C01002030B47446F8
:1005C000641E2578641CAB4200D21D46635D5B004F
:1005D000E31830BC184702E008C8121F08C1002AFF
:1005E000FAD170477047002001E001C1121F002AB4
:1005F000FBD17047FFB58DB00F460546002606E0DB
:1006000025280AD0109A0F9990476D1C761C2878DF
:100610000028F5D1304611B0F0BD00240121674A11
:10062000009400E004436D1C2B780846203B984062
:100630001042F7D128782E2815D104200443687879
:100640006D1C2A280AD101CF6D1C00900BE0009987
:100650000A225143303940186D1C00902878014619
:1006600030390929F3D92878692843D006DC0028D5
:10067000D0D063280BD0642804D13BE073280FD07E
:1006800075284CD0109A0F999047761C94E03878D2
:10069000694608720020487202A80190012003E018
:1006A000386801900020C0433F1D61070CD500242D
:1006B00000E0641C00998C420FDA8442F9DB019956
:1006C000095D0029F5D108E0002400E0641C8442A3
:1006D000FCDB0199095D0029F8D1361907E0019882
:1006E00001990078491C0191109A0F999047641E56
:1006F000F5D261E00A20019001CF002802DA4042E1
:100700002D2102E0210504D52B216A461172012119
:1007100003E0E10701D02021F7E70C9104E00A2073
:10072000019001CF00210C910BA90B9108E00199D8
:10073000FFF70CFD0A460B993032491E0B910A70E7
:100740000028F4D10B9803A9081A20300190600703
:1007500001D5009801E0012000900199884203DD55
:1007600001460198081A00E000200024009006E0ED
:1007700002A8109A005D0F999047641C761C0C9893
:100780008442F5DB04E0109A30200F999047761CE4
:100790000099481E00900029F5DC08E00B980B99A1
:1007A0000078491C0B91109A0F999047761C01997B
:1007B000481E01900029F1DC6D1C28E70928010082
:1007C00038B50D4C6078022802D00C4901208860B1
:1007D00069460B4800F0F0F9002802D000F016F846
:1007E00038BD0848802181606A46074B1278DA617B
:1007F00002226270416038BD2401002000200040C8
:10080000B810002000230040002500401CB5064918
:100810000120C8600549487003206A461070496885
:10082000684688471CBD00000020004024010020CD
:1008300004490020487004490122CA604A60034903
:10084000086070472401002000200040002500407F
:10085000F7B582B0002605461670007814460028C9
:1008600005D02846039906F05BFB060008D1A8785E
:1008700000281FD02078039F001D1F2802D90C20BC
:1008800005B0F0BD684607F065FD0028F8D1217875
:100890000322481C20707A5421781922481C2070A9
:1008A0007A542078C1196846008809F092F92178B5
:1008B00040182070E8780223002810D02078039A8E
:1008C000411C2170135420780399471C0122277082
:1008D0000A542078EA78471C039927700A546868FC
:1008E000002815D00021415620788C460246C01CB5
:1008F00003991F28C3D8501C20708B5422780A23D8
:10090000501C20708B5420786246431C23700A547C
:100910002889002809D028460094062202210830A0
:10092000039B09F08DFA0600AAD1288A002809D075
:1009300028460094072203211030039B09F080FA17
:1009400006009DD1288B002809D028460094152246
:1009500014211830039B09F073FA060090D1286A1D
:10096000002805D02246039904F0D4FD060087D163
:10097000686A002805D02246039906F09FFA06000F
:1009800084D12C20405D002806D0224628460399B9
:1009900008F0AAFC0600C7D1304671E710B5012265
:1009A0000221002004F0A0FA002801D0072812D16B
:1009B00007220221012004F097FA002801D007281D
:1009C00009D100210A22084604F08EFA002801D03D
:1009D000072800D1002010BD30B597B0302101A804
:1009E000FFF7E3FB022168460171012484710521B0
:1009F000C1710025858206958483114808902421C1
:100A00000DA8FFF7D2FB08A8047510A804702820D1
:100A1000B4211190129110A804731920C0010095FF
:100A200015911490074B0DAA002101A800F014FCA9
:100A3000002803D00022114600F0ACF817B030BDFA
:100A400006000020E9730000044842680121C9053E
:100A50000B46934383600A40C26070470005005014
:100A600030B5064A0446957804200023002D04D1B1
:100A700001209070148000200B6030BD60110020B8
:100A800010B5054903460C88052000229C4201D17F
:100A90008A70002010BD00006011002030B5064AA9
:100AA0000446158805200023A54204D19278012A26
:100AB00001D100200B6030BD6011002010B5054948
:100AC00003460C88052000229C4201D18A70002038
:100AD00010BD00007C11002030B5064A0446158880
:100AE00005200023A54204D19278012A01D10020DB
:100AF0000B6030BD7C11002070B50024064D06E06F
:100B00006968E000085C012106F022FB641C28787B
:100B10008442F5D3002070BD3C010020F8B5154695
:100B20000C460646052A01D20720F8BD06F0DEFB7A
:100B3000002803D106F0B0FB0028F6D111490020AF
:100B40004E600C7008618D6048610F4D0DE0E00053
:100B500029688019009181786A46517000780B4AA3
:100B6000694606F045FB0028DFD12046641EE4B24A
:100B70000028ECD10348064A00210C3000F058F957
:100B8000F8BD00003C010020F49F0000F96800005F
:100B9000C9570000BFF34F8F03490248C860BFF335
:100BA0004F8FFEE70400FA0500ED00E0014B1B68E3
:100BB00018470000841000208268C36893420AD05E
:100BC000826883881A4003689A5C0A708168491CAD
:100BD00081600020704705207047002906D0002A58
:100BE00002D0531E134203D0092070470E207047D5
:100BF0000160838000218160C1600846704782687F
:100C0000C3689B1A8288934208D8C368134002685D
:100C1000D154C168491CC16000207047042070474E
:100C200010B50023002904D002680024FF2A02D94D
:100C30000C6007230BE08268147054709470047881
:100C4000D4704468546080680C3090600A60184624
:100C500010BDF8B5002587680E46044600291CD053
:100C600004F0FCFCA078002819D02078616841438A
:100C7000401C2070A078CF19401EA0702078E17829
:100C8000884201D10020207004F0F0FC3946304643
:100C90006268FFF771FA2846F8BD0E25FBE70425C8
:100CA00004F0E4FCF7E7F8B585680E00044609D0C7
:100CB00004F0D4FCA078E178884205D1042704F040
:100CC000D5FC18E00E2716E0607861684143401CAF
:100CD0006070A0784D19401CA0706078E17888425F
:100CE00001D100206070002704F0C0FC3146284686
:100CF0006268FFF741FA3846F8BD0000F8B50468AD
:100D0000044E24013459154600930B46069A294691
:100D1000A047F8BD1811002070B50F4B05241D78B1
:100D20005E78AE4215D01D781C789E88B44201DAF8
:100D3000641C00E000241C705C88DE686C43A4190D
:100D400004609B68E800C418A4880C80185800242C
:100D50001060204670BD000054010020F7B51F4C04
:100D60000E466088814237D81D4F04F077FC227808
:100D70006078A188884201DA401C00E00020C0B2FF
:100D8000904202D104F072FC24E0657860788842D9
:100D900001DA401C00E00020607004F067FCBD42F6
:100DA00018D0A068EF000299C151009900290CD019
:100DB000002E0AD0608832464543E0682818FFF7C5
:100DC000DBF9A0683818868002E00021381881809D
:100DD0000020FEBD0420FEBD0920FEBD5401002000
:100DE000FFFF00000EB504E068468188029A009873
:100DF000904702AA01A96846FFF78EFF0028F3D0AA
:100E00000EBD000030B5CB0008339DB2930700241F
:100E1000002B01D0072030BD044B9A605219DA60D4
:100E20005C701C7058809980002030BD54010020F7
:100E300070B5114CA568002D06D0002A06D00028F8
:100E400004D00023247809E0082070BD072070BD7D
:100E500024265E43AE5D002E04D05B1CA342F7DB6C
:100E6000042070BD242401265C432E556419617052
:100E7000A2610360002070BD6401002010B504462B
:100E8000082904D0002211461046FFF783FE21688E
:100E90006068884710BD00001CB501910090034AAE
:100EA00008216846FFF75AFF1CBD00007D0E0000B8
:100EB000FFB59807002481B01E4615460F4600284E
:100EC0000BD1002E09D007F07FF922490A988861DA
:100ED0000F70324600208E6008E0072005B0F0BD9C
:100EE00024234343D4549B181C75401CB842F7DBA1
:100EF00024204743BB19032048700F461846CB6097
:100F000019461830002218232E465E43D3005B1882
:100F10001C705C709D7058603018521C032AF5DB01
:100F20000020C0433861BC70FC7001240A482405CD
:100F3000046003211420FFF719FA08480460084CE4
:100F40000198A06003211120FFF710FA6068786112
:100F50000020C3E76401002080E200E000E100E03F
:100F600000150140FEB504461D48174682680D462F
:100F7000002A0CD001788C4201D2052D01D2072025
:100F8000FEBD214624235943535C012B01D0082088
:100F9000FEBD8818407801281DD0002608F002FF09
:100FA000C0000F490190C9684018694608F024FF45
:100FB000002812D0012101700A49446049680830B4
:100FC000E2C007490198C96841180098487008F0C4
:100FD000C3FC0020FEBD2E46E0E70420FEBD00005D
:100FE0006401002000150140F8B5144D0446A868BE
:100FF000002809D029788C4201D30720F8BD24218C
:101000006143405C012801D00820F8BD08F0CAFE09
:10101000C600E8686946301808F0EEFE00280AD0DD
:10102000022101704460E86831180098487008F0A7
:1010300093FC0020F8BD0420F8BD000064010020EE
:10104000FFB5584F83B000260D4604467E707A6087
:1010500000292AD0A888296882B25348FFF7BDFD2D
:10106000002823D1A889A96882B24F481030FFF721
:10107000B4FD00281AD160784C4903228000401842
:10108000026022783046920051180E60484D617817
:10109000E96021786961A1686962454E61794036ED
:1010A000002905D00E21F16203E0072007B0F0BD52
:1010B000F0622379022B17D03E493F4A012B45D0DD
:1010C00004232B608860C861F06A40084000F06229
:1010D000581FA860286101209060106078700C98FB
:1010E000008800283FD043E006F000F9002803D133
:1010F00006F0D2F80028D9D130486946006800903F
:10110000A07806F0FBF80028D0D1401E2861A07816
:10111000A860F06A01210843F0622848284A406824
:101120000190E07801A906F063F80028BED1E078CC
:10113000012106F00DF8E07806F0A4F8002801D0AF
:10114000002000E0012006F08FFBC8E704232B609D
:101150008860C861F16A01200143F162E178296188
:10116000A178A960B8E70C9938780880401C3870DD
:1011700000211448C9438160A121890041601249BE
:1011800004200860114B06991A68FF24240489077B
:10119000090EA24309040A431A600D4908600020A1
:1011A00084E7000024010020A81000200007005060
:1011B000002500400021004000200040E89F000082
:1011C000456900000023004080E200E000E400E008
:1011D00000E100E010B501460448FFF710FD0446A9
:1011E000022006F041FB204610BD0000B810002090
:1011F00010B500221146FFF7CDFC10BD70B50C46AE
:1012000092B000216A46117007251171002809D09B
:10121000C17849070CD502A9FFF71AFB002808D1AD
:1012200002AE00E00026002C0ED0E078002802D0AC
:10123000284612B070BD01AA0AA92046FFF708FB94
:101240000028F6D10AAA00E0002268460379017856
:10125000304607F017F8ECE770B50D4604991646CE
:10126000040042D0002E40D0424800224271C360A8
:101270000161242231464048FEF77EFF00F0D0F89D
:101280003D493431084610380160203181603021F9
:101290005438FEF78AFF3848217830380170A17839
:1012A0008170E178C1706178417062692169426141
:1012B0000161E268A168C26081600146E369A269D8
:1012C000CB618A61616A002919D00146A4310246C6
:1012D000B03241628A60636A1B880B80616A436A2C
:1012E000898899800021436A06E00E2070BD666AF5
:1012F000B668765C5654491C9E888E42F7D8A16A1F
:1013000000291CD01C4AAC3211460C398A6081621B
:10131000A36A9B888B80A16A836A0988198000214F
:10132000836A04E0A66AB668765C5654491C9E88B7
:101330008E42F7D82C210A5D0F4910390A73216AB1
:10134000002909D00B4914310162226A52884A806F
:10135000216A026A098811806168002904D0054960
:10136000891D416061684160034829463038FFF7B4
:1013700045FF70BDAC000020480C002010B502886D
:101380001A4C102A17D00021112A17D0192A11D16E
:10139000807900280ED1607901281BD002281FD047
:1013A00003281FD0042805D12171E2680846002ACD
:1013B00000D0904710BD8088208110BD617080886A
:1013C00021898842F9D1012005E021690029F4D062
:1013D000884710BD022000F04DF80028F5D110BD5F
:1013E0000320F8E7032020710420F4E7AC0000207C
:1013F00010B5022801D003280ED1084C207800280F
:101400000AD000202070607900F034F8002803D062
:101410002169002900D0884710BD0000AC000020E1
:1014200010B507210148FEF7C0FE10BDC400002022
:1014300010B50E480078012815D10D4C60780028B1
:1014400011D16079002803D006F066FF00280BD187
:1014500001206070607900F00DF8002803D0216948
:10146000002900D08847002010BD0000480C002053
:10147000AC000020F0B5754C87B06071002606A85E
:10148000069606F046FC0127082806D000286FD1F2
:101490000698002802D02770D5E00696FFF7C0FF17
:1014A0006B4D6878002802D06079012805D0A878B3
:1014B00000280AD06079022807D1E168002903D00A
:1014C000E7700820884700E0E6706079012808D1BD
:1014D0006878002809D05D48193006F0EBFA00283A
:1014E00003D06079022802D00CE002206071A87855
:1014F000002805D05548193006F0DCFA002801D143
:1015000003206071287B002804D16079032801D171
:1015100004206071287E002804D16079042801D15C
:1015200066712671E16800290AD06079032801D02C
:10153000042805D12878002802D06078002818D027
:10154000A67018216846FEF730FE684606700196C0
:1015500006720396607901280FD0022816D03C4EFF
:1015600024363746543F03281CD004285ED13BE084
:101570006AE0A77007208847E3E7344818300190F5
:101580006846077046820682277152E02F4818305D
:1015900001906846077029894182A988018202204A
:1015A000207146E0A88A69464882288A088228482D
:1015B000243008F0BBFC002805D02878002802D091
:1015C0006078002801D003202FE0022069460872CD
:1015D00004200396F8701E4800213038FFF70EFEF5
:1015E000002831D1052020E0A88B69460882288C8C
:1015F00048821748243008F099FC002805D0287844
:10160000002802D06078002801D004200DE00220DC
:101610006946087204200396F8700D48002130389E
:10162000FFF7ECFD00280FD106202071607900281B
:1016300004D0684606F050FE002805D1E168002974
:1016400001D020798847002007B0F0BDAC00002011
:10165000480C0020F0B5124B9978002908D01149A8
:1016600005790D71047B0C730E4E0021303606E0B7
:101670000820F0BD8A008768491CBF58B7508C42CB
:10168000F8D8084C0021103404E08A000668491C90
:10169000B658A6508D42F8D800209870F0BD0000D2
:1016A000AC0000206C0C002010B5002905D0002AE9
:1016B00001D0202A03D9092010BD0E2010BDC3007F
:1016C00003480124C454181842804160002010BD12
:1016D000840E002010B503490089898D012203F092
:1016E000FFFD10BD540E002038B5002821D0002980
:1016F0001FD00A68002A1CD00F4B0024186102601A
:1017000049684160C472FF218172611E01812E21EE
:101710000A48FEF74AFD0A480A490462446207483B
:1017200004706846018002218170074900F004F9C5
:1017300038BD0E2038BD0000CC000020540E002023
:10174000140D002031F400008156000010B503494B
:101750000089098C012203F0C3FD10BD540E002046
:1017600010B50A88372A04D0382A01D106F028F8A3
:1017700010BD08F0EFF910BD1278112A01D0142A1B
:1017800001D189788172704710B5044600F056F88F
:10179000002806D16168034C206900F005F800219B
:1017A000217010BDCC000020F8B5844620482422CA
:1017B0004368204D5A435B1C5B075B0F43601E4B25
:1017C00052195B8A5383131D1362002494830125ED
:1017D0001576147151710D0A95710D0CD571090EA4
:1017E0001172154D052300213035CE00AF5D012F5C
:1017F00010D1D7185B1C3971012903D0022901D0FF
:10180000032906D176197688D7183E71360A7E717B
:101810009B1C641C491C0829E7D3D38361460989B2
:10182000118002219170446108F094F90020F8BD04
:10183000CC000020340D0020540E00200178032934
:1018400002D280780C2801D307207047002070470F
:1018500070B5054601461C221048FEF78DFC104C61
:10186000002626702968002908D00822A018FEF753
:1018700083FC2046083006F065FE03E00848083087
:1018800006F03CFE002808D1401E608004486670C7
:10189000044A0021001DFFF7CBFA70BDE40E0020C2
:1018A000E40000203D9D0000F8B5224C028800278E
:1018B0001F4DE689102A16D029464968112A21D0E1
:1018C000122A2DD0502A1CD1C288801DB24218D1B4
:1018D000028B022A15D1C27E837E10021843C007F4
:1018E000C00F0CD112E0818869800146104808229F
:1018F00016311030FEF740FC6F70002E01D103F05E
:1019000051FEF8BD0020C04368806F700846FFF7A5
:101910006BFB0028F5D0A1690029F2D08847F8BDFB
:10192000811D034808221030FEF726FCE7E700007F
:10193000E4000020E40E002030B5002815D0002976
:1019400013D00E4A1378002B11D09368022B10D0BD
:1019500011D20B4CDD002C19058825804088608051
:101960005B1C61600020936030BD0E2030BD0820FC
:1019700030BD062030BD042030BD0000FC0000203A
:10198000000F002000210448012281600270C16024
:101990004160084670470000FC00002070B5002838
:1019A00015D0002913D0244A1278002A0FD00A88B3
:1019B000302A17D00CDC04464034102A10D0112AEB
:1019C00005D16221FEF7F1FB0020C043A08370BD6A
:1019D000322A2DD0332AFAD1091D05F0A1FE70BD9F
:1019E0008888F3E70546C888091D002807D000212C
:1019F000284604F04BF8284605F006FF70BD2C463B
:101A0000603420782E22504340194A8902808A8906
:101A10004280CA894285098A8185284603F0BCFC38
:101A20000100EBD000206070284604F065F870BD1E
:101A3000091D05F00FFE70BDFC00002010B5002848
:101A40000DD0144A1378002B0BD09368002B08D0CC
:101A5000044660346378002B05D0112010BD0E20A1
:101A600010BD082010BD0023D360536023700346CF
:101A7000024640330848998301881180408850808D
:101A8000988B012106F02EFE0028EBD1012060701A
:101A9000002010BDFC000020000F002070B51C6865
:101AA000944201D1092070BD0578001DED07ED0FAE
:101AB0000D551C68641C1C6008F0DFF870BD000048
:101AC0001CB5144600220192002906D0002C04D037
:101AD0002268032A03D209201CBD0E201CBD6022EF
:101AE0000A7001220192054A009201AB226803F0BC
:101AF000F8FC0028F2D1019921601CBD9D1A00005C
:101B000010B51346602207F03FF810BDF8B51C462B
:101B10001546002810D0002C0ED002290AD3427896
:101B2000037816021E43801C891E002D08D02268EF
:101B3000042A03D20920F8BD0E20F8BD121F22602E
:101B400000271E2E72D012DC3300FEF737FD1E2F49
:101B500033383D2F2F2F2F2F2F2F2F2F2F2F2F5B4E
:101B6000604C757042477A56656ADDE7512F382E12
:101B700071D009DC3246303A1300FEF71FFD087CB5
:101B80009D67726D81989317532E6FD008DC392EA4
:101B90006DD0502E6CD0512E6BD0522E06D1A4E0B9
:101BA000542E67D0552E70D0702E6FD00520002D8A
:101BB0006DD1BEE023462A4600F0E0F8B2E02346AD
:101BC0002A4600F067F9ADE023462A4600F00AF9FC
:101BD000A8E023462A4600F056FFA3E023462A4603
:101BE00000F022FD9EE023462A4600F0E5FD99E044
:101BF00023462A4600F027FE94E023462A4600F0BA
:101C000069FE8FE023462A4600F0AAFE8AE02346BA
:101C10002A4600F006FF85E023462A4601F0CBF86D
:101C200080E023462A4600F064FF7BE071E0234613
:101C30002A4600F0CDFF75E023462A4601F02CF835
:101C400070E023462A4600F021FD6BE023462A4639
:101C500001F027FD66E01BE023462A4601F0F2FD75
:101C600060E023462A4601F0FDFE5BE038E014E028
:101C700027E03FE02FE023462A4601F0CDFF51E068
:101C800023462A4602F043F84CE01FE037E04DE0DF
:101C900023462A4601F05AFF44E023462A4602F032
:101CA00005F93FE023462A4602F033F93AE023469D
:101CB0002A4601F079FE35E023462A4602F08DF8E7
:101CC00030E023462A4602F04DFC2BE023462A460C
:101CD00002F016FC26E023462A4602F0B7FB21E07C
:101CE00023462A4602F0A1FA1CE023462A4602F0C7
:101CF000D5FB17E023462A4602F004FB12E02346F8
:101D00002A4602F010FE0DE023462A4600F026FC8B
:101D100008E023462A4600F01EFF03E023462A4639
:101D200000F0F4FF002D04D0002806D02F80002101
:101D300069802168091D2160F8BD2E80218889B243
:101D4000F6E7000010B5044603F0FEFE21460A48FF
:101D5000FFF724FE2046FFF7A7FD074821460C3871
:101D6000FFF7FEFC204602F0EFFF204605F024FCC2
:101D70002046FFF703FB10BDC80A0020FFB581B065
:101D80000020009001981D4614460F4600280CD0F4
:101D9000002D0AD0032F1FD30326002C07D028685C
:101DA000032806D20C2005B0F0BD0E20FBE71E6014
:101DB00015E00120208003206080231D6A460198E1
:101DC00007F0F8FE234608336A463946019807F0C3
:101DD0006DFF0098B84201D00920E4E72E60002092
:101DE000E1E70000FFB583B003981E4614460028C3
:101DF0002ED0002E2CD0002010270090002C2AD0AE
:101E0000032020801020608025460835231D6A4667
:101E10000499039807F0F1FE00281AD12B466A4670
:101E20000499039807F04DFF002812D12B46083380
:101E30006A460499039807F0E0FE002809D1039947
:101E40000098095C401C0090012907D0002011E097
:101E50000E2007B0F0BD00201F60FAE7A08801A99E
:101E6000FEF73AFE0028F4D101980C2148430849B6
:101E7000401840686860A088FEF720FE0028E8D17E
:101E8000009A04998A4201D00920E2E73760E0E72E
:101E90007C110020FFB581B01D461446070022D0FA
:101EA000002D20D0002005260090002C1DD00220FF
:101EB000208005206080231D6A463846029907F07D
:101EC0009CFE00280DD1234608336A463846029905
:101ED00007F0F7FE002804D1009A02998A4207D041
:101EE000092005B0F0BD0E20FBE700201E60F8E7DA
:101EF0002E60F6E7F8B516460F460546002407E0C3
:101F0000A0003958284604F099FA641CA4B22D1D8B
:101F1000B442F5D30020F8BD014610B501200007FA
:101F2000006980B2484304F073FA002010BD10B578
:101F30001446024618462368C91A072901D2092007
:101F400010BD99180722FEF717F92068C01D206000
:101F5000002010BD10B51C460B4601462068121A21
:101F6000072A01D2092010BD0A781A5420680622D7
:101F7000401C2060C018491CFEF7FEF82068801D38
:101F80002060002010BD38B5002911D0002B0FD0E3
:101F900000788507C407ED0F4007E40F6D00C00F00
:101FA0002C43800004436846047007F097FE38BD58
:101FB0000E2038BDFFB583B00C9D0D9C1F46002D33
:101FC00025D0002C23D00020019072206946087291
:101FD00001AB294602A8226807F080FE002814D130
:101FE00001AE00962A4623680499039804F09CFDEC
:101FF00000280AD100962A4639462368059804F03D
:1020000093FD002801D10199216007B0F0BD0E2099
:10201000FBE710B51346722206F0B6FD10BD0000B6
:10202000FEB50446002015460E460190002907D053
:10203000002D05D02F680221022F03D20920FEBDFA
:102040000E20FEBD7322327001220192002C00D0BE
:1020500000E0002272700191002C3FD001AB3A46A3
:102060003146204607F03AFE0028EAD11D4800908C
:1020700001AB3A463146606803F033FA0028E0D1FC
:10208000204601AB3A463146083007F027FE0028CB
:10209000D7D11548009001AB3A463146E06803F0CD
:1020A00020FA0028CDD1204601AB3A463146103007
:1020B00007F0B5FD0028C4D1204601AB3A463146B1
:1020C000123007F0ACFD0028BBD1204601AB3A46E8
:1020D00031461430FFF757FF0028B2D1019929602B
:1020E000FEBD0000551F00004135000010B513462D
:1020F000732206F049FD10BD1CB50C46002811D016
:10210000002C0FD074216A461171002122680091C1
:1021100001466B4601A807F0E1FD002801D10099B6
:1021200021601CBD0E201CBD10B51346742206F0A4
:102130002BFD10BD002906D0002A04D01368022B05
:1021400003D2092070470E20704779230B700028B6
:1021500000D0012048700220106000207047FEB5BA
:102160001D46174606000C4613D0002D11D0002046
:102170000A460190792301A90095304606F017FD23
:10218000002807D12868002805D00198A0420DD169
:102190000EE00E20FEBD0198801CA04206D83B46F2
:1021A00001AA2146304607F005FDEEE70920FEBDF5
:1021B0000020FEBD7FB5002082B01C4615460E46AD
:1021C0000190002A1ED0002C1CD0206800281BD0B3
:1021D0007E2028700120019001AB294602A82268C8
:1021E00007F01DFD00280BD10848009001AB2946DF
:1021F0003046226803F075F9002801D10199216069
:1022000006B070BD0E20FBE70920F9E77F3400001F
:1022100010B513467E2206F0B7FC10BDF8B51F4678
:1022200015000E460ED0002F0CD03968042915D3A6
:1022300075212970691C07F0D1FC401C002E03D0C9
:10224000012102E00E20F8BD0021441C2954002E7B
:102250001AD0204639680930814201D20920F8BDE0
:102260002919308807F0BAFC04192919708807F079
:10227000B5FC04192919B08807F0B0FC0419291914
:10228000F08807F0ABFC041900203C60F8BD10B5E5
:102290001346752206F078FC10BDF8B507461068A5
:1022A0000E46801C15461C46B0421AD8384607F028
:1022B00081FC2868801CB04213D8A31C2A463146F2
:1022C000384607F077FC2868801CB04209D8231DE7
:1022D0002A463146384607F06DFC2868801CB0421B
:1022E00001D90920F8BDA31D2A463146384607F01A
:1022F00061FC0020F8BD30B5002A0AD0002B08D0C0
:102300001C68022C18D37D241470002903D00124EA
:1023100002E00E2030BD002454700224002907D0B2
:102320001C68042C08D30C889470240AD4700424EC
:102330001D68611C8D4201D2092030BD002800D0EB
:1023400001201055641C00201C6030BDFFB583B017
:102350000C9D1E460C46070025D0002D23D00020E2
:102360000A4601907D2301A90095384606F01FFC1E
:10237000002806D12868002805D00198A04210D175
:10238000002007B0F0BD002E0DD005AB01AA2146FC
:102390003846009604F0B0FB0028F2D10199A14222
:1023A000EFD00920EDE70E20EBE770B5049D002B80
:1023B0000AD0002D08D02C68022C2CD37C241C7051
:1023C000002803D0012402E00E2070BD00245C70C0
:1023D0000224002805D02C68032C1CD300789870A8
:1023E00003241F2A01D9072070BD2E68E01C8642F5
:1023F00011D31819160A0270A41C4670002901D0C6
:10240000012000E000201855641C002909D028682C
:10241000A618864201D9092070BD1819FDF7ACFE37
:10242000344600202C6070BD10B513467C2206F0A7
:10243000ABFB10BD10B5002A06D0002B04D01C68E1
:10244000042C03D2092010BD0E2010BD7624147078
:102450005070000A9070D17004201860002010BDE8
:1024600010B51346762206F08FFB10BDF8B5064670
:1024700010680F46091A14461D46102909D3811900
:1024800010221846FDF778FE206810302060B84210
:1024900001D10920F8BD297C305C4908C0074900FA
:1024A000C00F01432974C8072168C00F715C490837
:1024B0004900084328742068401C20600020F8BDB3
:1024C000F8B5054618680E460027111A1C46112952
:1024D00001D20920F8BD801910222946FDF74CFED3
:1024E000206810302060297CC907C90F31542A7C2C
:1024F000206852085200114331542068401C20606B
:102500003846F8BDF8B515460F4606000ED0002D2A
:102510000CD01C46FFF7AAFF002806D12346123331
:102520002A463946304600F0C9FCF8BD0E20F8BDF9
:10253000F8B51D4617460E000ED0002D0CD00446EF
:10254000FFF7BEFF002806D120462B463A4631460B
:10255000123000F0CFFCF8BD0E20F8BDFFB583B0FF
:102560000020019003981D4614460F4600280CD009
:10257000002D0AD00B2F53D32A26002C07D0286811
:102580002A2807D20C2007B0F0BD0E20FBE7002060
:102590001E60F8E71B2020802A206080231D01AAEE
:1025A000039807F02AFB0028EDD1A31D01AA3946A4
:1025B0000398FFF7BCFC0028E5D123460D3301AAA0
:1025C0003946039807F07DFB0028DCD102AB01AA55
:1025D0003946039807F075FB0028D4D16946A07BE3
:1025E000097A4008CA074000D20F1043F922104070
:1025F0004A07920F520010434007C908400FC90014
:102600000843A073C008234600900F3301AA39463F
:10261000039807F070FB0028B5D10199B94201D0A9
:102620000920B0E72E60AEE7FFB581B00020009032
:1026300001981D4614460F4600280CD0002D0AD0E4
:10264000032F1ED30326002C07D02868032806D2A8
:102650000C2005B0F0BD0E20FBE71E6014E0162034
:10266000208003206080231D6A46019807F0A2FAAB
:10267000A31D6A463946019807F018FB0098B84236
:1026800001D00920E5E72E600020E2E7FFB583B026
:102690000020009003981D4614460F46002837D0AE
:1026A000002D35D0082F30D32A26002C32D0172009
:1026B00020802A206080231D6A46039807F09DFA37
:1026C000002823D1A31D6A463946039800F02AF852
:1026D00000281BD1A08801A9FEF7E0F9002815D138
:1026E00001981C2148430E496A46431839461B1D70
:1026F000039800F0B1FD002808D1A088FEF7C0F9CA
:10270000002803D10099B94207D0092007B0F0BDD5
:102710000E20FBE700201E60F8E72E60F6E70000C1
:1027200060110020F8B5074610681546081A0E46D5
:102730001C46062801D20920F8BD002C3AD03846A4
:1027400007F0BFFA0028F7D16B462A4631463846D3
:1027500007F0B7FA0028EFD16946097860788A0750
:1027600080088000920F1043FB2249071040C90FD8
:10277000890008436070A31C2A463146384600F0A1
:1027800097FD0028D8D1E31C2A463146384600F090
:102790008FFD0028D0D1231D2A463146384600F04F
:1027A000BFFC0028C8D1631D2A463146384600F0D8
:1027B000B7FCF8BD0E20F8BDFFB581B00020009039
:1027C00001981D4614460F4600280CD0002D0AD053
:1027D000042F33D30A26002C07D028680A2806D2F3
:1027E0000C2005B0F0BD0E20FBE71E6029E0122092
:1027F00020800A206080231D6A46019807F0DAF9DC
:10280000A31D6A463946019807F0D4F923460833D8
:102810006A463946019807F0CDF923460A336A46DD
:102820003946019807F0C6F923460C336A46394603
:10283000019807F0BFF90098B84201D00920D0E70D
:102840002E600020CDE7FFB581B0002000900198F8
:102850001D4614460F4600280CD0002D0AD0042F28
:1028600033D30A26002C07D028680A2806D20C2069
:1028700005B0F0BD0E20FBE71E6029E01D20208082
:102880000A206080231D6A46019807F093F9A31D72
:102890006A463946019807F08DF9234608336A469F
:1028A0003946019807F086F923460A336A463946C5
:1028B000019807F07FF923460C336A4639460198A0
:1028C00007F078F90098B84201D00920D0E72E60CF
:1028D0000020CDE7FFB50646002081B01D46144616
:1028E0000090002E0DD0002D0BD00298042832D37A
:1028F0000427002C07D02868042806D20C2005B035
:10290000F0BD0E20FBE71F6028E018202080042087
:102910006080231D6A463046029907F04BF9A07982
:10292000E31D010900980901325C1207120F1143DF
:10293000A171325C09071209090F12011143A1713B
:10294000401C00906A463046029907F0AFF90099A2
:102950000298814201D00920D1E72F600020CEE704
:10296000FFB50746002081B01D4614460090002F99
:102970000AD0002D08D01A26002C07D028681A2863
:1029800007D20C2005B0F0BD0E20FBE700201E6032
:10299000F8E71A206080231D6A463846029907F03E
:1029A0002CF90028EED1A31D6A463846029900F0A2
:1029B0000AF80028E6D1009A02998A4201D009203B
:1029C000E0E72E60DEE7F8B50E46074600206946D0
:1029D000087015461C4631463846FFF7A8FA00280D
:1029E0001ED1E31D2A4631463846FFF7A0FA0028DB
:1029F00016D16B462A463146384607F062F9002860
:102A00000ED1694609782346C8074908C00F490016
:102A10000843A07310332A4631463846FFF73DFC81
:102A2000F8BDFFB581B00020009001981D46144606
:102A30000F4600280CD0002D0AD0032F1ED30326EA
:102A4000002C07D02868032806D20C2005B0F0BD62
:102A50000E20FBE71E6014E0112020800320608020
:102A6000231D6A46019807F0A5F8A31D6A4639465A
:102A7000019807F01BF90098B84201D00920E5E75A
:102A80002E600020E2E7FFB50746002081B01D461A
:102A900014460090002F0DD0002D0BD0029808286E
:102AA00022D30826002C07D02868082806D20C203C
:102AB00005B0F0BD0E20FBE71E6018E01520208059
:102AC00008206080231D6A463846029907F072F894
:102AD000009806223918A01DFDF74EFB00980299B8
:102AE000801D0090884201D00920E1E72E6000207F
:102AF000DEE7FFB581B00020009001981D46144626
:102B00000F4600280CD0002D0AD0032F1ED3032619
:102B1000002C07D02868032806D20C2005B0F0BD91
:102B20000E20FBE71E6014E01A2020800320608046
:102B3000231D6A46019807F03DF8A31D6A463946F1
:102B4000019803F025FF0098B84201D00920E5E77D
:102B50002E600020E2E7FFB50746002081B01D4649
:102B600014460090002F0AD0002D08D00A26002C11
:102B700007D028680A2807D20C2005B0F0BD0E2027
:102B8000FBE700201E60F8E71E2020800A206080FE
:102B9000231D6A463846029907F02FF80028ECD129
:102BA000E31D6A4638460299FFF7C1F90028E4D1CF
:102BB000A31D6A463846029907F083F80028DCD145
:102BC000009A02998A4201D00920D6E72E60D4E704
:102BD000FFB581B00020009001981D4614460F46B5
:102BE00000280CD0002D0AD0042F20D31626002C4C
:102BF00007D02868162806D20C2005B0F0BD0E209C
:102C0000FBE71E6016E01420208016206080231D44
:102C10006A46019806F0CEFFA31D6A463946019820
:102C200000F00AF80028E8D10098B84201D0092045
:102C3000E3E72E600020E0E7F8B515460E460746AC
:102C40001C46FFF774F9002825D1234608332A468D
:102C50003146384600F032F900281CD16B462A462E
:102C60003146384607F02DF8002814D16A46A17C79
:102C700012784908D3074900DB0F1943FD23194097
:102C80009307DB0F5B0019435207FB23D20F194058
:102C900092001143A174F8BDFFB581B000200090EF
:102CA00001981D4614460F4600280CD0002D0AD06E
:102CB000072F23D30726002C07D02868072807D220
:102CC0000C2005B0F0BD0E20FBE700201E60F8E7E9
:102CD0001320208007206080231D6A46019806F09B
:102CE0008CFF0028EDD1A31D6A463946019800F0FB
:102CF00009F80028E5D10099B94201D00920E0E7A0
:102D00002E60DEE710B500F06DFB10BDFFB581B0A1
:102D10000020009001981D4614460F4600280CD054
:102D2000002D0AD0032F1ED30326002C07D02868BD
:102D3000032806D20C2005B0F0BD0E20FBE71E6074
:102D400014E003206080231D6A46019806F032FFDC
:102D5000A31D6A463946019800F00AF80028EAD116
:102D60000098B84201D00920E5E72E600020E2E794
:102D700030B5002807D0002A05D0156800248D4200
:102D800003D1092030BD0E2030BD1978455D4908BA
:102D9000ED074900ED0F29431970FD2529401568FD
:102DA000405D8007C00F4000014319701068401C4F
:102DB0001060204630BDF8B5074600201D46144679
:102DC0000090002F04D0002D02D003291FD101E074
:102DD0000E20F8BD0326002C04D02868032803D257
:102DE0000C20F8BD1E6015E01920208003206080B3
:102DF0000146231D6A46384606F0DCFEA31D6A46DE
:102E00000321384606F052FF0098032801D009201C
:102E1000F8BD2E600020F8BDF8B515460F46060037
:102E20000ED0002D0CD01C4600F022F8002806D150
:102E3000234610332A4639463046FFF778F8F8BD66
:102E40000E20F8BDF8B51D4617460E000ED0002D19
:102E50000CD0044600F01FF8002806D120462B466F
:102E60003A4631461030FFF775F8F8BD0E20F8BD30
:102E700010B51446024618462368C91A102901D213
:102E8000092010BD99181022FDF776F9206810303E
:102E90002060002010BD10B51C460B46014620687E
:102EA000121A102A01D2092010BDC0181022FDF7F5
:102EB00063F9206810302060002010BDFFB581B09C
:102EC00015460F461C46019806F097FE060004D1F1
:102ED0002868391A082902D2092005B0F0BD0199E5
:102EE00008224118A01CFDF747F92868083028601F
:102EF0003046F2E7FFB581B01D46164604460299FA
:102F000006F08DFE07462868311A082902D20920EA
:102F100005B0F0BD029908224018A11CFDF72CF95C
:102F20002868083028603846F2E7002906D0002AD1
:102F300004D01368022B03D2092070470E2070477B
:102F40007B230B70002800D0012048700220106005
:102F500000207047FFB583B0144600201F460D4681
:102F6000009301900A467B2301A9039805F01FFEF8
:102F7000060003D13868002802D0002007B0F0BD59
:102F8000002C20D001980830A8421AD8234601AA64
:102F90002946039806F00EFEA31C01AA29460398B1
:102FA00006F008FE231D01AA2946039806F002FE3A
:102FB000A31D01AA2946039806F0FCFD0198A8422A
:102FC00003D00920DAE70E20D8E73046D6E7F8B577
:102FD00016460C0005460AD0002E08D0306802289C
:102FE0000FD37A202070002D03D0012002E00E20A4
:102FF000F8BD002060700220002D18D030680A282B
:1030000001D20920F8BDA11C288806F0ECFD871C20
:10301000E119688806F0E7FDC719E119A88806F0EC
:10302000E2FDC719E119E88806F0DDFDC01930603E
:103030000020F8BD10B513467A2205F0A5FD10BD9D
:10304000FFB583B00C9C0D9E0F46002C20D0002EA7
:103050001ED082206946087235680020019001ABBD
:103060002A46214602A806F039FE002811D101ABFC
:103070002A46214603A806F0D2FD002809D101986E
:103080000146401CA84236D8002F04D0012203E09C
:103090000E2007B0F0BD002262540190002F0ED028
:1030A00001461131A94226D8201810223946FDF7D1
:1030B00063F80198397C10302154401C0190144869
:1030C000009001AB2A462146059802F00AFA070053
:1030D000DFD101980146401CA8420CD8069A002A6C
:1030E00000D0012262540190069900290DD00146BA
:1030F0001031A94201D90920CBE7201810220699E6
:10310000FDF73AF801981030019030603846C0E77A
:10311000972E000010B51346822205F035FD10BD34
:1031200030B5002807D0002A05D0156800248D424C
:1031300003D1092030BD0E2030BD1978455D490806
:10314000ED074900ED0F29431970FD252940156849
:10315000455DAD07ED0F6D0029431970FB25294032
:103160001568405D4007C00F80000143197010686A
:10317000401C1060204630BD70B5002908D0002BDF
:1031800006D004461D680020954203D1092070BD79
:103190000E2070BD2278D207D20F4A5526781D68BE
:1031A000B607F60F760032434A5524781D68640747
:1031B000E40FA40022434A551968491C196070BDE8
:1031C000F8B507460E48009015460E461C46384690
:1031D00002F058F9002812D10A480090231D2A460F
:1031E0003146384602F04EF9002808D106482346F9
:1031F000009008332A463146384602F043F9F8BDBC
:1032000005250000192E0000F5340000F8B504462D
:103210000E4800901D4616460F46206802F061F9E0
:10322000002811D10A4800902B4632463946606882
:1032300002F057F9002807D1064800902B46324685
:103240003946A06802F04DF9F8BD000031250000B4
:10325000452E00001B350000F8B515460F46060048
:103260000ED0002D0CD01C46FFF7AAFF002806D177
:1032700023460C332A4639463046FFF7A1FFF8BDF6
:103280000E20F8BDF8B51D4617460E000ED0002DD5
:103290000CD00446FFF7BAFF002806D120462B4683
:1032A0003A4631460C30FFF7B1FFF8BD0E20F8BDAD
:1032B00038B51C4613688B4201D1092038BD6B46D6
:1032C00006F0FFFC0028F9D1207800994008CA07D1
:1032D0004000D20F1043FD2210408A07D20F520047
:1032E00010434907FB22C90F104089000843207092
:1032F000002038BDFFB583B00C9E0D9C1746002EF4
:1033000037D0002C35D07F20694608722568002010
:10331000019001AB2A46314602A806F0DFFC0028E6
:1033200025D101AB2A46314603A806F078FC0028D7
:103330001DD101AB2A46314604A806F0CFFC002877
:1033400015D10D48009001AB2A463146384602F0AF
:10335000C8F800280BD10948009001AB2A46314635
:10336000069802F0BEF8002801D10199216007B04B
:10337000F0BD0E20FBE700007F3400008532000026
:103380007FB582B01C460D46060027D0002C25D004
:1033900000200A4601907F2301A90094304605F0E1
:1033A00006FC002806D12068002805D00198A84214
:1033B00012D1002006B070BD049800280ED0084835
:1033C000009004AB01AA2946304602F05BF80028C1
:1033D000F0D10199A942EDD00920EBE70E20E9E7F1
:1033E00059320000F8B51C4615460E4607466B4696
:1033F00006F067FC002841D169462078097840082A
:10340000C9074000C90F08432070FD2108406946E4
:103410000978631C8907C90F490008432070E3211C
:103420000840694609782A46C906490F89000843B9
:103430002070DF210840694609788906C90F4901D3
:10344000084320703146384606F03BFC002815D171
:10345000A31C2A463146384606F033FC00280DD11D
:10346000E31C2A4631463846FFF75AFE002805D1AC
:10347000231D2A4631463846FFF752FEF8BDF8B5FF
:103480000446007816460F468207C107D20FC90FBF
:1034900052001143C206520F920080061143C00F22
:1034A00040010143684601701D463246394606F028
:1034B00015FC00281DD12B4632463946601C06F00B
:1034C0000DFC002815D12B4632463946A01C06F0CB
:1034D00005FC00280DD12B4632463946E01CFFF78B
:1034E0004BFE002805D12B4632463946201DFFF7FA
:1034F00043FEF8BD10B5144602462068091A10298B
:1035000001D2092010BD811810221846FCF734FEA4
:10351000206810302060002010BD10B51C461B68CC
:10352000D21A102A01D2092010BD5B1801461022C0
:103530001846FCF721FE206810302060002010BDE6
:10354000FFB581B0029900290DD0049900290AD055
:10355000044600790025082802D8207B082804D9D1
:10356000072005B0F0BD0E20FBE70B46201D039A97
:10357000029906F0B3FB0026009602AF0ECF20683A
:1035800001F0AFFF144F08E000972068A9004058F1
:1035900002A90EC901F0A5FF6D1C2079A842F3D83D
:1035A00002AD0ECD20460C3006F098FB009602AD21
:1035B0000ECDA06801F095FF0025084E08E00096AA
:1035C000A068A900405802AF0ECF01F08AFF6D1C21
:1035D000217BA942F3D8C4E7551F0000972E0000B5
:1035E00010B5002A10D0002B0ED01C68032C15D368
:1035F000922414705070000A9070186804280DD33B
:10360000002903D0012002E00E2010BD0020D07060
:10361000042000290DD01868082801D2092010BD07
:103620000C881471240A547148889071000AD07172
:1036300008201860002010BD10B51346922205F036
:10364000A3FA10BD10B5002A0DD0002B0BD01C68BA
:10365000042C12D3932414705070000A9070002927
:1036600003D0012002E00E2010BD0020D070042005
:1036700000290DD01868082801D2092010BD0C8837
:103680001471240A547148889071000AD07108207E
:103690001860002010BD10B51346932205F074FA8F
:1036A00010BDFFB58BB0002002900B981546002886
:1036B0002BD00E98002828D00C9808287DD30146DE
:1036C00007AB02AA0B9806F075FA08AB02AA0C9990
:1036D0000B9806F06FFA09AB02AA0C990B9806F04A
:1036E00069FA01AB02AA0C990B9806F063FA6846D6
:1036F00086880A2046430E36002D7DD00E9800683D
:10370000B04204D20C200FB0F0BD0E20FBE73220F7
:1037100028806E806846808BA8806846008CE88090
:103720006846808C288168468088A881C10040183E
:10373000029941180C9881427ED8002774E00A2033
:103740007843441923460E3302AA0C990B9806F0CD
:1037500031FA2346103302AA0C990B9806F0A6FA08
:1037600004AB02AA0C990B9806F0A0FA6946A07C5B
:10377000097C4008C9074000C90F0843A074FD2117
:1037800008406946097C8907C90F49000843A074AD
:10379000FB2108406946097C4907C90F8900084395
:1037A000A074F72108406946097C0907C90FC900C0
:1037B0000843A074EF21084000E03DE06946097C21
:1037C00006ABC906C90F09010843A074DF210840F0
:1037D0006946097C02AA8906C90F49010843A074F9
:1037E000BF2108406946097C4906C90F8901084381
:1037F000A0740C990B9800E020E006F057FA694697
:10380000087E2346C007C00FE074143302AA0C9947
:103810000B9806F0CFF92346163302AA0C990B98A1
:1038200006F0C8F97F1CBFB268468088874286D3FD
:1038300002990C98814201D0092064E70E98066035
:10384000002060E7FFB587B007981D4614460E4676
:10385000002845D0002D43D000200190062E3CD3F7
:1038600008202F68286003AB01AA079806F0A2F988
:1038700004AB01AA3146079806F09CF905AB01AAF2
:103880003146079806F096F90020002C0FD02868E2
:10389000B84222D83420208068468089A0806846BB
:1038A000008AE0806846808A208120460C302968A2
:1038B0000090791A029102AB01AA3146079800F0F4
:1038C00011F800280AD12968029A89182960002C69
:1038D00000D061800199B14200D009200BB0F0BD49
:1038E0000E20FBE7FFB585B0002003901168069815
:1038F0000E9C401A1E461546042838D36B4606997E
:10390000059806F057F902AB2A460699059806F085
:1039100051F9694608880989C2000F464743121DBC
:10392000D21933683260002C37D061802080306833
:1039300098421CD8684600880026C00007193F1D21
:1039400026E0F0000019001D0190476029680698E4
:10395000401A02280BD32A46019B0699059806F0C7
:1039600029F9286806996288091A8A4202D9092029
:1039700009B0F0BD0599411801984068FCF7FCFBBF
:103980006188286840182860684600893F18761CBE
:10399000684600888642D4D304E0891C2A684843DC
:1039A000101828600398E3E7F8B505460020144690
:1039B0000E460090002D0FD0002B0DD00A2E30D3D4
:1039C000E879A97902020A430A32002C06D0186865
:1039D000904206D20C20F8BD0E20F8BD00201A60DF
:1039E000F8BD1A6036202080231D6A4631462846DD
:1039F00006F0E0F8A31D6A463146284606F0DAF8DC
:103A0000234608336A463146284606F0D3F8234653
:103A10000C336A463146284600F005F80099B14259
:103A2000DED00920F8BDF8B50746002000901068E8
:103A30001546081A0E461C46022807D3384606F0DB
:103A4000B9F828682288311A8A4201D90920F8BDBC
:103A5000C119A01CFCF790FB218828684018286039
:103A60000098F8BDFFB587B00020009007981F466A
:103A70001446002829D0002F27D00898082860D3A2
:103A8000014603AB6A46079806F094F804AB6A4611
:103A90000899079806F08EF805AB6A4608990798CA
:103AA00006F088F801AB6A460899079806F082F894
:103AB00068468588062045430E35002C43D038687B
:103AC000A84204D20C200BB0F0BD0E20FBE733203F
:103AD0002080658068468089A0806846008AE080F2
:103AE0006846808A208168468088A08181004018CD
:103AF000009941180898814223D8002619E0062031
:103B00007043031902936A460E330899079806F02A
:103B100051F8029B6A4610330899079806F04AF854
:103B2000029B6A4612330899079806F0BFF8761C84
:103B3000B6B2684680888642E1D3009908988142EF
:103B400001D00920BFE700203D60BCE7FFB581B090
:103B50000020009001981F461446002813D0002F23
:103B600011D002980B2852D30198817A407A0E0224
:103B7000064335461335002C07D03868A84206D2D4
:103B80000C2005B0F0BD0E20FBE71D6042E03820A0
:103B900020806580231D6A460299019806F00AF884
:103BA000A31D6A460299019806F004F823460833DB
:103BB0006A460299019805F0FDFF23460C336A46D8
:103BC0000299019805F0F6FF23460E336A460299E2
:103BD000019806F06BF8234610336A460299019863
:103BE00005F0E8FF0098029982198A420FD8002E4A
:103BF00009D001993246091820461230FCF7BCFA68
:103C000000988019009001460298814201D0092055
:103C1000B7E73D600020B4E7FFB585B00020009015
:103C20000598144600282AD00898002827D006981E
:103C3000082866D3014602AB6A46059805F0BAFF2C
:103C400003AB6A460699059805F0B4FF04AB6A46D3
:103C50000699059805F0AEFF01AB6A4606990598EE
:103C600005F0A8FF68468088C5000E35002C4AD0B4
:103C700008980068A84204D20C2009B0F0BD0E20BC
:103C8000FBE730202080658068460089A080684678
:103C90008089E0806846008A208168468088A0810B
:103CA000C100081A009941180698814229D80026B7
:103CB0001FE0F00007193B460E336A460699059847
:103CC00005F078FF3B4610336A460699059805F0E3
:103CD000EDFF3B4612336A460699059805F06AFFE8
:103CE0003B4614336A460699059805F063FF761C37
:103CF000B6B2684680888642DBD300990698814236
:103D000001D00920B9E7089805600020B5E7FFB5A4
:103D100081B00020009001981F461446002813D05F
:103D2000002F11D002980C2852D30198C17A807AC2
:103D30000E02064335461335002C07D03868A842DA
:103D400006D20C2005B0F0BD0E20FBE71D6042E05E
:103D5000352020806580231D6A460299019805F070
:103D600029FFA31D6A460299019805F023FF234607
:103D700008336A460299019805F01CFF23460C336C
:103D80006A460299019805F015FF23460E336A46EC
:103D90000299019805F00EFF234610336A460299F6
:103DA000019805F007FF0098029982198A420FD8FE
:103DB000002E09D001993246091820461230FCF72E
:103DC000DBF900988019009001460298814201D0E9
:103DD0000920B7E73D600020B4E7F8B506460020AB
:103DE00014460D460090002E11D0002B0FD0082D48
:103DF00039D3F079B17902020A430A2042430A32E8
:103E0000002C06D01868904206D20C20F8BD0E2077
:103E1000F8BD00201A60F8BD31202080231D6A46BD
:103E20002946304605F0E9FE0028F4D1A31D6A4674
:103E30002946304605F0E1FE0028ECD12346083340
:103E40006A462946304605F0D8FE0028E3D12346CD
:103E50000C336A462946304600F007F80028DAD1CC
:103E60000099A942D7D00920F8BDFFB581B01C4602
:103E700015460E466B46019805F0BFFE002813D18B
:103E80006946098821800027A41C09E023462A46A8
:103E90003146019800F0C2F8002805D10A347F1C91
:103EA000694609888F42F1D305B0F0BDFFB581B0F6
:103EB0000020009001981D4614460F4600280CD0A3
:103EC000002D0AD0032F1FD30D26002C07D0286801
:103ED0000D2806D20C2005B0F0BD0E20FBE71E60B9
:103EE00015E0392020800D206080231D6A4601984E
:103EF00005F060FE23460C336A463946019805F00A
:103F0000D5FE0098B84201D00920E4E72E600020D9
:103F1000E1E7FFB581B00020009001981F461446EC
:103F2000002813D0002F11D002980D2859D30198E2
:103F3000017BC07A0E02064335461535002C07D0AA
:103F40003868A84206D20C2005B0F0BD0E20FBE771
:103F50001D6049E0372020806580231D6A46029954
:103F6000019805F027FEA31D6A460299019805F005
:103F700021FE234608336A460299019805F01AFE8D
:103F800023460C336A460299019805F013FE234636
:103F90000E336A460299019805F088FE23461033D5
:103FA0006A460299019805F005FE234612336A46D7
:103FB0000299019805F0FEFD0098029982198A4243
:103FC0000FD8002E09D00199324609182046143026
:103FD000FCF7D2F8009880190090014602988142BF
:103FE00001D00920B0E73D600020ADE7FFB51068C3
:103FF0000027081A81B015460E461C46042802D236
:10400000092005B0F0BD019805F0D4FDA31C2A4697
:104010003146019805F0CEFD3846F2E7F8B5154671
:104020000E4607461C4605F0E8FD002805D1A31CF6
:104030002A463146384600F057F8F8BD30B5039CA3
:10404000002B13D0002C11D02568052D18D39025F6
:104050001D705870000A9870D970090A197120688B
:1040600006280DD3002A03D0012002E00E2030BD27
:10407000002058710620002A0BD02068092801D2A0
:10408000092030BD11889971090AD9719078187288
:1040900009202060002030BD10B51346902204F0A6
:1040A00073FD10BD30B5039D002B06D0002D04D04C
:1040B0002C68072C03D2092030BD0E2030BD95247A
:1040C0001C705870000A9870D970090A19715A71D9
:1040D000100A987107202860002030BD10B51346E3
:1040E000952204F051FD10BDF8B515460E46074661
:1040F0001C4600F065FD002805D1231D2A463146E7
:104100003846FFF773FFF8BDF8B51F4615000E4699
:104110000ED0002F0CD0396804293DD39721297087
:10412000691C05F065FD401C002E03D0012102E052
:104130000E20F8BD0021441C2954002E33D0204607
:1041400039680930814227D3307828557078641C4B
:104150002855641C2919708805F04AFD041929198D
:10416000B08805F045FD04192919F08805F040FDD7
:104170000419F088142801D90720F8BDB068002878
:1041800000D001202855B168641C00290BD0F288AA
:104190003B681019984201D90920F8BD2819FBF78E
:1041A000EBFFF088041900203C60F8BD10B5134601
:1041B000972204F0E9FC10BDFFB581B016460F460A
:1041C0001C46019800F0FCFC002815D1231D324646
:1041D0003946019800F0F4FC00280DD1234608333D
:1041E00032463946019800F0EBFC050004D13068F6
:1041F000381A052802D2092005B0F0BD23460C3339
:1042000032463946019805F0D5FC23460E33324636
:104210003946019805F0CEFC234610333246394624
:10422000019805F043FD2846E6E7FFB581B0002080
:10423000009001981D4614460F4600280CD0002D12
:104240000AD0032F1ED30426002C07D02868042888
:1042500006D20C2005B0F0BD0E20FBE71E6014E076
:104260005320208004206080231D6A46019805F0B9
:10427000A1FCA31D6A463946019805F09BFC0098F5
:10428000B84201D00920E5E72E600020E2E7FFB543
:104290008BB00B98149C1D461646002823D0002E88
:1042A00021D016202F68286002AB0C990B9805F0DE
:1042B000A4FC002815D104AB32460C990B98FFF7EB
:1042C0007BFF00280DD103AB32460C990B9805F00B
:1042D00094FC060005D1002C12D02868B84204D9FD
:1042E00009200FB0F0BD0E20FBE768460089208052
:1042F000122204A9A01CFBF73FFF68468089A08218
:104300003046EEE7FFB585B01D46144606002FD0B7
:10431000002D2DD00020019002202F68286003ABD3
:1043200001AA3046069905F068FC002821D1002C2E
:1043300008D02868B8423BD8512020806846808940
:10434000A080A01D29680090791A029102AB01AAF1
:104350003046069900F032F807000AD12868029921
:1043600040182860002C1FD0A079022803D01BE041
:104370000E2009B0F0BDA07A062815D1A08804A9A6
:10438000FCF7AAFB05280FD004980C2148430A49E2
:1043900001AA431818460830009030461B1D0699A4
:1043A00002F0AAFB0700E4D101990698814201D0EE
:1043B0000920DEE73846DCE77C110020FFB583B03A
:1043C0000C9C1D461646070019D0002D17D0002E54
:1043D00015D001AB049905F074FC00280DD12968B3
:1043E0000220029128600020002C11D0684600793C
:1043F00020702868884204D9092007B0F0BD0E203B
:10440000FBE768460079012801D0022806D1A01CEC
:1044100069460979012903D0022909D00B20ECE76C
:10442000009002AB324638460499FFF730FF06E0B1
:10443000009002AB32463846049900F0EBF80028B1
:10444000DBD12968029A89182960D6E7F8B50E46AB
:1044500000211C46009100280BD0002C09D0022E10
:1044600017D30225002A06D02168022905D20C2084
:10447000F8BD0E20F8BD1D600EE054211180022110
:104480005180131D6A46314605F094FB0098B042F6
:1044900001D00920F8BD25600020F8BDFFB581B02E
:1044A0000020009001981D4614460F4600280CD0AD
:1044B000002D0AD0032F1ED30326002C07D0286816
:1044C000032806D20C2005B0F0BD0E20FBE71E60CD
:1044D00014E05220208003206080231D6A4601984A
:1044E00005F068FBA31D6A463946019805F0DEFB1E
:1044F0000098B84201D00920E5E72E600020E2E7ED
:10450000FFB581B00020009001981D4614460F466B
:1045100000280CD0002D0AD0032F1ED30326002C18
:1045200007D02868032806D20C2005B0F0BD0E2065
:10453000FBE71E6014E05520208003206080231DCF
:104540006A46019805F036FBA31D6A463946019874
:1045500005F0ACFB0098B84201D00920E5E72E60D9
:104560000020E2E7FFB585B01D46144606002DD0B9
:10457000002D2BD00020019002202F68286003AB73
:1045800001AA3046069905F038FB00281FD1002CFF
:1045900006D02868B84236D868468089A080A01D19
:1045A00029680090791A029102AB01AA3046069957
:1045B00000F030F807000AD12868029940182860F6
:1045C000002C1CD0207A062803D018E00E2009B059
:1045D000F0BDA08804A9FCF77FFA05280FD0049845
:1045E0000C2148430A4901AA431818460830009094
:1045F00030461B1D069902F07FFA0700E7D10199AA
:104600000698814201D00920E1E73846DFE7000043
:104610007C110020FFB58DB00D98169F1C461546E5
:10462000002852D0002D50D0002C4ED0206807908A
:104630001A20206005AB0E990D9805F0DEFA0028CF
:1046400041D103AB2A460E990D9805F03AFB00289C
:1046500039D108AB2A460E990D98FFF7ADFD002819
:1046600031D102AB2A460E990D9805F0C6FA002802
:1046700029D101AB2A460E990D9805F0BEFA060025
:1046800021D169468988206840182060002F24D0F5
:1046900007993C46884215D86846808A208068463B
:1046A000007BA070122208A9201DFBF765FD68465B
:1046B0000089E08268468288228328680E99091A58
:1046C0008A4204D9092011B0F0BD0E20FBE70D99F4
:1046D000411820461A30FBF74FFD69468988286843
:1046E000401828603046EEE73FB583B000200A9CB2
:1046F0000090A72069461D460871002B25D0002C8C
:1047000023D00B46294601A8226805F0E7FA0028C5
:1047100019D16B46294603A8226805F080FA0028C3
:1047200011D16B46294604A8226805F078FA0028C2
:1047300009D16B46294605A8226805F070FA0028C1
:1047400001D10099216007B030BD0E20FBE710B504
:104750001346A72204F018FA10BD3FB581B00D46EC
:1047600000230899099C009300290FD0002C0DD03C
:104770002368082B21D3AA230B704870000A887085
:1047800003200090002A04D0012003E00E2005B091
:1047900030BD0020C87004200090002A08D0206896
:1047A0000623062809D312880A71120A4A71009357
:1047B00000982368421C934201D20920E7E7002DAC
:1047C00001D0012300E000230B5400926B4604A8A3
:1047D000226805F052FA0028D9D100982060002004
:1047E000D5E7FFB583B00C9F1C460D46060036D0BA
:1047F000002F34D000200A460190AA2301A9009777
:10480000304604F0D4F9002827D13868002803D0B6
:104810000198A84235D136E00198C01CA84230D892
:1048200002AB01AA2946304605F0C4F90199705C33
:10483000491C0191012805D0002CE9D06846008967
:104840002080E5E70598002809D0002C07D06A46AB
:1048500020881289904204D20C2007B0F0BD0E20AF
:10486000FBE78818A8420CD871180598FBF784FC60
:1048700068460089208068460089019908180190DF
:10488000C6E70920E9E70020E7E77FB582B00B46DD
:1048900000210A9C0B9E15460091002C0FD0002E83
:1048A0000DD0316808291DD3A92121706070000A3C
:1048B000A07003200090002B04D0012003E00E2004
:1048C00006B070BD0020E07004200090002B18D0CE
:1048D000C001854201D90720F2E7284631680A3035
:1048E000884201D90920EBE72571290A6171062068
:1048F0000090A01D2A461946FBF73EFC009840197F
:1049000000906B46214605A8326805F0B6F90028EC
:10491000D6D1009830600020D2E710B51346A92206
:1049200004F032F910BDFFB585B01D4614460700EE
:1049300030D0002C2ED0002D2CD000200190022051
:104940002E68286003AB01AA3846069905F055F990
:1049500000281DD1231D01AA3846069905F04DF9FE
:10496000002815D12868A41D301A029002AB01AAB4
:1049700000943846069900F00FF8002808D12968FD
:10498000029A89182960019A06998A4200D0092062
:1049900009B0F0BD0E20FBE7FFB583B003980C9C77
:1049A0001F46154600282ED0002D2CD0002F2AD0CF
:1049B00038680290286801900020694608806B469C
:1049C00001AA0499039805F018F9060019D169465F
:1049D00009886118081B001D3860002C1ED0029940
:1049E00088420DD823462A460499039800F018F807
:1049F000060006D1286804992288091A8A4204D937
:104A0000092007B0F0BD0E20FBE703994118201DD7
:104A1000FBF7B2FB21882868401828603046F0E791
:104A2000F8B515460F4606000FD0002D0DD0002B0F
:104A30000BD01C4605F0E1F8002805D1A31C2A463E
:104A40003946304605F0D9F8F8BD0E20F8BD000013
:104A50001CB5002348221449082004F04FFD00280B
:104A600003D000221146FCF795F800200090019039
:104A7000684603F0CFFB002803D000221146FCF764
:104A800089F80A4804F030FD002803D000221146BE
:104A9000FCF780F8064804F04BFD002803D0002204
:104AA0001146FCF777F81CBD14050020451D0000D9
:104AB0004999000070B51C460B4601462068002548
:104AC000121A102A01D2092070BDC0181022FBF75B
:104AD00053FB206810302060284670BD70B5049DDF
:104AE000002B0AD0002D08D02C68022C1AD3652484
:104AF0001C70002803D0012402E00E2070BD0024A9
:104B00005C700224002809D02C68052C0AD3068882
:104B10009E70360ADE708078187105242E68A01CFD
:104B2000864201D2092070BD002901D0012000E099
:104B300000201855641C002A01D0012000E000204C
:104B40001855641C00202C6070BDFFB583B007466B
:104B5000164600200D460C9C0A460190652301A9CB
:104B60000094384604F023F8002819D12068002862
:104B700003D00198A8421FD120E001980146401CB3
:104B8000A84219D87C5C0190002EF2D00699002929
:104B900010D00119A9420FD83178A14202D20C20BD
:104BA00007B0F0BD391822460698FBF7E5FA0198E0
:104BB000001901903470DCE70920F1E70020EFE7ED
:104BC000F8B5074610681546081A0E461C46032815
:104BD00001D20920F8BD384604F0ECFFA31C2A4698
:104BE0003146384605F062F80020F8BDFFB583B0C5
:104BF0001C46150026D0002C24D0002601962768DC
:104C000063206946087201AB3A46294602A805F0BE
:104C100065F8002814D10C48009001AB3A462946AB
:104C2000039800F05EFC00280AD101AB3A46294601
:104C30000096049800F055FC002801D101992160EC
:104C400007B0F0BD0E20FBE7B54A0000FEB51C46DC
:104C5000164607000D4616D0002C14D0002E12D098
:104C600000200A460190632301A90094384603F00E
:104C70009EFF002806D12068002806D00198A8428F
:104C800010D10020FEBD0E20FEBD07480090334627
:104C900001AA2946384600F0F5FB0028F4D1019915
:104CA000A942F1D00920FEBDC39C00001CB50446FA
:104CB00081786A460C4803F033F8002812D16078F6
:104CC0001C21484309491C2340181A46694603F031
:104CD000BBF8064806494030807A80000A582146D1
:104CE000684690471CBD00001C01002044100020B5
:104CF000C89F00007CB5134E00250C46306000298B
:104D000018D06946002000F0B3F8002819D101A995
:104D1000012000F0ADF8002813D168460179002089
:104D2000002901D0022004E069460978002900D05A
:104D30000B2020707068002802D1FBF72FFE05467B
:104D400028467CBDA000002010B51C4C018860687E
:104D500010290DD011290AD1401E606007D1FBF740
:104D60001DFE002803D02168002900D0884710BD0F
:104D700000281ED100210122084600F0B5F80028C5
:104D800001D0072811D107220221012000F0ACF840
:104D9000002801D0072808D104220221002000F0B9
:104DA000A3F8002805D0072803D02168002900D0E7
:104DB00088476068401C606010BD0000A0000020B3
:104DC00010B5032000F00AFA002801D0062800D10F
:104DD000002010BDF8B507460024224802E0641CFC
:104DE000042C19D2A2008258BA42F8D1042C13D252
:104DF0001D4E1E4DF069002928D001290DD0022931
:104E00000AD16000201840194578002D04D0F168BF
:104E1000002901D028468847F8BD6100621829465C
:104E2000AD5C511800914978002909D071680A22B7
:104E300051430D4A521CFCF795F8002800D17770B9
:104E400000988178084810300155DEE7FCF7CCF86F
:104E500005486100611810304919005D8D78A8423D
:104E6000D3D0F8BD489F0000800000200A0C00202D
:104E700004280CD2074A1269074B80001B5C0120F2
:104E80009840904300D00120087000207047002017
:104E9000FAE7000000050050489F000010B5042804
:104EA0000CD0072818D00A2805D00E2805D10D48A7
:104EB000FCF76AFC09E004F0F5FA10BD094813217B
:104EC0001C38808803F0F8FA08E00028F5D00022AA
:104ED0001146FBF75FFE10BDFCF7AAFA0828F4D1D3
:104EE00010BD00001C00002070B50023042811D262
:104EF000440004190D4D012A02D101290DD00022D0
:104F000046008019094E801900290CD0012906D0CD
:104F1000022906D00723184670BD0D30C2B22A55AB
:104F2000F9E74270F7E78270F5E700000A0C00200D
:104F300010B5054A0146127A0020D20702D0084671
:104F400000F054F810BD00008000002070B50E463F
:104F5000204905464E608D600020CA60A9071ED515
:104F60000024012211462046FFF7BEFF641C042CDA
:104F700002D20028F5D012E0002810D172080421D6
:104F80001548FBF7CBFD002809D1FBF7B5FD00283C
:104F900005D11048114A00211C30FBF749FFE907F1
:104FA00006D00F220E4952058A600023CB608A6129
:104FB00000280DD107480B4A00211430FBF738FFB9
:104FC000002805D10348084A01211830FBF730FFBB
:104FD00070BD000080000020589F0000D3520000E8
:104FE00000050050E16A0000490A0000FEB578495A
:104FF00006464F684B690093BB00FB180020012256
:10500000019352050546734C3300FBF7D7FA180D90
:1050100013133749596C828E858E97A1A5A5A5A536
:10502000A5C3C8CDD4DADA120B225205A260E5601E
:105030000D70FEBD05208005A060E56060680F234F
:105040005B055840800209D5A260E560022E02D1BE
:10505000E120C0000AE07D20400107E0E260A56099
:10506000022E01D1C82001E0FF2091300E70642192
:10507000FBF76CF878430022014646E005208005E6
:10508000A060E56060680F235B055840800204D58E
:10509000A260E56019204001E8E7E260A560E1E771
:1050A00005208005A060E56060680F235B0558401F
:1050B000800202D5A260E560CDE7E260A560D3E79B
:1050C00005208005A060E56060680F235B055840FF
:1050D000800202D5A260E56001E0E260A5600E708A
:1050E0007900002211E005208005A060E56060687D
:1050F0000F235B055840800202D5A260E56001E005
:10510000E260A5600E70002239460098FBF72AFF86
:10511000FEBD05239B0544E06068012189050A4620
:105120008243A2600840E06010E0616801208005D1
:1051300002468A43A2600140E160E4E76168012021
:10514000800502468A43A2600140E1600199C8E7F8
:105150000F214905E1601BE00F468869FBF744FF1A
:1051600011218A1B1C4E01D0002802D0A660E560E8
:10517000FEBD012A0BD91046C82148436421FAF725
:10518000E5FF796800224143B869FBF7EBFEE66072
:10519000A560FEBD0F225205A260E56015E0072361
:1051A0009B05A360E5600EE00D225205A260E5605C
:1051B0000122920507E00322D205A260E560921069
:1051C00001E00F225205E260A5600E70FEBD0000F6
:1051D000800000200005005000008000F0B5002194
:1051E0000B4C0C4D03273F048A00A258920056191D
:1051F000326801238B40034000D00323BA431B04D1
:1052000013433360491C0429EED30020F0BD000095
:10521000489F000000070050FFB581B00F460020F6
:1052200069460B9E087010681C461546B8421BD094
:105230000B463946019804F039FD6846007801288C
:1052400006D0002C01D000202060002005B0F0BD69
:10525000002C0BD02068002808D00A998E4203D871
:1052600029687A1AB24203D20920EFE70E20EDE74F
:10527000019A89183246FAF77FFF2868801928605A
:10528000E3E7FFB581B00A9C0D46060001D001207E
:1052900000E000206946087023466846049A039996
:1052A00004F01CFD070007D1002E10D020680499DF
:1052B000091AA94202D2092005B0F0BD03992A4675
:1052C00040183146FAF758FF2068401920603846E8
:1052D000F2E710B500780221FFF77CFD10BD000059
:1052E00070B50E4D24236C680D4E6343641C640737
:1052F000640F9B196C6059830221D9831C1D1C62A9
:1053000000249C8301241C761A71120A5A71188099
:10531000997004F01FFC002070BD0000CC0000203C
:10532000340D00200022D243830004490428CA50CF
:1053300002D308184030027170470000C8100020E6
:10534000F0B50025ED43002A02D00023042601E039
:1053500004230A260B4C04E09F00E7597F1C04D06D
:105360005B1CB342F8D32846F0BD26185DB2203648
:1053700035729E00A151002AF5D1E1184031087123
:10538000F1E70000C810002002490918282008563B
:1053900070470000C810002008B56021095C2E226B
:1053A000514309184030C27F002A08D0521ED2B2A1
:1053B0000C235A435218D2896B46521C01E04A8D85
:1053C0006B461A80898D5980808B194603F046F907
:1053D00008BD0000F8B5224801694A1C3DD02422CE
:1053E0005143826889184E681E494C6847690079A4
:1053F000E11B0D022D0AED1C002814D101201A4AD0
:1054000000045060184A403A506018494000086053
:10541000174908601749012008602F20FAF76AFE33
:105420000F4901200871B54200D23546E819000243
:105430000C49000A403108600A494968001B091BF1
:105440000902090A0002000AC91C814204D901208C
:105450000649400480390860F8BD02F0B5FEF8BD89
:1054600064010020001501404013014080E200E08B
:1054700000E100E000100140401A80B2FF2800D98E
:10548000FF207047FFB581B01168029800250A9E81
:105490001C461746814202D1092005B0F0BD0146E5
:1054A0006B46019804F002FC68460078012804D09D
:1054B000002811D00B252846EFE7002C0AD02368DE
:1054C000002B07D0002EF6D03A4602990198B0473B
:1054D0000546F0E70E20E0E7002CECD0002020602D
:1054E000E9E7F8B51E680025069C964201D109201F
:1054F000F8BD002801D0012700E000278F551E6865
:10550000761C1E60002803D0002C01D0A047054661
:105510002846F8BDF8B50D4611780646881D144694
:105520001F2801D90C20F8BD33880720062BFAD399
:105530001927FF01BB4202D9164A9342F3D1728860
:10554000062AF0D3BA4202D9124FBA42EBD1114F18
:10555000BB4203D0BA4201D09342E4D8481C052292
:1055600020706A5420781222411C21702A5420781D
:105570004119308804F02DFB21784018C0B220700A
:105580004119708804F025FB217840182070002014
:10559000F8BD0000FFFF000010B500221146FBF728
:1055A000F9FA10BDF8B5164801F040FA144D00267E
:1055B000103D144C002807D0616900291BD0012040
:1055C0006A461070684615E02878002805D06169A1
:1055D000002910D0684606700CE0687800280CD0CE
:1055E000A16800226868FBF7BDFC002803D0A16910
:1055F000002900D088472E70F8BD6168F1E70000EF
:10560000F4000020E40E002070B5094B04469E7A99
:10561000082000250E4207D00648844202D018898F
:10562000A04202D10020156070BD052070BD0000B1
:1056300078100020FFFF00000C214843064910B5F8
:10564000012240188272911E0181FF21C17207213F
:10565000FAF7ABFD10BD00007810002072B60248CA
:105660000168491C016070478801002003490868EF
:10567000401E086000D162B670470000880100201B
:10568000F0B52A49024603780A320C6989B0002B2A
:1056900006D1838826498B4202D18179022901D023
:1056A00001203CE0418821810021224D33E00C267D
:1056B0000B4673431E1877891F4EBE191FD01F4F0C
:1056C000F6190FD01C4FFF1CFE4223D19E183379D0
:1056D0002B73184BF7889B1E1F8237895F82768950
:1056E0009E8217E0134E9B1820361F793771DF8892
:1056F000223E37851F8977855B89B3850AE09E182E
:1057000033792B760B4BF7889B1E9F833789DF837A
:1057100076891E84491C037A8B42C8D800206946CA
:10572000087021686846884709B0F0BDCC000020A9
:1057300031F40000560E0020F3EDFFFF244BFFFF75
:10574000F3B50546603000782E2148432E464719B0
:105750004036F47F0C206043C1193A79601C891DE2
:1057600083B0904227D101AB0022284601F06CF9AA
:10577000002823D010E0401EA04201D1002003E009
:105780000C206043C01912300246009001AB28463D
:1057900001F05AF9002808D0049800210170B08B5C
:1057A00001A902F07DFF05B0F0BDF07F0099401C1B
:1057B000641CF077E4B23879A042DCD80498012167
:1057C00001700020EFE70000F8B500260124154D18
:1057D00023E06968F0004718387821466A698140FB
:1057E000114218D08A436A6101F04CFD3A78214693
:1057F0002B69914019400346934099420BD1797827
:10580000012901D0012100E000217B684140002BEB
:1058100001D010469847761CF6B228788642D8D335
:10582000F8BD00003C010020FEB50E46044681781C
:105830006A46234802F074FA002827D160780C21C8
:10584000204F4843C019807A400620D4022E1ED033
:10585000012E1ED01C4DA0781C214843194900235D
:10586000F83941181C226846A847002813D0022E98
:105870000CD020780C21484312490C314018807A12
:10588000124980000A58214668469047FEBD104DD7
:10589000E1E7104DDFE7022EF8D060780C21484395
:1058A000C019817ABF221140817260781C2148435F
:1058B0000449343941181C231A466846A847D8E7DA
:1058C0001C0100207810002045990000B89F0000BE
:1058D000298000008D7F000070B50546114A1248EE
:1058E00000241C2363431B189B7EFF2B04D0641CE5
:1058F000072CF6D3104670BD0A78022A09D01C2264
:1059000062431018FD22827607221030FAF734FC29
:1059100004E01C2161430818FE2181762C700022CE
:10592000E8E7000043800000800F0020F7B5052560
:105930000F4F06460024002E0AD01C206043C019D9
:10594000072231461030FAF73BFC002807D00AE066
:105950001C206043C019018B0298814203D1019839
:105960000025046002E0641C072CE4D32846FEBD39
:10597000800F00207CB5054681B26A46074802F0D8
:10598000CFF9040008D15421684602F0F3F904006D
:1059900002D1284602F09AF820467CBD1C01002066
:1059A00070B505460C46100003D000221146FBF7E7
:1059B000F1F8224629461248FBF7DEFE207811282E
:1059C00002D015281AD10DE0042229460D48FAF715
:1059D000D3FB0C4803210A38002289030069FBF736
:1059E000C1FA05E06068018805480C30FCF726F82C
:1059F000002803D000221146FBF7CCF8002070BD30
:105A0000BC0A00200A0000201FB56946087302F096
:105A100009FA002803D000221146FBF7BBF803A8BF
:105A200000F08EFA002803D000221146FBF7B2F8EE
:105A30006C460521601DFAF7B8FB684642790121E2
:105A40000A43E1200240DF200C32024068464271E6
:105A5000072282711022C2710A48009068460171C3
:105A60000522611D0848FAF787FB07486946123886
:105A700000F07AFB002803D000221146FBF78AF8D9
:105A80001FBD0000A159000014000020F3B504461A
:105A9000603000782E214843071981B0384602F063
:105AA00075FB060023D0124D686802281FD24034CF
:105AB000A18B38220F4C50430319598002990029B9
:105AC00007D0002121542E223946181DFAF754FB25
:105AD00001E0022121546868382141430919401C22
