:020000040001F9
:10800000E83D00204D690200D7AD0100DBB2010060
:108010000000000000000000000000000000000060
:10802000000000000000000000000000D3D30100A9
:1080300000000000000000008B020200AF280200D8
:1080400043540200B3650200C36602008F68020059
:10805000176A020000000000DDF20100490702007B
:108060002F6A0200316A0200336A0200356A020098
:10807000376A0200396A02003B6A02003D6A020068
:108080003F6A0200DD5B0200416A0200436A0200AF
:10809000F55B0200456A0200C75E0200476A020003
:1080A000496A02004B6A0200000000000000000064
:1080B00000000000000000000000000000000000C0
:1080C000E022520080180268914203D34368D2181C
:1080D000914202D380680028F5D1704718480168A2
:1080E00000290ED1802149028160090941600021E7
:1080F000C943C160016104214161124A1160124902
:1081000001600120704730B40300072408000830E4
:10811000204201D1002404E0082508000830281A74
:1081200004400819111B9861D96001220A4342607A
:1081300028224018426002480069D86130BC70476C
:10814000E03400206C2C00206859883CF0B587B0E2
:108150000700072408000830204201D1029106E000
:10816000082508000830281A20400818029010003E
:108170000830204205D0082110000830081A0440B9
:10818000121914000298C018039005460298201A8C
:10819000C01A01900326334302984360A54201D3DD
:1081A00001F0D2FA2079C00701D401F0CDFA01988C
:1081B000102801D201F0C8FAB869844208D1F868E1
:1081C00001994018F860BD610121014369606EE1C9
:1081D0007869844209D1B86801994018B8607D6116
:1081E000012101436960285061E160680640012E69
:1081F00000D0BBE0072188430590C00820283ED26C
:10820000A1680091E6680490B44201D101F09CFAA3
:108210000098844201D101F097FA606807218843F1
:108220000499C900884201D001F08EFA0498C00078
:108230003918009A08002830824208D010463A695E
:10824000904200D28AE0C068A04200D086E0009848
:10825000864206D138680121049A914088433860EB
:108260007EE028318E4205D03869864276D3B068E8
:10827000A04273D10098C6600098B06070E0A06919
:108280000090E668A6420CD0A0683969884225D3E0
:10829000C168A14222D1B168A1421FD1C660B060BD
:1082A0001EE0210014310E68002E07D1210010318C
:1082B0000E68002E14D001E001000E68300014306A
:1082C0000268002AF8D1300010300268002AF3D189
:1082D0003869814202D30020086001E001F034FADD
:1082E000009800283CD0E0698000381898214900A7
:1082F000401801688C4209D10660002E14D17868BC
:108300000121E26991408843786029E00098396949
:10831000884207D30069A042009801D1066103E0BA
:10832000466101E001F010FA002E19D0386986424A
:1083300014D30099B1612169002906D0814202D38A
:1083400031618E6101E001F0FFF96069002807D01A
:108350003969884202D37061866101E001F0F4F965
:10836000059824180198059940180190606801212A
:108370008843606001980143696001982850019822
:10838000C008202822D20090C0003C1828342600C3
:108390000198102801D201F0D7F93868009902003D
:1083A000CA40D10705D40121009A914001433960A8
:1083B00007E0A0683969884201D3060001E001F0B6
:1083C000C3F9A560F560AE60EC6070E00198000A4A
:1083D00001D1002225E080214902884201D31F22D9
:1083E0001FE0FF21C9434118090C082211408840B1
:1083F000314A8218120C04231A4090402F4BC318A4
:108400001B0C022423400E24611A891AC91A9840B1
:10841000C00B08184100019AC01DC240D007C00F10
:108420000A1890003818982149004118EA61002084
:10843000686128617B681C00D440E40705D40120F2
:108440009040184378600D601DE009681F2A01D133
:10845000002302E0192352089B1A019A9A4000E077
:1084600019004B680724A343019CA34210D0D30FEB
:108470009B00CC18103452002368002BF0D13869CF
:10848000844212D32560A961ED600398A8600EE0D4
:108490008A683B69994208D39A4206D3D560039B08
:1084A0008B60AA60E960A86101E001F04DF90298D3
:1084B000083007B0F0BD000000F0FFFF00C0FFFF74
:1084C000F2B586B0040091480068002801D1FFF79A
:1084D00005FE8E488168069840182F30491E884353
:1084E0000699814200D3D9E1D821490061188968F1
:1084F000002909D0D8225200A2581018824200D375
:10850000CCE1814200D2C9E101F038F9002800D164
:10851000C4E10700006800900020C043874200D1FA
:10852000BCE1D8204000205800994018D8214900CB
:10853000605061184968814200D20100D820400093
:1085400020184160A069002838D12069002801D096
:10855000874200D22761D820400020180761009888
:10856000D8214900611848610020D82149006118CC
:10857000C8616648006860620020C0432062002035
:1085800021002831C9600A0008321160D26092606F
:10859000801C10312028F5D3C248844203D1009AB0
:1085A000283A390028E0201F006807218843211855
:1085B000083900983818421A283A1DE0E020400097
:1085C000201800E0806800281AD0016842688918E5
:1085D0008F42F7D1017B090712D4A1690268914249
:1085E0000ED34368D21891420AD2009959184160BB
:1085F000E06800994218A1692000FFF784FD3AE184
:108600002069874200D22761E020400020180099AD
:10861000791800E08068002810D002688A42F9D1F9
:10862000017B09070AD407604168009BC9184160B3
:10863000069B39002000FFF789FD30E1A069029018
:10864000054629002000FFF73BFD01684068081837
:10865000059001462F3908000830400701D100205D
:1086600005E0082208000830101A4007400F0918DA
:1086700028001030814201D2019500E0019101985B
:1086800008300490019E1836002003900099283984
:1086900038000830400701D1002205E008223800E8
:1086A0000830101A4207520FB818891AA061E16009
:1086B00001220A43426028224018426013480069A0
:1086C000E0610498400701D001F03EF81B200199B9
:1086D00048600498E02149006118102201F078F800
:1086E000D8204000201807610098D821490061185F
:1086F00048610020D82149006118C8610498D82138
:10870000490061188861059803E000BFE03400204B
:108710000E00311D07227260039A521C03920A1D3B
:108720008242F5D30398022801DA01F00DF801988E
:10873000A84200D19FE0401B29184A6801239A43B0
:108740004A60012202436A600860C108202921D2E0
:108750000091C900661828363700102801D200F0B1
:10876000F3FF206800990200CA40D10705D4012117
:10877000009A91400143216007E0B0682169884276
:1087800001D3070001E000F0DFFFB560FD60AF60DE
:10879000EE6070E0010A01D1002226E01A04914245
:1087A00001D31F2221E0FF22D2438A18120C082392
:1087B0001A40009291403C4A8A18120C04231A4035
:1087C00091403A4BCB181B0C022633400E26009FDB
:1087D000F61BB21AD21A9940C90B51184A00C91D8A
:1087E0000300CB40D907C90F521891006118982394
:1087F0005B00C918EA6100236B612B6163681E008E
:10880000D640F60705D401209040184360600D6003
:108810001CE009681F2A01D1002302E01923520835
:108820009B1A02009A4000E019004B680726B343E8
:10883000834210D0D30F9B00CE18103652003368FD
:10884000002BF1D12069864213D33560A961ED6018
:108850000298A8600FE088682269914209D390428B
:1088600007D3C560029A8A60A860E9600020A86109
:1088700001E000F069FFE068069981420ED2411ADA
:10888000E160A069069A8218A26101230B4353603C
:10889000069903220A434260083000E0002007B036
:1088A000F0BD0000B02A002000F0FFFF00C0FFFF75
:1088B000F2B584B007000020009004984442000AFA
:1088C00025D080214902884201D31F201FE0FF21CB
:1088D000C9434118090C082211408840B64A821841
:1088E000120C04231A4090400E4BC3181B0C022597
:1088F0002B400E25691A891AC91A9840C00B08180E
:108900004100049AC01DC240D007C00F0818810062
:108910007918982252008A58002A29D01F2803D19A
:10892000002304E000C0FFFF19214308CB1A04997B
:108930009940002300E0490055680726B543049E8E
:10894000AD1BA54202D200922C000CD05569CE0F6F
:10895000B60092191269002D02D0954200D02B006A
:10896000002AE8D11A00002A3FD1009900293ED1FF
:108970000121012282405000434203437A681A4099
:1089800000D17FE150421040401E020B10231A40DC
:10899000D040430908252B400293D8408308042582
:1089A0002B40D8404508022635400195E84045084F
:1089B0002940029D5219D218019BD2185218C84062
:1089C0001018800038189821490042580DE0020024
:1089D0005068072188430499401AA04201D204003C
:1089E000009210690028F2D15269002AF0D1009853
:1089F000002800D146E1B8680499401A844200D3A7
:108A000040E1009E3869864200D239E17018039037
:108A10000546049820180290009840680721884372
:108A20000299884201D000F08FFEAE4200D327E1C8
:108A30000098806901900098C66886420ED0009820
:108A400080683969884226D3C168009A914222D150
:108A5000B16891421FD1C660B0601EE00099143128
:108A60000E68002E07D1009910310E68002E14D028
:108A700001E001000E68300014300268002AF8D1CD
:108A8000300010300268002AF3D13869814202D3E5
:108A90000020086001E000F057FE0198002843D054
:108AA0000098C06980003818982149004018009942
:108AB000026891420AD10660002E16D17868012121
:108AC000009AD2699140884378602DE00198396915
:108AD000884208D3006900998842019801D1066153
:108AE00003E0466101E000F02FFE002E1CD0386943
:108AF000864217D30198B06100980069002807D01A
:108B00003969884202D33061866101E000F01CFEC1
:108B100000984069002807D03969884202D3706103
:108B2000866101E000F010FE03200121102C0AD222
:108B3000029A1043009A50600098029A8018426886
:108B40001143416099E0049A1043009A506001205B
:108B5000204368602C51E008202819D2C200BC18BC
:108B6000283426003A681300C3400B4003D18140EB
:108B70001143396007E0A0683969884201D30600D3
:108B800001E000F0E1FDA560F560AE60EC6074E02E
:108B9000200A01D100222BE00A04904201D31F22B7
:108BA00026E0FF22D2438218120C08231A400192B9
:108BB0009040014A02E000BF00F0FFFF8218120C53
:108BC00004231A409040314BC3181B0C022633403B
:108BD00002930E23019E9B1B9A1A029BD21A984065
:108BE000C00B10184200C01D2300C3400B40D21818
:108BF0009000381898235B00C018EA6100236B616D
:108C00002B617B681E00D6400E4004D19140194371
:108C1000796005601CE000681F2A01D1002202E093
:108C2000192152088A1A2100914000E01000426880
:108C300007239A43A24210D0CA0F92008318103320
:108C400049001A68002AF1D139698B4213D31D609B
:108C5000A861ED600398A8600FE081683A699042CE
:108C600009D3914207D3CD60039A8260A960E8607E
:108C70000020A86101E000F067FD0098083002E0E4
:108C800000F062FD002005B0F0BD000000C0FFFF55
:108C9000F2B586B00400616848420840401E010BEE
:108CA00010221140C840420908231A40D0408308CE
:108CB00004252B40D840450802263540E840860769
:108CC000F60F8918C91849198919F0400818800049
:108CD0002018982149004058050041680722914317
:108CE000069A8F1A09E00800416807229143069A04
:108CF000891AB94201D20F00050001690029F2D199
:108D000040690028F0D12069854200D2D2E0A8183D
:108D100003900698381801906868072188430199E4
:108D2000884201D000F010FD0398854200D3C1E0D5
:108D3000A8690090EE68AE420CD0A868216988420C
:108D400025D3C168A94222D1B168A9421FD1C6600A
:108D5000B0601EE0290014310E68002E07D12900F2
:108D600010310E68002E14D001E001000E683000B2
:108D700014300268002AF8D1300010300268002A4E
:108D8000F3D12069814202D30020086001E000F0A5
:108D9000DBFC009800283DD0E8698000201898216D
:108DA0004900401801688D4209D10660002E14D197
:108DB00060680121EA699140884360602AE0009878
:108DC0002169884207D30069A842009801D1066151
:108DD00003E0466101E000F0B7FC002E1AD02069E4
:108DE000864215D30098B0612869002807D0216910
:108DF000884202D33061866101E000F0A5FC686919
:108E0000002807D02169884202D37061866101E0A1
:108E100000F09AFC0320102F09D2019908436860E2
:108E200001982818416801220A4342603FE00699F0
:108E30000843686001203843039948600398C7518C
:108E4000A0680090C608202E01D300F07DFC009899
:108E5000002829D0606902900196F0002618283673
:108E600004960098102801D200F06EFC2068019949
:108E70000200CA40D10705D40121019A9140014363
:108E8000216007E0B0682169884201D3049001E0C5
:108E900000F05AFC0298B06002980499C8600498E7
:108EA000029988600298C660A760039860610835DF
:108EB000280002E000F048FC002007B0F0BDF0B54B
:108EC00087B00400C046C046BB4DF52C00D328E156
:108ED0000B2C01D2102402E00B3407208443E0085D
:108EE000019028680199C8400327384250D00126D4
:108EF0000122824388180190C0002C182834A068F1
:108F000000900198C00003900098406807218843B2
:108F10000399884201D000F017FC00988068029005
:108F20000098A04201D100F00FFC009802998842FD
:108F300001D100F009FC009840680721884303999B
:108F4000884201D000F000FC0298844206D12968D2
:108F5000019A01209040814329600DE029698842EF
:108F600008D3C0680099884204D10298A060029892
:108F7000C46001E000F0E8FB0398074300984760F5
:108F800000980399401841680E434660009E06E130
:108F9000A968A14200D3D7E0002800D1B7E001269C
:108FA000019901228A405100019A90404A420A43A5
:108FB000024051421140491E080B10221040C1408E
:108FC0004A0908231A400092D1408A0804231A4013
:108FD0000192D1404A0802231A400292D1404A0825
:108FE0003240009BC018019BC018029BC01880181B
:108FF000D14040180390C0002818283000908068A5
:1090000004900398C00002900498406807218843A8
:109010000299884201D000F097FB04988068019083
:1090200004980099884201D100F08EFB04980199C0
:10903000884201D100F088FB0498406807218843EA
:109040000299884201D000F07FFB00980199884284
:1090500006D12968039A012090408143296010E0DD
:109060000846296988420AD3C0680499884206D113
:1090700001980099886000980199C86001E000F0AB
:1090800063FB0298001B03902743049847600498F1
:109090000019059003983043059948600398059995
:1090A0000850A8680190C408202C01D300F04CFBA4
:1090B0000198002825D0686902900094E0002C18DF
:1090C000283427000198102801D200F03DFB2868C1
:1090D00000990200CA40324003D18E4006432E6000
:1090E00007E0A0682969884201D3070001E000F089
:1090F0002BFB0298A0600298F860029887600298A3
:10910000C4600398A86005986861049E47E0686899
:10911000002836D021002800FFF7BAFD060013D042
:1091200044E03F20C043844202D30024E4430BE0E8
:109130000B34072084436868002805D021002800EC
:10914000FFF7B6FB060031D1A968A14219D30A1B6B
:10915000686901260327102A08D301196961AA60EA
:1091600016434E608A502743476008E00022AA60F9
:109170006A610F43476041184A6816434E60060013
:109180000DE0E86884420CD2001BE860AE6931193A
:10919000A961012202434A6003202043706008361F
:1091A00004E021002800FFF78BF90600C046C04606
:1091B000300007B0F0BD0000B02A0020002800D128
:1091C0007047F0B585B008380500C046C046474C2A
:1091D00021698D4200D2ADE2686803220323034077
:1091E000012B00D1A6E2C308DB000293EB18009329
:1091F0000126304240D12B68104000D19CE20298F9
:10920000C0180290ED1A8D4200D293E26069854247
:1092100000D1F0E0D808202800D37CE0A9680191B3
:10922000EF680390BD4201D100F08EFA01988542AB
:1092300001D100F089FA6868072188430399C900C1
:10924000884201D000F080FA0398C0002118019AEA
:1092500008002830824206D010462269904257D337
:10926000C068A84254D10198874243D12168039A2B
:1092700001209040814321600098854200D359E24B
:109280004068304200D155E2810700D5A6E100993F
:10929000A269914200D0C0E0E06802994118E16003
:1092A000A5610E436E606069854202D10020606155
:1092B000A060E069884200D33EE20D4800680028C3
:1092C00001D1FEF70BFFA169002900D134E2E0686B
:1092D000292802D32000FEF7F3FEE069E168884206
:1092E00000D329E20020C043E06125E2B02A00203B
:1092F000E034002028318F4205D02069874207D30F
:10930000B868A84204D10198C7600198B860B3E773
:1093100000F01AFAB0E7A8690190EF68AF420BD0ED
:10932000A868884224D3C168A94221D1B968A9425A
:109330001ED1C760B8601DE02A0014321768002FE4
:1093400007D12A0010321768002F13D001E0020065
:109350001768380014300368002BF8D1380010303B
:109360000368002BF3D18A4202D30020106001E091
:1093700000F0EAF90198002800D17DE7E869800053
:10938000201898214900401801688D4209D10760D2
:10939000002F14D16168EA69012090408143616027
:1093A0006AE701982169884207D30069A8420198B9
:1093B00001D1076103E0476101E000F0C5F9002F2A
:1093C00000D159E720698742A2D30199B96129697F
:1093D000002906D0814202D339618F6101E000F09B
:1093E000B3F96869002800D146E7216988428FD324
:1093F0007861876140E7009840680240032A00D006
:109400003AE70298A06000984068B043009948602D
:10941000029806436E60029809E06269914208D1A1
:10942000A06802994018A060656106436E602850EC
:1094300082E107218843029909180291C008202877
:1094400046D20099896803910099CF6801900098ED
:10945000B84201D100F078F900980399884201D10F
:1094600000F072F900984068072188430199C9000B
:10947000884201D000F068F90198C0002118039AD1
:1094800008002830824209D010462269904200D25A
:1094900097E0C068009A904200D092E0039887421B
:1094A00006D12168019A01209040814321608AE021
:1094B00028318F4207D02069874200D281E0B86806
:1094C000009988427DD10398C7600398B8607AE01C
:1094D0000098806901900098C76887420ED0009874
:1094E00080682169884226D3C168009A914222D1BE
:1094F000B96891421FD1C760B8601EE0009914316D
:109500000F68002F07D1009910310F68002F14D079
:1095100001E001000F68380014300268002AF8D119
:10952000380010300268002AF3D12069814202D34A
:109530000020086001E000F007F90198002842D0FF
:109540000098C069800020189821490040180099AF
:10955000026891420AD10760002F16D16168009815
:10956000C26901209040814361602CE0019821692B
:10957000884208D3006900998842019801D10761A7
:1095800003E0476101E000F0DFF8002F1BD0206905
:10959000874216D30199B96100990969002906D05B
:1095A000814202D339618F6101E000F0CDF800986B
:1095B0004069002807D02169884202D37861876119
:1095C00001E000F0C1F8029830436860029828502A
:1095D000606985420AD10298A060ADE0B04300996D
:1095E0004860029830436860029828500298C0088A
:1095F000202822D20090C00027182837019702980F
:10960000102801D200F0A0F8206800990200CA409A
:10961000324003D18E400643266007E0B8682169D6
:10962000884201D3019001E000F08EF8BD600198FE
:10963000C5600198A860EF607EE00298000A01D141
:10964000002225E03104884201D31F2220E0FF21BF
:10965000C9434118090C082211400091884038493B
:109660004118090C042211408840364A8218120C15
:1096700002231A400E23009FDB1B591A891A9040BF
:10968000C00B08184100029AC01DC24032408A181F
:1096900090002018982149004118EA610020686173
:1096A000286163681F00D740374004D196401E43AD
:1096B00066600D601DE009681F2A01D1002302E0E9
:1096C000192352089B1A029A9A4000E019004B682D
:1096D0000726B343029EB3420FD0D30F9B00CE1890
:1096E000103652003368002BF0D12069864210D327
:1096F0003560A961ED60AD600DE08A68236999422B
:1097000007D39A4205D3D5608D60AA60E960A8614D
:1097100001E000F019F8206A401E20620CD1E4201C
:109720004000205800E080680028FCD10020C043A1
:10973000206201E000F008F8C046C04605B0F0BD68
:1097400000F0FFFF00C0FFFF80B5012000F05AF8D5
:1097500001BD30B4012100220368001D002B0BD095
:109760000468001D0C4202D04D466D1E6419226033
:10977000241D1B1FF0D0FAE730BC7047074908686A
:10978000002801D000207047054807229043086058
:1097900004499143091A0160704700BFDC3500207D
:1097A000EF3D0020E83D0020124207D08B0706D095
:1097B0000B78491C0370401C521EF7D87047830772
:1097C00006D00B78491C0370401C521EF9D170471B
:1097D00070B4103A03D378C9103A78C0FBD253075B
:1097E00001D318C918C001D508C908C0D20704D3CD
:1097F0000B880380891C801C002A01D50B7803701C
:1098000070BC70472021090326311820ABBEF9E750
:10981000F1B5A4B00E0014001D004A487844FF3092
:10982000253003C822AA03C2049600200D9001E04F
:109830000198241800206946488022AB0022D243B8
:10984000210000A8801C01F044F90190012805DAEC
:109850002078411E8941C943C90F0191684640885B
:109860002528019E00D1761E012E0EDB27003978B7
:109870000498249A90470490002800D1F4E20D98AF
:10988000401C0D907F1C761EF1D16846408825282B
:1098900007D100200790089009900A900B900C9037
:1098A00008E0684640880028C2D10D98DEE2010039
:1098B00001200843641C21782029F8D023290ED0E8
:1098C0002B2904D02D2907D030290BD00DE0010021
:1098D0000220084380B2EDE701000420F9E701000F
:1098E0000820F6E701001020F3E72A290FD12968A4
:1098F00029600A68091D29600F92002A05D5514286
:109900000F9101000420084380B2641C12E0002182
:109910000F910AE00F9A7B4B9A4205D093009A1858
:109920005200511830390F91641C21780A00303AE6
:109930000A2AEFD321782E2906D00021C9430E919F
:1099400021E000BF34D00000641C21782A2907D10F
:10995000296829600A68091D29600E92641C12E0BA
:1099600000210E910AE00E9A664B9A4205D09300B0
:109970009A185200511830390E91641C21780A004F
:10998000303A0A2AEFD302A9088726783100044822
:1099900078440C3001F0ABF8002803D0641C02E0DE
:1099A000E0CF0000002602A83A30067002A83A3044
:1099B0000078682804D12178682901D1622005E067
:1099C0006C2807D120786C2804D1712002A93A3183
:1099D0000870641C12A806902678641C3000253894
:1099E0002AD01C3800D1D6E0001F022800D8D2E0CF
:1099F000133800D1F6E0093800D1CCE0801E00D148
:109A00005EE1401E00D132E1401E022800D8C2E0D3
:109A1000001F00D12BE1401F00D18DE0401E00D17E
:109A2000E0E0401E2FD0C01E0BD0801E00D1D9E038
:109A3000C01E00D1D6E066E101200790252012A9C2
:109A40009FE002A83A3000786C282868286016D079
:109A50000668001D286005960E9F002F03D5300074
:109A600001F04FF809E03A000021300001F051F810
:109A7000002801D0801B00E0380008904FE1026808
:109A8000001D286038E1286828600268001D2860F1
:109A90000020C0430021104002AA03C212A8059072
:109AA000069B3C2602A803C8002904D1002802D145
:109AB0000E9A002A14D0761E01960207120F303239
:109AC000D2B23A2A00DB27329A5500090A0710431E
:109AD000090901D1002803D0059A9F19BA42EAD397
:109AE0003C20801B0890991905910E9988420DDA47
:109AF000081A0A9002A8008F0349014002A80187B2
:109B00000DE100BFFFFFFF7FEFFF0000002900D441
:109B100005E102A93831097814220A40102A00D040
:109B2000FDE00F99079A891A0A9A891A0E1A012ECE
:109B300000DAF4E00A96F2E002A83A3000786228EF
:109B400019D0682806D06A280CD06C281BD0712840
:109B500008D018E0286828600168001D28600D986A
:109B60000880DCE0286828600268001D28600D98E5
:109B7000C11703C2D3E0286828600168001D28606F
:109B80000D980870CBE0286828600168001D2860E7
:109B90000D980860C3E02A68D21D072082432A601E
:109BA00003CA2A6002AA03C2002903D50120079034
:109BB0002D200CE002A8008F810703D5012007901B
:109BC0002B2004E0C00704D501200790202012A913
:109BD000087012A8079940180590310002A800F0FB
:109BE000AFFB9CE002A83A3002786C2A0BD0712AB5
:109BF00001D06A2A07D12B68DB1D072083432B6025
:109C000003CB2B6005E0296829600868091D2960DD
:109C1000002102AB03C3682A03D102A803C880B2A3
:109C20000BE0622A03D102A803C8C0B205E0742A7F
:109C300001D07A2A04D102A803C8002102AA03C2D3
:109C400002A838300078000731D502A803C80029DF
:109C500001D100282BD020203043782827D1302074
:109C600012A908700220079012A846701FE0290070
:109C700002A83A30007800F0FBF802AA03C202A85A
:109C8000002904DA0798411C07912D210DE0008F6F
:109C9000810704D50798411C07912B2105E0C007D7
:109CA00005D50798411C0791202112AA115412A82A
:109CB000079940180590310002A800F0A7FA2EE09D
:109CC00002A83A3000786C2809D001200790286853
:109CD00028600168001D286012A801701FE0286834
:109CE00028600168001D286068468180002001A965
:109CF0004880C0430E9001AA02A9249800F0ECF815
:109D000000280CD5B0E001200790252012A908708A
:109D1000002E04D00798411C079112A90E540F98E9
:109D20000799401A0A99401A0899401A0B99401A43
:109D30000999401A0C99401A019002A8383000780D
:109D4000400711D4202069460870002609E001234D
:109D50006A4602A9249800F0A4FE002800D083E0FF
:109D6000761C01988642F2DB079F12AE0BE0317839
:109D70000498249A90470490002875D00D98401CB0
:109D80000D90761C7F1E002FF1D13020694608709F
:109D90000A9F002608E001236A4602A9249800F0E1
:109DA00080FE002860D1761CBE42F4DB089F059E31
:109DB0000BE031780498249A90470490002853D0FF
:109DC0000D98401C0D90761C7F1E002FF1D1302085
:109DD000694608700B9F002608E001236A4602A925
:109DE000249800F05EFE00283ED1761CBE42F4DBD3
:109DF000099F0598089946180BE031780498249A31
:109E00009047049000282FD00D98401C0D90761C90
:109E10007F1E002FF1D13020694608700C9F00266C
:109E200008E001236A4602A9249800F03AFE0028BF
:109E30001AD1761CBE42F4DB02A838300078400705
:109E400000D4F7E4202069460870002600E0761C64
:109E50000198864200DBEDE401236A4602A92498BA
:109E600000F01FFE0028F2D00020C04325B0F0BD56
:109E70000A00622822D0682819D06A2808D06C28E5
:109E800023D0712804D074281FD07A2808D01CE071
:109E90001368DB1D07208343136003CB13607047F7
:109EA000116811600868091D116000217047116870
:109EB00011600868091D116000B20BE011681160A3
:109EC0000868091D116040B204E01168116008685B
:109ED000091D1160C1177047F4B598B007000C0058
:109EE000206B002800D50E48029000F01EFE616B2A
:109EF0000818049009487844223003C806AA03C20F
:109F00003820205C400702D4049841280AD208A8CF
:109F1000039040200490002613E000BF6CCA0000AC
:109F2000FFFFFF7FFEF7CBFF03900028F3D1002057
:109F3000C04369E11898801C189002980099401A53
:109F400002900298012800DAD1E006AA1898018848
:109F500001A8401C00F0EEFD0090002800D5DAE0DA
:109F600018980088002804D10098401E009000D561
:109F7000D1E002980099884200DAB8E0606904995B
:109F8000009A8218914200D3A0E066634142206AA1
:109F9000081AA169401A616A401AE169401AA16A67
:109FA000401A05903820205C400711D420206946D3
:109FB0000871002509E0012301AA2100380000F002
:109FC00070FD002800D0A6E06D1C05988542F2DBEC
:109FD0006669039D0BE02978A068B847A060002857
:109FE00000D198E0E06A401CE0626D1C761E002EF5
:109FF000F1D1302069460871266A002509E0012365
:10A0000001AA2100380000F04CFD002800D082E0B9
:10A010006D1CB542F3DBA669E5680AE02978A06803
:10A02000B847A060002876D0E06A401CE0626D1C52
:10A03000761E002EF2D1302069460871666A00252E
:10A0400008E0012301AA2100380000F02AFD0028C1
:10A0500061D16D1CB542F4DBE669E068A169451881
:10A060000AE02978A068B847A060002853D0E06AC9
:10A07000401CE0626D1C761E002EF2D13020694635
:10A080000871A66A002508E0012301AA2100380012
:10A0900000F007FD00283ED16D1CB542F4DB3820EE
:10A0A000205C400710D5202069460871002508E093
:10A0B000012301AA2100380000F0F3FC00282AD176
:10A0C0006D1C05988542F3DB00266661009A01A9A4
:10A0D000491C03986369C018FFF766FB6069009923
:10A0E0004018606118980088002800D022E7606B53
:10A0F0006169401A216A401AA169401A616A401ACE
:10A10000E169401AA16A401A02903820205C400799
:10A1100011D400250CE00026F6436EE02021A06853
:10A12000B847A0600028F6D0E06A401CE0626D1CD1
:10A1300002988542F2DB6369039A2100380000F03F
:10A14000B0FC0028E7D1206A0090002509E030210A
:10A15000A068B847A0600028DDD0E06A401CE0623B
:10A160006D1C00988542F2DBA369E268210038008B
:10A1700000F097FC0028CED1606A0090002509E02D
:10A180003021A068B847A0600028C4D0E06A401C15
:10A19000E0626D1C00988542F2DBE369E068A1692A
:10A1A00042182100380000F07CFC0028B3D1A06ADE
:10A1B0000090002509E03021A068B847A060002881
:10A1C000A9D0E06A401CE0626D1C00988542F2DB79
:10A1D0003820205C40070ED5002509E02021A0682A
:10A1E000B847A060002896D0E06A401CE0626D1C71
:10A1F00002988542F2DB66616663039808A988428B
:10A2000001D0FEF7DBFF300019B0F0BDF3B583B02D
:10A21000006900906846027C6F2A01D1082406E09C
:10A2200020211143782901D00A2400E010243C2584
:10A23000039803C806000F00642A01D0692A07D1D9
:10A24000002905DA00200021801BB94106000F001B
:10A25000002F12D1002E10D10398006B00280CD1D2
:10A26000082C3CD1039838300078000737D53B25BF
:10A27000302000993B31087031E06D1E01953000AF
:10A2800039002200E31700F061FC3032D2B23A2AE2
:10A2900003DB6846007C51381218009842553000A4
:10A2A00039002200E31700F051FC06000F0001D135
:10A2B000002E05D00398C068009949198842DCD364
:10A2C000082C0CD1039838300078000707D5009887
:10A2D000405D302803D06D1E3020009948553C2049
:10A2E000401B0399886100994919039AD160039929
:10A2F000096B884209DA081A039908620398008FEB
:10A300000E4901400398018715E0002913D50399F0
:10A310003831097814220A40102A0CD10399496B6C
:10A32000039A5269891A039A126A891A0D1A012D21
:10A3300001DB0398056205B0F0BD0000EFFF0000EF
:10A34000F3B591B006AD03C802AA03C212A8007803
:10A3500020210143009161290BD01198006B002846
:10A3600001D5062003E004D1672902D1012011990B
:10A370000863119841684800400DAA4A904225D1CF
:10A38000080310D11198006800280CD103201199FE
:10A39000886112A8007861381A2842D3234878448B
:10A3A0008A3000900BE003201199886112A8007890
:10A3B00061381A2831D31E48784474300090032243
:10A3C00000991198C068FFF7EFF9F1E1012817DA59
:10A3D000119800F0F0FB012812DB002700260098FE
:10A3E000612832D11198C06830210170401C411C95
:10A3F000119AD16012A9097861291FD178211EE034
:10A4000011994968884A0A4088491143119A516054
:10A410008749461A0027FF43E1E70648784414308D
:10A42000CCE7054878441030BBE700BF70C500009A
:10A4300064C500005CC5000060C5000058210170C3
:10A4400011984069801C11994861002F03D10024A4
:10A4500068468780A2E10098612800D09FE01198AB
:10A46000046B002C01D5212400E0641C24B2601C84
:10A470000090119803C804AA03C202A803C80022CE
:10A48000002300F0BAFB04A803C802D280221206FF
:10A49000514002AA03C2301F6946888000270F7608
:10A4A00006AE761C00E0F61D0098012830DB02A8FD
:10A4B00003C80022002300F0B9FB29D21C2102A806
:10A4C00000F0D2FB02A803C800F05CFC0500009875
:10A4D000C01F009001280ADB280000F07DFC02006C
:10A4E0000B0002A803C800F0EEFC02AA03C2F61D8E
:10A4F000072004E0761E2907090F31702D11012D68
:10A5000001DB401EF6D5401ECDD4761E3770FAE72B
:10A5100006A8401C311A06AD6D1CA14200DA0C00E1
:10A5200024B2200032D4884205DA06A909184978F5
:10A53000082900DB0F2706A9091801E0641E491E3F
:10A54000401E0A78BA42F9D00F2F04D106A9091883
:10A550004A78521C4A70002806D506AD641C019842
:10A5600000B2001D6946888024B2601E0ED42918EE
:10A570000A783032D2B23A2A03DB12AB1B783A3B6C
:10A58000D2180A70401E491E0028F1D51198006BA0
:10A59000002800D402E1601E11990863FEE002A8C1
:10A5A00003C80022002300F028FB06D202A803C83B
:10A5B00080221206514002AA03C236B27D4870437F
:10A5C0007D4900F00DFD694688800720019909B298
:10A5D000421A00207949012A20DB049202AA30CADB
:10A5E00000260F000498C00707D532003B0020006A
:10A5F000290000F04FFD04000D0004984010049065
:10A600003000390032003B0000F044FD06000F002E
:10A6100004980028E6D102A830C028E05442002661
:10A62000674F18E0FF070000FFFF0F800000E03FCA
:10A63000FE030000E00707D504A803C832003B0072
:10A6400000F028FD06000F00641004A803C804AA47
:10A650000CCA00F01FFD04AA03C2002CEAD102A814
:10A6600003C832003B0000F0D7FD02AA03C20098E5
:10A67000662803D1019800B20A3000E00620119943
:10A68000096B08180490142801DB13200490302073
:10A690006946087606AC641C049801283ADB02A8D7
:10A6A00003C800F081FB05000834042628000A21B5
:10A6B00000F099FC0F0028000A2100F094FC05002E
:10A6C000641E303727700A2100F08DFC0F0028002F
:10A6D0000A2100F088FC0500641E30372770761EC2
:10A6E000E4D108340498083804900128D4DB02A887
:10A6F00003C800F059FB00F079FB02000B0002A830
:10A7000003C800F0E0FB00222E4B00F0C3FC02AABD
:10A7100003C2C4E706A8401C201A06AD6D1C6A4699
:10A7200005E0401E019909B2491E91806D1C2978EF
:10A730003029F6D00099662903D1019909B2491C44
:10A7400004E0652901D1012100E00021119A126B7A
:10A75000541824B2A04200DA040024B221001DD40F
:10A76000814204DA685C352801DB392000E03020C2
:10A770006A1800E0641E521E491E13788342F9D005
:10A78000392802D1685C401C6854002906D56D1E2A
:10A79000641C019800B2401C69468880019800B290
:10A7A000009023B22A0012A80178119800F00CF84A
:10A7B00013B0F0BD97750000A08601000000244092
:10A7C0000000F03F84D79741F3B589B015001C0015
:10A7D00000F09DFD0190406A007869460872099872
:10A7E000076B012C01DA0124ADA50AA8017820200D
:10A7F0000843109E662801D1761C18E0672800D017
:10A800009FE036B20321C9438E4200DA9DE0BE428A
:10A8100000DB9AE0761C099838300078000702D4F3
:10A82000BC4200DA270036B2BF1B00D500270998CA
:10A83000C06800900998806900990918019136B2A2
:10A84000012E2CDA401C3021019A1170012F04DAFC
:10A85000099938310978090704D56946097A009AB7
:10A860001154401C099988617042874200DA7E4287
:10A8700036B2704209994862BF19A74200DA3C001B
:10A8800024B20998C461220029000098099B9B69A1
:10A89000C018FEF789FF381B09998862E1E0B442CD
:10A8A00020DA220029000198FEF77EFF09998969C4
:10A8B0000919099A9161301B099A5062012F04DA33
:10A8C000099838300078000709D56846007A099A57
:10A8D000D26850540998C069401C0999C861099808
:10A8E0008762BEE0320029000198FEF75DFF0998FB
:10A8F00080698019A41B012F04DA0999383109787D
:10A90000090705D56946097A099AD2681154401C8D
:10A910000999886124B2A74200DA3C0024B22200DF
:10A92000A9190998C068099B9B69C018FEF73CFFEC
:10A9300009988069001909998861381B099948624A
:10A940008FE0612914D1702015E0BC4205DA099925
:10A9500038310978090700D427007F1E00D5002769
:10A960000AA80078672801D1652004E0452002E0AC
:10A97000412902D150200AA9087009988169481C10
:10A98000099AD26800922A78009B5A54691C012FB8
:10A9900007DA099A38321278120702D409998861C5
:10A9A0001BE06A46127A009B1A54401C099A906177
:10A9B000012F12DB641E24B2A74200DA3C0024B24D
:10A9C0002200009B1818FEF7EFFE09988069001915
:10A9D00009998861381B099948620998C0680999E2
:10A9E000896945180AA8007828706D1C36B23000B5
:10A9F00003D42B2028706D1C03E02D2129706D1CC1
:10AA00004642002405AF08E00A2203A800F09AFCA1
:10AA100004983870039E641C7F1C31B20129F3DA5C
:10AA2000022C08DA0AA8007820210143652902D106
:10AA3000302028706D1C002C09D1302028706D1C2E
:10AA400007E0641E05A8005D303028706D1C012CE5
:10AA5000F7DA0998C068099989694018281A09998C
:10AA6000C86109983830007814210140102914D1A8
:10AA7000099840690999896940180999496A4018F3
:10AA80000999C96940180999896A40180999496B57
:10AA9000884202DA081A099908620BB0F0BD00007A
:10AAA000300079B50E0014001D00002005E0F06AAA
:10AAB000401CF0620020641C6D1E002D08D021781F
:10AAC000B068009A9047B0600028F0D10020C043E1
:10AAD00076BDF8B504000F0015001E0000F042FC22
:10AAE00033002A003900200000F050FCF2BDC9B24A
:10AAF00000E0401C02788A4202D0002AF9D10020EE
:10AB00007047010000E0491C0A78002AFBD1081AAE
:10AB10007047C9B201E0401C521E002A03D00378DE
:10AB20008B42F8D170470020704780B500F01AFCC6
:10AB3000012002BD70B504000D00160000F012FCEB
:10AB400032002900200000F017FC70BD124224D012
:10AB5000994228D970B500251B4202D00C00002173
:10AB600009E00024012649186441944200D3A41A44
:10AB70007641F8D33100012601E0764109D2001870
:10AB800064416D41A41A9D41F7D2A4185D41B619E4
:10AB9000F5D3300022002B0070BD1B42D8D108B580
:10ABA000C046C04608BD01D19042D3D202000B007E
:10ABB00000210020704730B401004B68802212064B
:10ABC0001A4001201B031B0B4B600BD10B68002BA1
:10ABD00008D10DE00B686400DD0F25434D605B007C
:10ABE0000B60401E4C68E302F4D523031B0B4B6043
:10ABF0004B681A434A6030BC704730B40124640586
:10AC00004D00EC420BD85D00EC4208D80C001C4310
:10AC100064000443144304D2994200D1904230BCF2
:10AC20007047FCD08B42FAD18242F8E730B401245D
:10AC300064054D00EC420BD85D00EC4208D80C00D6
:10AC40001C4364000443144304D28B4200D182426B
:10AC500030BC7047FCD09942FAD19042F8E70268C4
:10AC6000531C03601170704770B504000D006068DC
:10AC70004000400D3F4EB04207D16068000302D152
:10AC80002068002816D0022070BD002804D12000C2
:10AC9000FFF791FF01286BDA012D0DDB311A8D4290
:10ACA0000AD36068002802D50020334901E0002063
:10ACB000310503C4012070BD4142A942616806DA32
:10ACC0002E4A0A40281800051043606047E08022A1
:10ACD0001206114062681203120B80235B031343B8
:10ACE0006360401E2D1800202A003532352A02D319
:10ACF0006160206070BD00221E23DB439D4204DAA8
:10AD000020352268636823606060684211D0521E5B
:10AD10009241D243D20F20231B1A25689D402A431B
:10AD20002568C54066689E402E4326606368C34020
:10AD300063606068084360601148824206D28020E8
:10AD4000000682420ED12078C0070BD52068401C37
:10AD500020602068002805D16068401C60600020E9
:10AD6000C04370BD60688842F9D120680028F6D1E0
:10AD7000002070BDFF0700000000F0FFFFFF0F8004
:10AD800001000080F4464A1805D200F00FF801D502
:10AD900080174008604700F009F80121C907884280
:10ADA00000D90800404260474A1812D2400DC9023B
:10ADB00008430121C9070843520D40210901521AD5
:10ADC000521C06D452421F3201D4D0407047C017E3
:10ADD000704700207047FEE7010009D5F446404265
:10ADE00000F006F80122D20711436047010000BFBE
:10ADF00042221201D21E004207D002D4521E001875
:10AE0000FCD5C10A40051205891870478B4200D154
:10AE1000824205D98446100062468C46190063467A
:10AE2000DF184C18640D7F0D3AD0661C760537D0BC
:10AE3000E61B352E34DCDB022B43DB0A0C0DC9028A
:10AE40002943C912202E0DDB1700203E06D01F001B
:10AE5000F741F3405F400026012A7741C018714155
:10AE60000DD217E01700F741F2405740F3415A4026
:10AE7000B340F3405A400026801859410AD3A21C1F
:10AE800052050FD0C207012F724117004008CB07AF
:10AE900018434908641C24054208AF4170416141D0
:10AEA000F0BC7047641C21050020F9E76B4010E0FE
:10AEB0006B40ABE7F742F3D1E943F1E72442EFD12E
:10AEC00000200021ECE7F0B40125ED070F005F4002
:10AED000EED40C00871A9C4105D2C01BA141D219A7
:10AEE000634169406B40AE0ADF184C18F442E1D26E
:10AEF000640D7F0DE2D0E61B362ED1DCDB022B4346
:10AF0000DB0AA4460C0DC9022943C90A012E28DC1C
:10AF100004D1D6075208DF073A435B08EF0A7642AE
:10AF20009041994114D039423BD1B6194041494131
:10AF3000761C394204D1761C001849413942FAD0B6
:10AF4000B9436746B74208D9A41B24052143A7E7A4
:10AF50000042EAD13642E8D1A2E7E40AE107002044
:10AF60009EE7202E0BDD203E1F00F340F7415F409F
:10AF7000012A002257417E42984191410BE017007F
:10AF8000F741F2405740F3415A40B340F3405A4032
:10AF90007E42904199410A0303D2641EB619404192
:10AFA00049410027641E24054208AE4178416141B1
:10AFB000F0BC7047F446002804D4494200F013F86E
:10AFC000404260474042002905D45FD000F00BF8B2
:10AFD000404249426047494200F005F84942604713
:10AFE00003460B43E6D40022030A8B420BD203092B
:10AFF0008B4219D243088B422ED2411A00D201460D
:10B00000524110467047FF2209023FD012068B4280
:10B0100005D3121209028B4201D31212090203094D
:10B020008B4219D300E0090AC3098B4201D3CB013B
:10B03000C01A524183098B4201D38B01C01A52417D
:10B0400043098B4201D34B01C01A524103098B4281
:10B0500001D30B01C01A5241C3088B4201D3CB006C
:10B06000C01A524183088B4201D38B00C01A52414F
:10B0700043088B4201D34B00C01A5241884200D38F
:10B08000401A5241CFD201461046704708B5C0461B
:10B09000C04608BDF0B50E005E400125ED072E400C
:10B0A000B446AE0ADF184C18F44208D2F7420ED26A
:10B0B000640D01D07F0D12D100206146F0BD05D195
:10B0C000F74201D87F0D05D10020C143F0BDFBD16F
:10B0D000640DF9D00020C143490549088FE0E41907
:10B0E000C902DB0229432B43DB0A460DC002314370
:10B0F0008E4630B487B295B27D432E0CADB2140C9F
:10B100007C43A419260C240425439CB27C43A41937
:10B11000190C7943270CC919A4B20F043C43090C3C
:10B12000000C97B247432E0CBE193543ADB2170C35
:10B130004743360CBF19A6B2BF193E043543240C51
:10B140003E0C36199FB24743BF19BCB23E0C891959
:10B150001F0C47437F183E043443390C704680B2BD
:10B1600097B247432E0CBE193543ADB2170C474377
:10B17000360CBF19A6B2BF193E043543240C3E0C51
:10B1800036199FB24743BF19BCB23E0C89191F0C38
:10B1900047437F183E043443390C77463F0C90B246
:10B1A00078432E0C80190604ADB22E43050CA0B2D4
:10B1B0002D18120C7A435019020C80B2240CA418DA
:10B1C0009AB27A43121914042043120C89181B0CEA
:10B1D0007B43C91830BCEF0A394203D1B61940414C
:10B1E0004941641E6F12BF0DE41B0BDBFF19BC420B
:10B1F00011DA240500274208AE41784161416646D4
:10B200003143F0BD641C05D1401C6141CF0201D324
:10B210004908F4E750E75DE7F0B40E005E40012511
:10B22000ED072E40B446AE0ADF184C18F4423BD26C
:10B23000F74241D2640D43D07F0D38D0E41BC902E0
:10B24000DB0229432B43CF0ADB0A0600B61A9F41D3
:10B2500004D2641EB6197F41B6185F416812800D92
:10B2600024180018844222DAE80C0021B6197F4124
:10B27000B61A9F4102D2B6185F413F1C4041494176
:10B28000F4D3241C21DD2405B6197F41B61A9F4151
:10B2900005D33743C60737430026012F704161416C
:10B2A00066463143F0BC7047FCD1F74205D200201E
:10B2B000C14349054908F3E704D00020C143F1E741
:10B2C0007F0DFAD000206146ECE72442FAD1401C01
:10B2D00061410F03F6D30020E2E7FEE780B5124894
:10B2E000C046C04611A1016041608160C16001613A
:10B2F000416181610EA242628162C1620163416368
:10B300000CA282630DA2C2630164416401BD10B549
:10B310000548C046C04604002068002801D1FFF758
:10B32000DDFF200010BD00004027002000000000CD
:10B330002E00000066616C73650000007472756514
:10B34000000000007CB504000E001500300029004C
:10B35000FFF746FE00904543701B0190684603C806
:10B3600003C476BD80B50348C046C046806902BDAF
:10B3700000000000D0270020002804D10EA003C840
:10B3800003C200207047017001207047002904D1DA
:10B390000BA003C803C300207047002A02D101207C
:10B3A000C0437047002801D00A7802800978481EFF
:10B3B0008041C043C00F7047000000000000000043
:10B3C000000000000000000000000000000000007D
:10B3D000000000000000000000000000FC00000071
:10B3E00000000000330000000000003C00003C00B2
:10B3F00000000000000000000020E03C20E03C20B5
:10B40000043C07043C07040000304884FF04081093
:10B41000000810207F21120C00384444B860180442
:10B42000002018061D22221C000038C4C4380080E9
:10B43000001E212020130C33000000003C000000FF
:10B440000000000000000000000000E018040200FE
:10B45000000000071820400000020418E00000006F
:10B460000040201807000000004080E080400000FD
:10B47000000201000102000000808080F0808080D6
:10B4800000000000070000000000000000000000B5
:10B4900000000040300000000080808080808080BC
:10B4A000000000000000000000000000000000009C
:10B4B000000000003000000000000080601806005E
:10B4C000001806010000000000F00804040408F061
:10B4D000000F10202020100F00000808FC000000C2
:10B4E000000000003F0000000018040404847800FD
:10B4F00000382422212020000018848484847800CD
:10B500000018202020201F00000000C0300CFC008C
:10B510000004070404043F0400FC44444444840041
:10B520000018202020201F0000F884848484180044
:10B53000001F202020201F0000040404C4340C003D
:10B540000000003E010000000078848484847800BC
:10B55000001F202020201F0000F804040404F8002D
:10B560000018212121211F000000003000000000F0
:10B570000000000C0000000000000000300000008F
:10B58000000000201C00000000804040202010101F
:10B5900000000101020204040040404040404040DD
:10B5A000000202020202020200101020204040802D
:10B5B0000004040202010100003008040484483041
:10B5C000000000003700000000F008C424E408F088
:10B5D000000F102324231407000000E01CE00000EB
:10B5E000003807040404073800FC8484848448304D
:10B5F000003F20202020110E00F008040404083031
:10B60000000F10202020100C00FC0404040418E09B
:10B61000003F20202020180700FC848484848404B8
:10B62000003F20202020202000FC84848484840487
:10B63000003F00000000000000F0080404040810AF
:10B64000000F10202021113F00FC8080808080FCB2
:10B65000003F00000000003F00000000FC00000070
:10B66000000000003F0000000000000000FC00009F
:10B6700000182020201F000000FC8040201008043B
:10B68000003F01020408102000FC00000000000040
:10B69000003F20202020200000FC30C000C030FCF3
:10B6A000003F00000700003F00FC1860800000FC25
:10B6B000003F00000106183F00F00804040408F0F1
:10B6C000000F10202020100F00FC040404048870D8
:10B6D000003F01010101000000F00804040408F02B
:10B6E000000F10202428304F00FC0404040488704C
:10B6F000003F01010101023C0030484484840810ED
:10B70000000810202020110E00040404FC0404048E
:10B71000000000003F00000000FC0000000000FCF2
:10B72000001F20202020201F001CE0000000E01C43
:10B73000000000073807000000FC00C03CC000FC0F
:10B7400000033C0300033C03000C30408040300CFD
:10B7500000300C0300030C30000C30C000C0300C73
:10B76000000000003F00000000040404C4340C008A
:10B7700000302C2320202000000000FE02020200E6
:10B780000000007F4040400020FC20E03CE020FC26
:10B7900000033C0300033C0300020202FE00000021
:10B7A000004040407F000000000008040204080040
:10B7B0000000000000000000000000000000000089
:10B7C00000404040404040400000020408000000AB
:10B7D0000000000000000000008040404040800069
:10B7E000001C222222221F2000FC804040408000BA
:10B7F000003F10202020100F00008040404040807B
:10B80000000F10202020201000008040404080FCCD
:10B81000000F10202020103F00008040404080009A
:10B82000000F122222222213004040F84444440018
:10B830000000003F00000000008040404040C00089
:10B840000027484848483F0000FC804040408000B6
:10B85000003F000000003F0000000000CC0000009E
:10B86000000000003F00000000000000CC000000CD
:10B87000000040403F00000000FC0000804020002D
:10B88000003F02050810200000000000FC0000003E
:10B89000000000003F00000000C0404080404080A9
:10B8A000003F00003F00003F00C08040404080005B
:10B8B000003F000000003F0000008040404080004A
:10B8C000000F10202020100F00C08040404080005A
:10B8D000007F08101010080700008040404080C022
:10B8E000000708101010087F0000C0804040400092
:10B8F00000003F0000000000008040404040800009
:10B900000011222224241800004040FC4040400046
:10B910000000001F2020200000C000000000C00028
:10B92000001F202020203F0000C00000000000C0B9
:10B930000000030C300C030000C00000800000C0B9
:10B940000007380C030C38070040800000008040DE
:10B95000002010090609102000C00000000000C0EF
:10B960000040434C300C0300004040404040C000C9
:10B970000030282422212000000080807C02020068
:10B98000000000003F40400000000000FE000000FA
:10B99000000000007F0000000002027C80800000A8
:10B9A0000040403F00000000008040408080804018
:10B9B0000000000000000000000000000000000087
:10B9C00000000000000000000080C0C0C0C0C0C077
:10B9D000C0C0C0800000FFFF00000000000000FFAA
:10B9E000FF0000FFFF80808080808080FFFF0000DC
:10B9F000000101010101010101010000000000003E
:10BA00000080C0C00000000000000000000101FF35
:10BA1000FF0000000000000000000000FFFF000029
:10BA20000000000000000000000101000000000014
:10BA300000C0C0C0C0C0C0C0C0C0C080000080C0C6
:10BA4000C0C0C0C0C0C0C0FF7F0000FFFF808080BA
:10BA500080808080808000000001010101010101DF
:10BA60000101010000C0C0C0C0C0C0C0C0C0C080D3
:10BA70000000C0C0C0C0C0C0C0C0C0FFFF00008088
:10BA80008080808080808080FFFF000001010101B4
:10BA9000010101010101010000C0C000000000001F
:10BAA0000000C0C000007FFFC0C0C0C0C0C0C0FF59
:10BAB000FF0000000000000000000000FFFF000089
:10BAC0000000000000000000000101000080C0C074
:10BAD000C0C0C0C0C0C0C0C000007FFFC0C0C0C0E8
:10BAE000C0C0C0C080000080808080808080808056
:10BAF000FFFF00000101010101010101010100003E
:10BB00000080C0C0C0C0C0C0C0C0C0C00000FFFF37
:10BB1000C0C0C0C0C0C0C0C0800000FFFF80808027
:10BB200080808080FFFF0000000101010101010110
:10BB30000101000000C0C0C0C0C0C0C0C0C0C08003
:10BB40000000000000000000000000FFFF000000F7
:10BB50000000000000000000FFFF000000000000E7
:10BB600000000000000101000080C0C0C0C0C0C0D3
:10BB7000C0C0C0800000FFFFC0C0C0C0C0C0C0FFC8
:10BB8000FF0000FFFF80808080808080FFFF00003A
:10BB90000001010101010101010100000080C0C09C
:10BBA000C0C0C0C0C0C0C08000007FFFC0C0C0C057
:10BBB000C0C0C0FFFF0000808080808080808080C7
:10BBC000FFFF00000101010101010101010100006D
:10BBD0000000000000000000000000000000000065
:10BBE00000001C1C1C000000000000000000001CE5
:10BBF0001C1C00000000000000000000000000000D
:10BC00000000000000000000000000000000000034
:10BC10000000000000000000000000000000000024
:10BC20000000000000000000000000000000000014
:10BC30000000000000000000000000000000000004
:10BC400000FE01010101FE00007F808080807F00F6
:10BC500000000000000000000000000000000000E4
:10BC600000000002FF00000000000000FF000000D4
:10BC700000000000000000000000000000000000C4
:10BC80000001818181817E00007F80808080800032
:10BC900000000000000000000000000000000000A4
:10BCA000008181818181FE000080808080807F0012
:10BCB0000000000000000000000000000000000084
:10BCC000007F80808080FF00000000000000FF00F7
:10BCD0000000000000000000000000000000000064
:10BCE000007E8181818101000080808080807F00D2
:10BCF0000000000000000000000000000000000044
:10BD000000FE818181810100007F808080807F0032
:10BD10000000000000000000000000000000000023
:10BD2000000101010101FE00000000000000FF0011
:10BD30000000000000000000000000000000000003
:10BD400000FE81818181FE00007F808080807F00F5
:10BD500000000000000000000000000000000000E3
:10BD6000007E81818181FE000080808080807F0054
:10BD700000000000000000000000000000000000C3
:10BD800000000000000000000000000000000000B3
:10BD900000000000000000000000000000000000A3
:10BDA0000000000000000000000000000000000093
:10BDB000000000000000000000000000E030103033
:10BDC0006040404060202090F020E040C080800033
:10BDD0000000000000000000000000003F3838387C
:10BDE0003838383838383E3B3C3B3C3B38383839BB
:10BDF000393A3A3C3C00000000000000000000001E
:10BE00000000000000000000000000000000000032
:10BE10000000000000000000000000000000000022
:10BE20000000000000000000000000000000000012
:10BE30000000000000000000000000000000080CEE
:10BE40008EFFFF0E0C0C8EFFFF0E0C0C8EFFFF0EF4
:10BE50000C080000000000000000000000000000CE
:10BE60001F7FE0C000001F7FE0C000001F7FE0C018
:10BE700000000000000000000000000000000000C2
:10BE80000000070700000000070700000000070788
:10BE900000000000000000000000000000000000A2
:10BEA0000000000000000000000000000000000092
:10BEB0000000000000000000000000000020202022
:10BEC0002020202020FCF87020000000000000004E
:10BED0000000000000000000000000000000000062
:10BEE000000000000001000010387CFE101010104F
:10BEF0001010101000000000000000000000000002
:10BF00000000000000000000000000000000000031
:10BF10000000000000000000000000000000000021
:10BF20000080804040202020202020404080800051
:10BF300000000000000000000000000000E0180603
:10BF4000010000000000FE01FE8080808080000172
:10BF50000638C00000000000000000000007186064
:10BF600080000000000001020202020202020180C1
:10BF7000601C030000000000000000000000000042
:10BF80000001010202020404040402020201010091
:10BF900000000000000000000000000000000000A1
:10BFA0000000000000000000000000808080808011
:10BFB0000000000000000000000000000080C0E061
:10BFC000F0F8F838180800000000101814121100DA
:10BFD000000000000000000000000000000F1F3FF4
:10BFE0007FFFFFF0E0C08000101915130120A06052
:10BFF0002000000000000000000000000000000021
:10C000000000000000000000000000000203020227
:10C010000000000000000000000000000080C0E000
:10C02000F018000000000000000000000000000008
:10C0300000000000000000000000E0FCFFFFFFFF28
:10C04000FFE080000000004464544C4400002020C5
:10C05000A06020000000000000000F7FFFFFFFFF36
:10C06000FFFFFFFEFCF8F8F0F0E0E0E0E0E0E2E3E4
:10C07000E2F2F2F8F87C0E00000000000103070F66
:10C080001F1F3F3F3F7F7F7F7F7F7F7F3F3F3F1F60
:10C090001F0F0703010000000080C0E0E0E0C08047
:10C0A00000000000000000000000000000FEFFFF94
:10C0B000FFFFFFFF0F07020000000000000000006C
:10C0C0000000000103070F1F3F7FFEFCF8F8F8F89F
:10C0D000FCFEFEFEFEFC0000000000000000000070
:10C0E0000103030303030303010100000000000038
:10C0F00000000080C0C08000000000000000008040
:10C10000C00000000000000000000000000000006F
:10C110000000FFFFFFFFFFFFFE1C000000060F1FD7
:10C1200036060606060606000000000000000000B5
:10C130000000000103070F1F3F7FFEFCF8F8F8FC2A
:10C14000FCFCF8F0600000000000000000000000AF
:10C1500000000000000000000000000103030303D2
:10C16000030301000000000000000000000080C088
:10C17000C0C0C0C0F0F0C0C0C0C0C0F0F0C0C0C0FF
:10C18000C0C0F0F0C0C0C0C0C08000000000FFFF11
:10C190000000003033333000000030333330000013
:10C1A0000030333330000000FFFF00000000FFFFCD
:10C1B00000000033333333000000333333330000E7
:10C1C0000033333333000000FFFF0000000003079B
:10C1D00006060606060606060606060606060606FF
:10C1E0000606060606060606070300000000F0F82D
:10C1F00018181818181818181818181818181818BF
:10C200001818181818181818F8F000000000FFFF88
:10C21000000000307878300000003078783000007E
:10C220000030787830000000FFFF000000007FFF42
:10C23000C0C0C0C00000000080C0C0C0C0C0C0C03E
:10C24000C0C0C0C0C0C0C0C0FF7F00000000000070
:10C250000020301F080C060701000000000000004D
:10C260000000000000000000000000000000C0E02E
:10C2700060606060606060606060606060606060BE
:10C280006060606060606060E0C000000000FFFF10
:10C290000000060C183060C0800000000000008024
:10C2A000C06030180C060000FFFF00000000FFFF18
:10C2B00000000000000000000103060C0C06030152
:10C2C0000000000000000000FFFF0000000001036C
:10C2D000030303030303030303030303030303032E
:10C2E0000303030303030303030100000000000032
:10C2F000000080C06030180C0C0C0C0C0C0C0C0CEA
:10C300000C183060C0800000000000000000F8FC45
:10C31000060301FCFE060606C626965696D626C6D7
:10C32000060606FEFC010306FCF800000000FFFF05
:10C3300000000003070C183067C897141794CA69E7
:10C3400030180C0703000000FFFF000000001F3F33
:10C3500030303030303030303030313333313030D5
:10C3600030303030303030303F1F000000FEFE06ED
:10C37000060606060606060606060606060606065D
:10C38000060606060606060606FEFEF0F0F00000AB
:10C390003F3F30303030303030303030303030307F
:10C3A0003030303030303030303030303F3F0707C1
:10C3B000070000FEFE06F6F6F6F6F6F6F6F60606B8
:10C3C000060606060606060606060606060606FE15
:10C3D000FEF0F0F000003F3F303737373737373760
:10C3E0003730303030303030303030303030303046
:10C3F00030303F3F0707070000FEFE06F6F6F6F670
:10C40000F6F6F6F6F6F6F6F6F6F6F6F6060606068C
:10C410000606060606FEFEF0F0F000003F3F30374D
:10C4200037373737373737373737373737373730A3
:10C4300030303030303030303F3F0707070000FEEB
:10C44000FE06F6F6F6F6F6F6F6F6F6F6F6F6F6F674
:10C45000F6F6F6F6F6F6F6F6F6F606FEFEF0F0F06E
:10C4600000003F3F303737373737373737373737C1
:10C4700037373737373737373737373737303F3F43
:10C4800007070700401E00BF00BF00BF00BF00BF7E
:10C4900000BF00BF00BF00BF00BF00BF00BFF1D1A1
:10C4A000704738B500216A4611700E4C6060182044
:10C4B0006168C870656801238021E878ED68A84745
:10C4C000694609786268517032BD10B5054B5C68E9
:10C4D000002C02D17E20C04310BD13000A00802131
:10C4E000014301E094280020E078E468A04710BDF3
:10C4F00038B504007B484568002D02D17E20C0433A
:10C5000032BD01236A468F2100F06AFC70B582B00B
:10C510000500744C6668002E01D17E202FE00328B0
:10C5200005D0052803D0082801D00C2826D10123E6
:10C530006A468F21F078F668B04769460A78F0219C
:10C540001140032D06D0052D06D0082D06D00C2D48
:10C5500006D009E0032204E0052202E0082200E000
:10C560000C220A4369460A706568040001236A4682
:10C570000F21E878AD68A847201876BD0120C04398
:10C5800076BD38B5040057484568002D02D17E209D
:10C59000C04332BD01236A46902100F081FC0000B7
:10C5A000F8B509244F4D6F68002F01D17E2043E07C
:10C5B0000200083AE0267B78FB2B0DD1072A3AD2FD
:10C5C0000838062821D801A2125C9744223C262A6A
:10C5D0002E3206000E2418E0082A2CD2083807282C
:10C5E00013D801A2125C974406200A0E12161A1ED6
:10C5F00008240AE00A2408E00B2406E00C2404E0E6
:10C600000D2402E00E2400E00F2401236A4690214D
:10C61000F878FF68B847694609780E4034436946A0
:10C620000C706D68040001236A461021E878AD683B
:10C63000A8472018F2BD0120C043F2BD70B582B0FA
:10C640000500284C6668002E02D17E20C04345E0DC
:10C65000012300AA521C9121F078F668B047666861
:10C6600001236A469221F078F668B0476946497816
:10C6700049096A4651700121127892090123134039
:10C680006A46137052786B461B78134301D1002120
:10C6900023E06A465278022A04D16B461B78002BAD
:10C6A0000AD11AE0042A01D0062A05D16946097880
:10C6B000002901D1022110E0D1070DD46946097883
:10C6C000022A03D1012907D1042106E0042A03D15B
:10C6D000012901D1052100E0032129702978626830
:10C6E000117076BD9428002070B582B00500A24C70
:10C6F0006668002E01D17E2097E0062D00DB93E0D6
:10C70000012300AA521C9121F078F668B0476668B0
:10C7100001236A469221F078F668B047BF21402392
:10C720001F22052D00D981E001A6765DB74400BF28
:10C7300006223E5676B26B465B781A406B465A70BC
:10C740006A46127811406A46117066680500012336
:10C7500037E06D466D782A4013436A46537012786D
:10C7600011406A46117066680500012329E06B4696
:10C770005B781A40802313436A4653701278114045
:10C780006A46117039E0694649780A402021114310
:10C790006A465170694609780B4369460B706668B2
:10C7A000050001230DE0694649780A401A436946AD
:10C7B0004A7009780B4369460B70666805000123CF
:10C7C00000AA521C1121F078B668B0472D1801203C
:10C7D00061684969884766682C0001236A4612210E
:10C7E0001DE0694649780A40802111436A4651702C
:10C7F000694609780B4369460B706668050001239A
:10C800001221F078B668B0472D1801206168496997
:10C81000884766682C00012300AA521C1121F07879
:10C82000B568A847201801E00120C043C0B276BD1A
:10C8300038B5040050484568002D02D17E20C04321
:10C8400032BD01236A469121E878ED68A847694620
:10C850000978C90600F0CAFA70B582B00F24464DB7
:10C860006E68002E01D17E2034E0411F0B2930D2AA
:10C87000401F09281AD801A1095C8F44080C101424
:10C88000181C2024282C052410E006240EE0072480
:10C890000CE008240AE0092408E00A2406E00B243E
:10C8A00004E00C2402E00D2400E00E2401236A467B
:10C8B0009121F078F668B04768460078E1210140A0
:10C8C00060000843694608706C6801236A461121BC
:10C8D00026E10120C04376BD38B5040026484568EE
:10C8E000002D02D17E20C04332BD01236A46922131
:10C8F000E8E070B582B005001F4C6668002E01D1DB
:10C900007E2017E0022D14DA01236A469221F07886
:10C91000F668B04768460078DF21014068012022B0
:10C920001040084369460870646801236A46122172
:10C93000F6E00120C04376BD70B582B00500734CAF
:10C940006668002E02D17E20C04376BD01236A4670
:10C950009321F078F668B04768460078BF2101401F
:10C96000A80140221040084369460870646801230A
:10C970006A461321D4E000009428002010B582B04C
:10C98000B6206946087061484468002C02D17E20B8
:10C99000C04316BD01236A461421E078A468A0476D
:10C9A00016BD0000F8B505000C0058484668002E7A
:10C9B00002D17E20C043F2BD01236A469621F07861
:10C9C000F668B04751484668012300AA521C9721D7
:10C9D000F078F668B047E407E40F2301FE20FD215C
:10C9E000FB22EF260B2D5BD801A77F5DBF4400BF64
:10C9F0000C18263242505E6874808EA068464078DB
:10CA0000F7210140E0000AE0694649780840044304
:10CA10006846447044E0684640780140600008433E
:10CA200004E0684640780240A00010436946487020
:10CA300036E06846407806403343684643702FE04E
:10CA400069460978084004436846047028E068464F
:10CA500000780140600017E0684600780240A000BE
:10CA6000104312E068460078DF21014060010BE0CE
:10CA700068460078064033436846037010E0684615
:10CA80000078BF210140A00108436946087007E013
:10CA9000684600784006400EE10101436846017097
:10CAA0001A48446801236A461621E078A468A04722
:10CAB00016484468012300AA521C1721E078A46894
:10CAC000A047F2BDE878ED68A847694609788A066C
:10CAD000D20F227032BD70B582B005000B4C666873
:10CAE000002E01D17E200FE0022D0CDA01236A46D0
:10CAF0009721F078F668B04768460078DF2101405A
:10CB00006801202204E00120C04376BD9428002063
:10CB10001040084369460870646801236A4617217B
:10CB2000E078A468A04776BD70B582B00D000F49CB
:10CB30004E68002E01D17E2016E00124002802D08C
:10CB4000012804D00FE001236A46992102E0012365
:10CB50006A469B21F078F668B047694609788908EB
:10CB60000C402C7076BD0120C04376BD9428002077
:10CB7000F8B51A4C6768002F01D17E202BE08E009B
:10CB800004210E40FB25002802D0012811D021E00D
:10CB900001236A469921F878FF68B847684600780B
:10CBA00005402E4368460670646801236A461921D1
:10CBB0000FE001236A469B21F878FF68B847684672
:10CBC000007805402E4368460670646801236A4673
:10CBD0001B2173E70120C043F2BD00009428002010
:10CBE00070B582B00500114C6668002E01D17E2020
:10CBF00018E0022D15DA01236A469A21F078F668CA
:10CC0000B04768460078FB210140A800042210408C
:10CC1000084369460870646801236A461A21FFF7D1
:10CC20007FFF0120C04376BD000000009428002053
:10CC300070B582B00D0040494E68002E01D17E20B3
:10CC40001CE00124002802D001280AD015E00123AD
:10CC50006A46A021F078F668B04769460978490825
:10CC600008E001236A46A021F078F668B0476946DB
:10CC70000978C9080C402C7076BD0120C04376BDF0
:10CC800070B582B00D002C4C6668002E01D17E205C
:10CC900028E0002802D001280DD022E001236A46B6
:10CCA000A021F078F668B04768460078FD21014081
:10CCB000680002220BE001236A46A021F078F668A2
:10CCC000B04768460078F7210140E800082210408C
:10CCD000084369460870646801236A462021FFF70B
:10CCE0001FFF0120C04376BD70B582B00D00124910
:10CCF0004E68002E01D17E201BE00124002802D0C6
:10CD0000012809D014E001236A46A021F078F668D2
:10CD1000B0476946097808E001236A46A021F07807
:10CD2000F668B0476946097889080C402C7076BDD2
:10CD30000120C04376BD00009428002070B582B069
:10CD40000D003F4C6668002E01D17E2028E00028AF
:10CD500002D001280DD022E001236A46A021F078FC
:10CD6000F668B04768460078FE210140E807C00F2A
:10CD70000CE001236A46A021F078F668B0476846C7
:10CD80000078FB210140A8000422104008436946B6
:10CD90000870646801236A462021FFF7C1FE012064
:10CDA000C04376BD70B582B005003C4C6668002E6D
:10CDB00002D17E20C04376BD01236A46A121F078CE
:10CDC000F668B047684600784006400EE901014326
:10CDD00068460170646801236A462121FFF7A0FEBE
:10CDE000E878ED68A847694609780907090F2170B6
:10CDF00032BD000038B50C0028494D68002D01D126
:10CE00007E2019E0002805D002280BD006D3032885
:10CE10000CD010E001236A46A3210AE001236A46F0
:10CE2000A62106E001236A46A82102E001236A4602
:10CE3000A92100F047F80120C04332BD00000000E6
:10CE40009428002010B582B0144A5468002C01D1F7
:10CE50007E2021E0002805D002280FD008D3032827
:10CE600012D018E06846017001236A46232110E0C1
:10CE70006846017001236A4626210AE0684601706F
:10CE800001236A46282104E06846017001236A46AE
:10CE90002921FFF782FD0120C04316BD9428002000
:10CEA000E878ED68A84769460978C906C90E217077
:10CEB00032BDE878ED68A847694609788907890F87
:10CEC000217032BDE878ED68A8476946097821707D
:10CED00032BD38B5040021484568002D02D17E20BE
:10CEE000C04332BD01236A46BE21E878ED68A847F9
:10CEF000694609788909217032BD70B582B0050094
:10CF0000964C6668002E01D17E2016E0042D13DABF
:10CF100001236A46BE21F078F668B047684600787B
:10CF20008006800EA90101436846017064680123F0
:10CF30006A463E21FFF7F4FD0120C04376BD38B5B7
:10CF4000040086484568002D02D17E20C04332BDD2
:10CF500001236A46BE21ACE70000000094280020AF
:10CF600070B582B005007D4C6668002E01D17E2030
:10CF700017E0042D14DA01236A46BE21F078F66822
:10CF8000B04768460078FC210140A807800F08439D
:10CF900069460870646801236A463E21FFF7C0FDB8
:10CFA0000120C04376BD80B5080011001A0000F0D2
:10CFB000ACFA012002BD80B5080011001A0000F093
:10CFC000C1FA012002BD80B5DBB2FFF7F4FF02BD5C
:10CFD00038B50400002504E0FA208000FFF752FA7B
:10CFE0006D1CA542F8D331BD10B582B0002468464F
:10CFF0000470012000F0D4F9FFF7C0FCFFF7BEFC7D
:10D00000E120C000FFF73EFA0920FFF7C9FA6846A1
:10D01000FFF7B7FA68460078092802D00920FFF721
:10D02000BFFA684604700220FFF72CFA0820FFF7C9
:10D030006DFA6846FFF75CFA68460078082802D067
:10D040000820FFF763FA0120FFF776FC68460470BA
:10D050000220FFF717FA0120FFF74FFF6846FFF79E
:10D0600038FF68460078012802D00120FFF745FF0D
:10D07000684604700220FFF705FA0020FFF770FFF2
:10D080006846FFF75CFF68460078002802D0002061
:10D09000FFF766FF684604700220FFF7F3F90021EE
:10D0A0000020FFF7EDFD69460020FFF7C1FD68464F
:10D0B0000078002803D000210020FFF7E1FD68463A
:10D0C00004700220FFF7DEF900210020FFF736FE92
:10D0D00069460020FFF708FE68460078002803D064
:10D0E00000210020FFF72AFE684604700220FFF7A7
:10D0F000C9F901210220FFF7A5FE69460220FFF7CA
:10D1000079FE68460078012803D001210220FFF74C
:10D1100099FE0120FFF7DFFC0120FFF761FD0122EE
:10D1200069460A20FFF7D1F9684604700220FFF72C
:10D13000A9F90020FFF7D8FA0220FFF7A3F9684603
:10D14000FFF77CFA68460078002802D00020FFF73D
:10D15000CBFA8C48047013BD000000009428002016
:10D1600010B582B00024684604700020FFF7B3FCBD
:10D170000020FFF735FD684604700220FFF782F9B2
:10D180000020FFF7BAFE6846FFF7A3FE6846007866
:10D19000002802D00020FFF7B0FE0220FFF772F94E
:10D1A0000020FFF7A6FB6846FFF796FB684600786D
:10D1B000012802D00020FFF79CFB68460470022083
:10D1C000FFF760F901210020FFF7D2FC694600203B
:10D1D000FFF7AAFC68460078012803D0012100204F
:10D1E000FFF7C6FC684604700220FFF74BF90F20DA
:10D1F000FFF732FB6846FFF71BFB684600780F28F5
:10D2000002D00F20FFF728FB01210520FFF7CAFB02
:10D2100001210620FFF7C6FB01210720FFF7C2FB13
:10D220000220FFF72FF90120FFF7BCFD68460470CC
:10D230000220FFF727F90120FFF756FA6846FFF7AB
:10D24000FDF968460078012802D00120FFF74CFA6A
:10D2500001204C49087013BD4A480178012900D0CB
:10D26000704780B500210170FFF7BEFE01BD10B50B
:10D2700082B00024684604700F20FFF791F96846D9
:10D28000FFF77FF9684600780F2802D00F20FFF7DC
:10D2900087F90020FFF731FE6846FFF71AFE68465F
:10D2A0000078002802D00020FFF727FE0F20FFF7AC
:10D2B000D3FA6846FFF7BCFA684600780F2802D018
:10D2C0000F20FFF7C9FA012269460A20FFF7FDF88F
:10D2D0002C48047013BD10B52B4C2C48A0602C4872
:10D2E000E0602C4820612C4860612000FFF7D9F8ED
:10D2F000FFF77AFE6078F92801D1012010BD0020E7
:10D3000010BD10B525494C68002C02D17E24E443A1
:10D3100006E006230200BF21E078E468A04704008D
:10D320000220FFF7AFF8200010BD00211B4A127841
:10D33000002A05D0022A15D00BD3032A17D01EE0ED
:10D340000178090940780001084300050014011123
:10D3500015E00178890940788000084380050014B1
:10D3600081110CE0407800060014011207E00178FA
:10D37000890840788001084380040014811008B2B5
:10D3800070470000AE280020C8340020A7CF01005D
:10D39000B7CF0100C7CF0100D1CF010094280020F2
:10D3A00010B504000220FFF79FF92000FFF7A5FD4C
:10D3B0000020FFF799F910BD80B50020694608707C
:10D3C0000120FFF79AFD012269460A20FFF77DF848
:10D3D00001BDFEE7032100E08900394A80001150B9
:10D3E0007047012181403748016070470121814029
:10D3F00035480160704780B5344800210160022241
:10D400008260042202610122C26080231B06436203
:10D4100041652F4B196002600120FFF7DBFF0220FE
:10D42000FFF7D8FF0520FFF7D5FF00210420FFF705
:10D43000D3FF052012E080B51E20FFF7CBFF1F2091
:10D44000FFF7C8FF0820FFF7C5FF1E20FFF7CEFF3C
:10D450001F20FFF7CBFF00E080B50820FFF7C1FFDA
:10D4600001BDF8B5040000250826012713E01F20A0
:10D47000FFF7BCFF1E20FFF7B4FF16480068800AC4
:10D48000384004D028000125B5400543EDB21E20E8
:10D49000FFF7ACFF64003000461E000605D02006F2
:10D4A000E5D51F20FFF79DFFE4E72800F2BD30B56A
:10D4B00000210022084B5860C0208001044C17E076
:10D4C00000070050080500500C05005000350040D2
:10D4D00008310040100500501835004080B5FFF7B6
:10D4E000E6FF01BD80B5FF20FFF7E1FF02BD0000B0
:10D4F00000E0521C2568002D01D18242F9D38242FE
:10D5000000D021601868C0B230BDF8B506000C002C
:10D51000170000251E20FFF769FF00210A20FFF7F2
:10D520005BFF0820FFF762FF7006400EFFF799FFD0
:10D5300004E02078FFF795FF641C6D1CADB2BD427E
:10D54000F7D31CE0F8B506000C00170000251E20DC
:10D55000FFF74CFF00210A20FFF73EFF0820FFF7EE
:10D5600045FF80203043FFF77CFF05E0FF20FFF7F9
:10D5700078FF2070641C6D1CADB2BD42F6D308204C
:10D58000FFF72FFF0A20FFF725FFF1BDF8B5554D36
:10D59000E97D491CE975C9B23C2900D091E000261B
:10D5A00052490978FF2901D1504A16704C4C297E06
:10D5B00000292DD1EF7E7F1CFFB20B2F09DBFF204E
:10D5C0004A4908700027FF220621200000F02EFEA5
:10D5D00006206874EF76687E292806DBFF22062184
:10D5E000200000F023FE4048066060782070A0789C
:10D5F0006070E078A0702179E170627922712B7EF1
:10D600006371002027780F2F04DBFA2189001BE0CB
:10D610000027DEE7012067780F2FF6DA0220A778CF
:10D620000F2FF2DA03200F29EFDA04200F2AECDAA9
:10D6300005200F2BE9DA20786778C019A778C01980
:10D6400040188018C1180620A987687400F01CFFD4
:10D65000A98F2A2906DB24490A68821AF13A244B49
:10D660009A4228D2E078A178627853181B1827795B
:10D67000DB196779DB19012B1EDB2378032B0CDA0E
:10D6800001201A490870EE766E74FF2206212000F0
:10D6900000F0CCFD687C801D0BE0032AF0DB032941
:10D6A000EEDB0328ECDB20790328E9DB032FE7DB43
:10D6B0000620687400E00860A87E6876EE75AE7695
:10D6C0002E76F1BD07490A7B0A2A04DA101808737E
:10D6D000C0B20A2803DB7B494A68101848607047CB
:10D6E0004035002064320020D8350020E635002087
:10D6F0006F080000F0B583B00024801C009020204B
:10D700000190724D6E7B761C6E730098801E002116
:10D71000405E009900228F5E87422CDB0222895EE8
:10D720008F4228DBF6B25B2E02DB00242C732FE045
:10D73000E97B002903D139000122EA7305E0382191
:10D74000695EB94200DBB1E039002987032E00DAB7
:10D75000ACE0A87B012800D1A8E03620285E381A6A
:10D76000A864297C814200DBA0E0092800DA9DE062
:10D770000120A8739AE0B84200DA97E000980221ED
:10D78000405EB84200DA91E0F6B22E2E12DB0024A1
:10D7900007220421281D00F049FD042068746C73E1
:10D7A0004948A886E8862C87EC816420A875082063
:10D7B00028747BE0032E79DBAF86A87B022820D07B
:10D7C0003820295EEA8E881AC91B3622AA5EBA4220
:10D7D00001DA0A0001E0020008002875EA74287DD9
:10D7E000297C4908884201D3082807DA3620285EB8
:10D7F00087425BDAEF860020288757E0E97C08291A
:10D8000005DA3620285E874250DAEF864CE0C00009
:10D81000FDF7E6FB6887287C0101081A297D490885
:10D8200040180011287468792871A9796971401825
:10D83000E979A971401803216974EE718019000615
:10D84000800EA874083E522E0CD23A21695E282917
:10D8500008DAE97B002905D0641C0020A8736873EE
:10D86000EF8622E0072813DA00242C730722042114
:10D87000281D00F0DBFC042068746C731248A88635
:10D88000E8862C87EC816420A8750820287403E0C2
:10D890003620285EB84209DB3A20285E152805DBD1
:10D8A00000206873A88EE8860020E8730098801C2A
:10D8B00000900198401E019000D023E7E0B203B031
:10D8C000F0BD000030350020FF7F000064320020F2
:10D8D000F0B583B000240025801C0090202001902A
:10D8E0008C4E707B401C7073B07D401CC0B2FB2816
:10D8F00000DBFA20B0750098801E0021405E009980
:10D9000000228F5E874253DB0222895E8F424FDB0B
:10D91000707B5B2802DB0025347356E0F17B002925
:10D9200003D139000122F27305E03821715EB9425A
:10D9300000DBE3E039003187032800DADEE0B07B6A
:10D94000012800D1DAE03620305E381AB064317C2C
:10D95000814200DBD2E0092800DACFE06D1C012013
:10D96000B07370793071B17971714018F179B1711A
:10D97000401803217174B074717BF1714018000676
:10D98000800EB074072811DA0025347307220421B1
:10D99000301D00F04BFC04207074BA48B086F0864D
:10D9A0003487F4816420B075082030747473A5E066
:10D9B000B84200DAA2E000980221405EB84200DAE4
:10D9C0009CE0707B2E2812DB002507220421301DED
:10D9D00000F02CFC042070747473AA48B086F086A2
:10D9E0003487F4816420B0750820307486E0032801
:10D9F00000DA83E0B786B07B02281FD03820315E82
:10DA0000F28E881AC91B3622B25EBA4201DA0A00C7
:10DA100001E0020008003075F274307D317C490865
:10DA2000884201D3082806DA3620305E874265DA5C
:10DA3000F786348762E0F17C082905DA3620305E0B
:10DA400087425BDAF78658E0C000FDF7C9FA7087B5
:10DA5000307C0101081A317D4908401800113074EA
:10DA600070793071B17971714018F179B1714018E4
:10DA700003217174B074717BF17140180006800E3F
:10DA8000B0740839522917D23A21715E282913DA65
:10DA9000F17B002910D06D1C0220B0737473F786DF
:10DAA000F473B07D162805DA9C4800214056002802
:10DAB00000D16D1EB47521E0072813DA00253473F8
:10DAC00007220421301D00F0B1FB04207074747330
:10DAD0006C48B086F0863487F4816420B0750820E5
