:020000040001F9
:10800000386A0020B5810100CF810100D1810100D3
:108010000000000000000000000000000000000060
:10802000000000000000000000000000D3810100FB
:108030000000000000000000D5810100D781010090
:10804000D9810100D981010031F80200D9810100F4
:10805000BD97020000000000F9220200D981010052
:10806000D981010091F10200D9810100D98101007B
:10807000D9810100D9810100D9810100D981010094
:10808000D98101007D810200D9810100D9810100DF
:10809000B5980200D981010009990200D981010037
:1080A000D9810100D981010000000000000000001A
:1080B00000000000000000000000000000000000C0
:1080C0000348854604F03EFE004800470959030076
:1080D000386A0020401E00BF00BF00BF00BF00BFC5
:1080E00000BF00BF00BF00BF00BF00BF00BFF1D195
:1080F00070470000401E00BF00BF00BF00BF00BFB0
:1081000000BF00BF00BF00BF00BF00BF00BFF1D174
:1081100070470000401E00BF00BF00BF00BF00BF8F
:1081200000BF00BF00BF00BF00BF00BF00BFF1D154
:1081300070470000401E00BF00BF00BF00BF00BF6F
:1081400000BF00BF00BF00BF00BF00BF00BFF1D134
:1081500070470000401E00BF00BF00BF00BF00BF4F
:1081600000BF00BF00BF00BF00BF00BF00BFF1D114
:1081700070470000401E00BF00BF00BF00BF00BF2F
:1081800000BF00BF00BF00BF00BF00BF00BFF1D1F4
:1081900070470000401E00BF00BF00BF00BF00BF0F
:1081A00000BF00BF00BF00BF00BF00BF00BFF1D1D4
:1081B000704700000321094802680A43026008482A
:1081C00002680A4302600748804707480047FEE705
:1081D000FEE7FEE7FEE7FEE7FEE7000024050040BD
:1081E00054050040B1EE0200C180010070B50446A4
:1081F0000D46164632462946204614F0F1FD70BD64
:1082000070B504460D461646204614F03FFD324632
:108210002946204614F056FE70BD00B585B00922EF
:10822000FA49FBA004F0B6FA00280ED1684610F017
:1082300009F91421684618F023F8002805D0FF201A
:10824000F6490870F64814F021FD05B000BD10B5E0
:10825000C0B00446F1480078FF2801D040B010BDFE
:10826000FF2201326946EE48FFF7C0FFED48007873
:10827000002819D1EC4800781E2815DAEA49097857
:108280004A0089186A468818022221461EF065FEB7
:10829000FF2201326946E248FFF7B2FFE248007868
:1082A000401CE1490870D9E7DE480078002808D171
:1082B000DD4800781E2804D1DA4908700020DA4928
:1082C0000870D84800781E2818D1D74800781E2892
:1082D00014DAD54909784A0089186A4688180222B2
:1082E00021461EF03AFEFF2201326946CC48FFF7D4
:1082F00087FFCD480078401CCB49087000BFADE730
:10830000F0B5C1B006460F461546C4480078FF28B0
:108310001DD0C24800782F2805DCC0480078401CDA
:10832000BE49087010E0BD4800785F280ADCBB48F1
:108330000078401CB94908700121BC4800781EF043
:1083400025FE01E010F038FF022041B0F0BDFF2211
:10835000013201A9B248FFF749FFFF202870B14858
:108360000078002824D100241DE06100611801AAD2
:1083700088180222314604F00DFA002809D0610065
:10838000611801AA88180222394604F003FA00286D
:1083900007D160002018801C01A9085C287001200A
:1083A000D3E7601CC4B2A04800788442DDDB27E03C
:1083B0009C4800781E2823D100241DE0610061182C
:1083C00001AA88180222314604F0E4F9002809D0F5
:1083D0006100611801AA88180222394604F0DAF90E
:1083E000002807D160002018801C01A9085C2870B3
:1083F0000120AAE7601CC4B28A4800788442DDDB11
:108400000020A2E770B5C0B005460E46FF2201323B
:1084100069468348FFF7EAFE0F2E02DDA8190546DC
:108420000F3D83480078002844D1824800780A280C
:1084300040DA00241BE02101091B5A316A468818E2
:108440000F22294604F0A6F900280ED176480078BC
:10845000401E41004018801C69460C54FF22013226
:108460006F48FFF7CDFE40B070BD601CC4B27148CC
:1084700000788442DFDB6C480078401E41004018E1
:10848000801C69460C546B4909780A01511A5A310B
:108490006A4688180F2229461EF05FFDFF2201322E
:1084A00069465F48FFF7ACFE62480078401C6149AE
:1084B0000870D8E75E480078002808D15D48007849
:1084C0000A2804D15A49087000205A4908705848AF
:1084D00000780A2843D1574800780A283FDA002458
:1084E0001AE02101091B5A316A4688180F222946D1
:1084F00004F050F900280DD14B480078401E41008F
:108500004018801C69460C54FF2201324448FFF792
:1085100077FEA8E7601CC4B2454800788442E0DBDF
:1085200041480078401E41004018801C69460C54A8
:10853000404909780A01511A5A316A4688180F22AF
:1085400029461EF00AFDFF22013269463448FFF732
:1085500057FE38480078401C3649087083E700BF52
:1085600081E770B5C0B005460E46FF22013269466C
:108570002B48FFF73BFE2B480078002813D100243E
:108580000CE060002018801C6946085CB04203D1F2
:108590002C70012040B070BD601CC4B2224800782D
:1085A0008442EEDB15E01F4800781E2811D100241C
:1085B0000BE060002018801C6946085CB04202D1C4
:1085C0002C700120E6E7601CC4B216480078844293
:1085D000EFDB0020DEE730B5C1B00446FF220132F8
:1085E00001A90F48FFF702FE0E480078002823D1AA
:1085F0000D480078001B401E41004018C5B20A48D3
:108600000078401E0849087027E000002020002064
:108610005A65436972636C65340000009D25002033
:1086200000E03F009A250020992500203A220020F2
:108630009C2500209B2500209F4800781E280CD1F7
:10864000001B401E41004018C5B29B480078401EE8
:108650009A490870002098490870621C5300D2188B
:1086600001ABD1186200A218D0182A461EF075FC82
:10867000FF22013201A99248FFF7C2FD41B030BD8F
:1086800070B5C0B00646FF22013269468C48FFF73C
:10869000ADFD89480078002847D187480078002838
:1086A0001FD1701CC4B217E000250FE06800281825
:1086B000801C6946085CA04206D1601EC1B26800F9
:1086C0002818801C6A461154681CC5B27B48007883
:1086D0008542EBDB601CC4B27A4800788442E3DB5D
:1086E0006EE0794800780A286AD1701CC4B217E09D
:1086F00000250FE068002818801C6946085CA0422D
:1087000006D1601EC1B268002818801C6A46115448
:10871000681CC5B2694800788542EBDB601CC4B2B6
:10872000694800788442E3DB4AE0634800781E2809
:1087300046D16548007800281FD1701CC4B217E0EC
:1087400000250FE068002818801C6946085CA042DC
:1087500006D1601EC1B268002818801C6A461154F8
:10876000681CC5B2544800788542EBDB601CC4B27B
:10877000544800788442E3DB22E0534800780A281A
:108780001ED1701CC4B217E000250FE06800281845
:10879000801C6946085CA04206D1601EC1B2680018
:1087A0002818801C6A461154681CC5B242480078DB
:1087B0008542EBDB601CC4B2434800788442E3DBB3
:1087C000FF22013269463E48FFF71AFD40B070BDF6
:1087D00030B5C1B00446FF22013201A93848FFF785
:1087E00005FD3548007800281CD136480178601C0A
:1087F00081423ADB334B1B781B1B5B1E1D01EA1ABF
:10880000631C1D01EB1A5A3301AD591923011B1BBF
:108810005A3358191EF0A1FB2A480078401E2949F6
:10882000087022E0284800780A281ED126480178DE
:10883000601C814219DB244B1B781B1B5B1E1D0136
:10884000EA1A631C1D01EB1A5A3301AD59192301B1
:108850001B1B5A3358191EF080FB1B480078401E22
:1088600018490870002018490870FF22013201A938
:108870001348FFF7C5FC41B030BD00200F49087018
:108880000D4908700F4908700F49087070470B4870
:108890000078002803D108480078002807D009484C
:1088A0000078002805D108480078002801D101206F
:1088B00070470020FCE700009A2500209925002041
:1088C00000E03F009B2500209C2500200B4A1080E3
:1088D0000B4A118070470B494868704701460948A8
:1088E0004160012070470020064948608860488048
:1088F000C86001204870087070470000A025002063
:10890000A22500208C5C0020FE4800787047FE48BD
:1089100000787047002803D00121FC4A117002E062
:108920000021FA4A11707047F84800787047F848FB
:1089300000787047F74909890181F6498988818063
:10894000F449C988C180F34949884180F1490978CF
:108950000170F04989898181EE49498941817047D7
:1089600010B5ED481CF0AAFAEB48807810BD7047AE
:108970000022EA4B1A70EA4B1A70EA4B1A7028E090
:10898000E84A12785200825EE64B1B785B00CB5EB1
:10899000D21A09D5E34A127852008A5EE14B1B785D
:1089A0005B00C35ED21A08E0DE4A12785200825E93
:1089B000DC4B1B785B00CB5ED21A052A04DDD74A5C
:1089C0001278521CD54B1A70D64A1278521CD54BCD
:1089D0001A70D44A1278032AD2DB00228A5E002A57
:1089E00003DA00228A5E524201E000228A5E3A2ABD
:1089F00004DDCB4A1278521CC94B1A707047F0B58F
:108A000085B006460F4600200190C64908700DE06B
:108A1000C44800784000305E8011C249097849009E
:108A20007052C0480078401CBE490870BD480078AC
:108A30000328EDDB3146BC480068FFF799FFBB48CF
:108A40000078B64909784018B8490870B8480078E5
:108A5000B34909784018B6490870B6490968781AC8
:108A60003C2103F019FE0291B348007802994018A6
:108A7000B1490870B1480078002807D03C20087040
:108A8000A3480078042801D100200870AA48007883
:108A90003B285ADD012001909E488089401C9D4959
:108AA0008881002500209F49087012E0A4499D4854
:108AB0000078401C085C9B4A127888540846994903
:108AC0000978405C401985B296480078401C954969
:108AD0000870944800780B28E8DB9448007898499F
:108AE000C87292480078281885B20846C07A1B28B8
:108AF00007DD0846807A1B2803DD0846407A1B28DC
:108B000017DC8F48C07A7D2813DC894800780F284D
:108B100013DD8B48C07A0A280FDD8948807A0A283D
:108B20000BDD8748407A0A2807DD8548007A0A2845
:108B300003DD01208349087002E0002081490870AC
:108B400000207A4908707A4908707F480078012827
:108B50007ED178490968781A3C2103F09DFD80B2E6
:108B60000390039800280EDD0020704908706948C2
:108B70008189039808186749888108460189039804
:108B80000818644908816C4800783B287BDD3C214B
:108B90006948007803F096FDC8B267490870002064
:108BA0006A4908706A4908705E49087024E06448A0
:108BB0005C490978405C082804DD64480078401C62
:108BC000624908705E4857490978405C192805DDFC
:108BD0005F480078401C5E49087008E058485149D9
:108BE0000978405C012802DA0020594908704D4894
:108BF0000078401C4B4908704A4800780C28D6DBA6
:108C00005448007802287BD142488088401C414962
:108C1000888051480078401C4F4908704F480078C0
:108C2000401C4E4908704648C07A7D2807DC4848F9
:108C30000078022803DC4A48007800280BD0002086
:108C4000454908704549087046480078401C00E0D6
:108C5000C5E1444908703A48C07A0F2803DC40480F
:108C60000078002802D000203C4908700020FFF75F
:108C70007EFE282D03DC394800780A2804DA022019
:108C80002349087090E0AEE0012032490870204985
:108C9000087000203349087000243C21384603F056
:108CA000FBFC2D490978411A2F480078401E4000EE
:108CB0002E4A1268105AC010401D814211D23C2128
:108CC000384603F0E9FC24490978411A264800781F
:108CD000401E4000254A1268105AC010401D401A1C
:108CE00084B23C21384603F0D7FC1B490978401A6E
:108CF0000019C00006490978401881B21A4837E0C7
:108D000072E00000AA250020DF250020BA250020FF
:108D1000BB250020B05C0020B0250020BD25002030
:108D2000BE250020CC250020C4250020BF25002022
:108D3000C0250020C8250020C1250020BC2500201A
:108D4000BE5C0020DC250020D8250020CD25002099
:108D5000CE250020D9250020DA250020DB250020A3
:108D6000DD250020DE250020D1250020D42500208F
:108D700002780078401CFE4B18705000FD4A1268C3
:108D80001152FD488088FD490978091B401AFA49AB
:108D900088800846C088F9490978091B4018F649B7
:108DA000C8800020F5490870F5481CF087F8F448A1
:108DB00080780002F24949784018F149C880F148AA
:108DC0000078052803DCFF205F3085420BDDEE488C
:108DD0000078012807D10420EC490870E648408952
:108DE000401EE549488104E2E948007801287DD128
:108DF000E148C088401CE049C880E6480078401C33
:108E0000E4490870E448007803280BDCFF200F30A9
:108E1000854207DCE1480078002803D1E04800786B
:108E2000002831D00020FFF7A2FD0220D8490870A9
:108E3000D64908703C21384603F02EFC401EC00085
:108E4000D2490978401881B2C94802780078401C9C
:108E5000C74B18705000C74A126811520020C7490A
:108E60000870CC4908700120C6490870C248408982
:108E7000401CC14948810846C088401EC880084639
:108E80008088401C8880B4E1C648C07A082802DD8A
:108E90000020C0490870BF480078112803DA01207B
:108EA000BA490870A5E10020BF49087009E0002018
:108EB000BC49BD4A12788854BB480078401CBA4966
:108EC0000870B94800780C28F1DB0020B049087020
:108ED000AE49087000243C21384603F0DDFB113810
:108EE000A3490978491E4900A24A00E039E0126806
:108EF000515AC9100C3188420FD23C21384603F038
:108F0000CBFB11389A490978491E4900994A1268E1
:108F1000515AC9100C31081A84B23C21384603F06A
:108F2000BBFB11380019C00098490978401881B27C
:108F30008F4802780078401C8D4B187050008D4A85
:108F4000126811528C48C0881121091B401A8A49A5
:108F5000C880084600891121091B401886490881EC
:108F600047E18B48007800288DD183480089401C58
:108F7000814908818D4800788D490978884205DC4F
:108F8000232D03DC8648007800288BD001208049FF
:108F900008707A49087000207E49087001207B49DA
:108FA00008703C21384603F077FB401EC00077492B
:108FB0000978401881B26E4802780078401C6C4BEA
:108FC000187050006B4A126811526B480089401E9D
:108FD000694908810846C088401CC88009E1754875
:108FE0000078FF28BCD1744800783B28B8DD62487F
:108FF0004088401C604948803C216F48007803F05D
:1090000061FBC8B26C4908705C480078401C5B4941
:10901000087060480078401C5E4908706148C07A5A
:10902000192803DC5E480078002802D0002053494C
:1090300008705C48C07A082803DC5948007800288A
:1090400002D00020534908700020FFF790FC142D37
:1090500003DC504800780C2803DA03204B490870E1
:109060003CE001205349087049490870474908709D
:1090700000244148418841480078C01C814206DAFA
:109080003E480078C01C3C494988401A84B23A489E
:1090900040883A490978091B401A374948800846F0
:1090A000C08836490978091B40183349C8803C21DB
:1090B000384603F0F1FA31490978401A0019C00026
:1090C00032490978401881B2294802780078401C5A
:1090D000274B18705000274A1268115228481BF07D
:1090E000EDFE274880780002254949784018244938
:1090F000C88021484088782806DD23480078012868
:1091000002D10420214908702C480078012870D130
:1091100000202B4908702B490870234908701EE075
:10912000204821490978405C0A2805DD2448007858
:10913000401C2349087002E00020214908701948AA
:1091400019490978405C032804DD1E480078401C5A
:109150001C49087014480078401C134908701248D4
:1091600000780C28DCDB16480078062830DD2BE080
:10917000D1250020D4250020B05C0020DA25002075
:10918000B0250020DE250020B8250020BB250020CA
:10919000D9250020DB250020CE250020DC2500205D
:1091A000DD250020BE5C0020CC250020CD25002040
:1091B000CF250020D8250020C1250020AA25002089
:1091C000E0250020E1250020FF204130854203DC1E
:1091D000D24800780A2805DD0420D149087005200E
:1091E000D0490870D048C088002802DD0220CD494F
:1091F0000870CE4800783B2802DD0420C84908707A
:10920000CB48007800285BD0C648007805280DD0F0
:10921000C5488089192803DAC348C088012805DBBE
:10922000C1480089FF21E131884206DD0020C149A3
:109230000870BC490870C0490860BB48C088002855
:1092400028DDB7480078022804D1B7484089401E7D
:10925000B5494881B4480089C01064225043B24ADD
:10926000D288D21050235A438218AF484088C01089
:109270001E2358431018AC4A9288D21013019A1A30
:1092800080180090A8488089C110009803F01AFA4D
:10929000A5490870A4480078A34949894A0089185B
:1092A000884209DDA04800789F49897A4A008918D8
:1092B000401A9D49087004E000209B49087000E0B6
:1092C00000BF9E48076000209D4908700EE09C4842
:1092D00000784000315A9A4800784000994A126854
:1092E000115297480078401C9549087094480078BE
:1092F0000328ECDB0020924908700EE090480078CB
:109300004000305A800100B28D49097849007052FE
:109310008B480078401C8A490870894800780328E7
:10932000ECDB05B0F0BD70B504460D460120804968
:10933000087029462046FFF762FB70BD10B5034652
:1093400081480078FF2807D1196003205860002069
:109350007D4C2070012010BD7B480078FE2805D18F
:109360000020754C20606F4C2070F4E77648007840
:109370006E4C2478A0421ADA734800784000734C8F
:109380002468205AC0103C246043401818606E487E
:10939000007840006D4C2468205C8007800F586086
:1093A00069480078401C684C20700120D3E75F4872
:1093B000007800280BDD1A6063480078401E4000EA
:1093C000624C2468205C8007800F586002E01A60BD
:1093D00003205860FE205C4C20700120BBE7002079
:1093E0005349087003204E49087000204E490881F7
:1093F0008880C8804880087088814881142054493A
:1094000008703C20534908700020534908705348A5
:109410004C49086000204A4908700BE00020484988
:1094200009784900474A1268505245480078401C64
:1094300043490870424800780328EFDB00203F4989
:1094400008603F49087009E0142045493C4A1278F9
:1094500088543B480078401C3949087038480078E7
:109460000C28F1DB00203F4908703F4908700120BB
:109470003E4908703E480078012803D1084600782C
:10948000401E0870FF2030490870002027490870EE
:1094900038482E4908600020294908700BE0002058
:1094A000274909784900294A12685052244800780F
:1094B000401C23490870224800784028EFDBFF2039
:1094C0002D49087002202D49087000202C49087091
:1094D00014480078012815D105202A490870062073
:1094E0001749087009E000201D49154A1278885470
:1094F00013480078401C12490870114800780C2865
:10950000F1DB02E000201F49087000201E490870AE
:109510001E4908700120074908707047E1250020A6
:10952000BB250020AA250020B05C0020D12500200A
:10953000BC250020DF250020AC250020C825002008
:10954000CC250020C4250020D0250020D4250020D3
:10955000BF250020C0250020C1250020A425002013
:10956000BE5C0020CD250020CE250020CF25002088
:10957000BA2500200C5C0020D8250020D925002029
:10958000DA250020DB250020DE250020DD25002057
:109590000020FA4908700BE0FF20F949F74A002340
:1095A000D356C85410460078401C40B2114608708B
:1095B000F248002141560629EEDB0020F1490860FF
:1095C000704710B5F0490978491CEF4A11701146EF
:1095D00009783C2972D1ED490978FF2902D100218F
:1095E000EA4A1170EA490978002905D1E949097860
:1095F000491CE84A117002E00021E64A1170E54971
:1096000009780A2919DDFF21E04A11700021E14A99
:109610001170DA4A11700BE0FF21D94AD74B0024B0
:109620001C57115519460978491C49B21A46117040
:10963000D24900228A56062AEEDBD7490978282922
:1096400017DD0021CD4A11700BE0FF21CC4ACB4B36
:1096500000241C57115519460978491C49B21A466D
:109660001170C64900228A56062AEEDB0021C54A3F
:1096700011600021C14A11700EE0C14ABF4B0021A8
:109680005956491C515C00241C571155194609783C
:10969000491C49B21A461170B84900228A56052A57
:1096A000EBDBBB490978B64AB44B00241C57115573
:1096B0000021BA4A11801A4611701CE082E0B049BC
:1096C000AE4A0023D356C95C0E2904DD7D21C900B2
:1096D000B24A118014E0AA49A84A0023D356C95CB3
:1096E000AE4A12888918AD4A1180A4490978491CEC
:1096F00049B2A24A1170A14900228A56062ADEDB2D
:1097000000BF09F061FFA54909882A290BDB9D49A3
:109710000968411AF02948D99A490968411A4B2227
:109720005201914241D296494978954A92788918D6
:10973000934AD2788918924A12798918904A5279B4
:109740008918002933DD00218C4A117027E08C49EB
:109750008A4A0023D356C95C03291ADA01218B4AAD
:10976000117000218B4A1170844A11700BE0FF21A7
:10977000834A824B00241C57115519460978491C0D
:1097800049B21A4611707D4900228A56062AEEDB3C
:109790000AE07A490978491C49B2784A1170774938
:1097A00000228A56062AD2DB01E0764908607C490D
:1097B0000978794A11700021734A1170784A117042
:1097C000734A117010BD774909780A290FDA754973
:1097D00009780918734A1170114609780A290BDBB8
:1097E00071494968127889186F4A516004E06E49DE
:1097F000496809186C4A5160704710B500215F4AEA
:1098000011700BE00621694A5C4B00241C5711556E
:1098100019460978491C49B21A4611705749002265
:109820008A56042AEEDB0021614A11706149624ABE
:10983000118051800021614A1180614A1170614A92
:1098400011706421604A11700821604A1170002172
:109850005F4A1180518008215E4A118010BD5E4828
:10986000007802280DD15C480069C82807DB5A48F7
:1098700080683C2803DB5848C0683C2813DA002085
:1098800070475548007801280DD15348C0686428B6
:1098900007DB514880681E2803DB4F4800691E28FB
:1098A00001DA0020ECE70120EAE700204B490870CC
:1098B0003249087018E03D49304A00201056401CDB
:1098C000085C0023D356C8540846114600228A5625
:1098D000805C424909784018404908702748007860
:1098E000401C40B2254908702448002141560329F4
:1098F000E1DB2F4800782D49204A0023D356C85475
:10990000364800782A4909784018344908700846D2
:10991000007880100870704710B50022304B1B682B
:109920009A80164B1A7013E02D4A12689288134BD6
:1099300000241C5763002B4CE35AD21812B2284B58
:109940001B689A800D4A1278521C52B20B4B1A7047
:109950004A1E0A4B00241C57A242E5DC204A12682A
:109960009288214B1B785B00C35AD21812B21C4B51
:109970001B689A800022014B1A7061E015260020B6
:1099800034260020AC25002032260020AA25002005
:1099900033260020402600203C2600203A260020C6
:1099A0003D260020002600208C5C0020022600209E
:1099B00001260020FF7F0000102600200E26002038
:1099C0000D2600200C260020312600201426002021
:1099D00022260020262600209C5C0020172600203E
:1099E000EC2500200626002030260020FE4B002219
:1099F0009A56921C5200FD4B1B689A5AFA4B00244F
:109A00001C576300FA4CE35AD31AF74C0022A256B3
:109A1000521C062462431218F64C24786400125B30
:109A20009A1813B2F04C0022A256D21C5200EF4CEE
:109A30002468A352EC4A1278521C52B2EA4B1A70B4
:109A40004A1EE94B00241C57A242CFDC1A46117073
:109A50002DE0E54B00229A56521A06235A4312185B
:109A6000E44B1B785B00D35ADF4C0022A256521CF9
:109A70005200DE4C2468A25AD31ADB4C0022A256B4
:109A8000062462431218DB4C24786400125B9A1897
:109A900013B2D54C0022A256921C5200D34C24681B
:109AA000A352D14A1278521C52B2CF4B1A70CE4AEE
:109AB0000023D356202BCCDB0022CB4B1A7018E0AE
:109AC0002122521AC84B00241C57121906235A434C
:109AD0001218C84B1B785B00D25AC34B00241C578A
:109AE0006300C34CE252C04A1278521C52B2BE4BC1
:109AF0001A704A1EBC4B00241C57A242E0DC042909
:109B00001CD102221A7014E0B74A0023D3565A001F
:109B1000B64B1B689A5E9210B34B00241C5763002F
:109B2000B24C2468E252B04A1278521C52B2AE4B88
:109B30001A70AD4A0023D356222BE5DB10BD10B5B9
:109B40000021AD4A11702CE00021A74A11701DE0E0
:109B5000A54A00215156062251430918A64A00235E
:109B6000D3565A00895A89010AB29F4B002159568F
:109B7000062359430918A04B00241C576300CA52FE
:109B800099490978491C49B2974A117096490022AF
:109B90008A56202ADCDB98490978491C49B2964A42
:109BA0001170954900228A56032ACDDB10BD70B58D
:109BB0000546002601245BE190480078401C8F494F
:109BC00008706000295E601E4000285E81424BDB09
:109BD0006000295E601C4000285E814244DB8748AB
:109BE00000783C2807DD0026002085490870012008
:109BF000FFF703FE3AE183480078002807D16000B0
:109C0000285A8149088001207E4908700BE06000D5
:109C1000285E7D4900228A5E904203DD6000285A5A
:109C2000088000E022E175480078022800DA1DE192
:109C300076480078012800D118E175490220085EB5
:109C4000714900228A5E101A72490860084600684D
:109C50007149098888427BDD6E4800680828FADD72
:109C600001206A49087001E16000295E601E400021
:109C7000285E81426CDC6000295E601C4000285E2A
:109C80008142F7DC5D4800781E280BDD00260120AC
:109C9000FFF7B3FD594800783C2802DD0020584901
:109CA0000870E3E055480078022800DADEE0600042
:109CB000285A574908805548007802280BD1085E79
:109CC00000228A5E904205DD084600884880002018
:109CD0004C490870CAE04E490020085E02228A5EA4
:109CE00090420EDD0846008847490988081A4B490A
:109CF00008804748408844490988081A484908802C
:109D00000DE04348408840490988081A43490880C3
:109D10003F4800883C490988081A414908803E4864
:109D2000008840103E490988884203DC3C4800888E
:109D300008280EDA36490220085E00228A5E904228
:109D400005DD08460088488000202F4908808DE006
:109D50008BE03248008808280DDA2D490220085E81
:109D600000228A5E904205DD084600884880002077
:109D7000244908707AE02A490988C80027490988D7
:109D800002F0A0FC00B227490880234800880101A6
:109D9000081A23490988491040180003000C1E497D
:109DA0000880FFF782FD1548007805283CDD134840
:109DB00000783C2838DA1B480021415E282933DA34
:109DC0001048007800282FD0701CC6B200200F4920
:109DD00008700A4908700E4800880D494880002024
:109DE0000849087042E0000015260020EC250020FC
:109DF00006260020302600201626002001260020FE
:109E0000002600200D2600200E2600200C26002013
:109E1000222600201C26002026260020282600209E
:109E20002A2600201A260020FE480078052806DA97
:109E300000260020FC4908700120FFF7DEFCFB49EA
:109E40000220085E00228A5E90420EDBF848002164
:109E5000415E142909DD0020F6490870F3480088A6
:109E6000F24948800020F449087000BF601CC4B269
:109E7000212C00DAA0E6304670BD70B505460026FC
:109E800001243AE1EB480078401CEA490870600080
:109E9000295E601E4000285E81424BDB6000295E27
:109EA000601C4000285E814244DBE24800783C2888
:109EB00007DD00260020DC4908700120FFF79DFC2B
:109EC00019E1DD480078002807D16000285ADB49F5
:109ED00008800120D84908700BE06000285ED7494F
:109EE00000228A5E904203DD6000285A088000E06C
:109EF00001E1D0480078032800DAFCE0D04800787F
:109F0000012800D1F7E0CF490220085ECB490022AA
:109F10008A5E101ACC49086008460068CB49097867
:109F200088427BDDC84800680828FADD0120C44962
:109F30000870E0E06000295E601E4000285E8142FB
:109F40006CDC6000295E601C4000285E8142F7DC0A
:109F5000B84800781E280BDD00260120FFF74DFCD5
:109F6000B44800783C2802DD0020AF490870C2E008
:109F7000B0480078032800DABDE06000285AB149F3
:109F80000880AF48007802280BD1085E00228A5E64
:109F9000904205DD0846008848800020A6490870E8
:109FA000A9E0A8490020085E02228A5E90420EDDE8
:109FB00008460078A1490978081AA5490870A148FF
:109FC00080789E490978081AA24908700DE09D48DA
:109FD00080789A490978081A9D490870994800784C
:109FE00096490978081A9B490870984800784010EB
:109FF00098490978884203DC9648007808280EDAE8
:10A0000090490220085E00228A5E904205DD0846E3
:10A01000008848800020894908806CE06AE08C480C
:10A02000007808280DDA87490220085E00228A5E3F
:10A03000904205DD08460088488000207E4908706F
:10A0400059E084490978C8008149097802F03AFB4F
:10A0500000B2774908807D4800780101081A7D49DF
:10A060000978491040180005000E78490870FFF77C
:10A070001CFC7048007806281BDD6E4800783C28E0
:10A0800017DA6B480021415E282912DA6A48007805
:10A0900000280ED0701CC6B20020694908706549BE
:10A0A0000870684800886749488000206249087045
:10A0B00021E05C480078062806DA002600205A498C
:10A0C00008700120FFF799FB5E490220085E00221C
:10A0D0008A5E90420EDB56480021415E142909DD5C
:10A0E000002054490870574800885649488000208D
:10A0F0005149087000BF601CC4B2212C00DAC1E6CF
:10A10000304670BD70B505460026012483E14948FC
:10A110000078401C474908704F480078401C4E4961
:10A12000087008460078FA2801DDFA2008706000FF
:10A13000295E601E4000285E81425DDB6000295E72
:10A14000601C4000285E814256DB3A4800783C287B
:10A1500007DD00260020344908700120FFF74DFB81
:10A1600057E135480078002807D16000285A334964
:10A1700008800120304908700BE06000285E2F49FC
:10A1800000228A5E904203DD6000285A088000E0C9
:10A190003FE128480078032800DA3AE128480078AF
:10A1A000012800D135E127490220085E2349002219
:10A1B0008A5E101A24490860084600682349097815
:10A1C00088426EDD204800680828FADD701CC6B29F
:10A1D00001201B490870FFF768FB1248007805282A
:10A1E00006DA00260020104908700120FFF705FB61
:10A1F0000020104908700CE16000295E601E4000DC
:10A20000285E81424DDC6000295E601C4000285EB3
:10A210008142F7DC074800781E2829DD002601204E
:10A220001CE0000017260020002600202226002027
:10A230001A260020012600200D2600200E260020D0
:10A240000C260020102600201C26002014260020AA
:10A25000182600201926002031260020FFF7CDFA0D
:10A26000FE4800783C2802DD0020FD490870D0E05F
:10A27000FA480078032800DACBE06000285AF94950
:10A280000880F948007802280CD1085E00228A5E16
:10A29000904205DD0846008848800020F349087098
:10A2A000B7E0B5E0EF490020085E02228A5E9042E6
:10A2B0000EDD08460078EE490978081AED49087065
:10A2C000E8488078EA490978081AEB4908700DE0F7
:10A2D000E4488078E6490978081AE6490870E148B8
:10A2E0000078E3490978081AE3490870E3480078E0
:10A2F0004010E1490978884203DCDF4800780828EB
:10A300000DDAD8490220085E00228A5E904205DDFF
:10A310000846008848800020D549088079E0D54863
:10A32000007808280DDACF490220085E00228A5EF4
:10A33000904205DD0846008848800020CB4908701F
:10A3400067E0CD490978C800CA49097802F0BAF92E
:10A3500000B2CB490880C94800780101081AC649F3
:10A360000978491040180005000EC4490870FFF72D
:10A370009CFABA480078062829DDB84800783C28BD
:10A3800025DABF480021415E282920DAB748007845
:10A3900000281CD0701CC6B20220B34908700020EF
:10A3A000AE490870AF480088AE4948800020AF49E8
:10A3B0000870B4480078132805DAB34800780028FC
:10A3C00001D1701EC6B20020AE49087021E0AF482E
:10A3D0000078052806DA00260020A149087001202F
:10A3E000FFF70BFA9F490220085E00228A5E904226
:10A3F0000EDBA3480021415E142909DD00209749A6
:10A40000087098480088974948800020974908704C
:10A4100000BF601CC4B2212C00DA78E6304670BD63
:10A4200000219B4A11709EE0994900228A565100F2
:10A43000984A515A964A0023D3565A00964B99523D
:10A44000002293498B565900944B1B685A529049ED
:10A450008B569B008C490831CA500021904A1160EC
:10A46000904A117020E08F4A002151560622514334
:10A470000918874A0023D3565A00895A844A002370
:10A48000D3565A00854B1B689A5A891809B2804ADC
:10A490000023D3565A00814B1B6899528149097891
:10A4A000491C49B27F4A11707E4900228A56202AEF
:10A4B000D9DB774900228A565100784A1268515EEA
:10A4C0004911734A0023D3565A00724B995270496E
:10A4D00000228A5651001A46515E6D4A0023D35617
:10A4E0005A006D4B9A5E89184A1069490023CB5671
:10A4F0005B006549891CCA5200216A4A11701EE03E
:10A50000684A00215156062251430918604A002327
:10A51000D3565A00895E5E4A0023D3565A005D4BDB
:10A520009A5E891A4943C9105D4A126889185C4AC3
:10A5300011605C490978491C49B25A4A117059495D
:10A5400000228A56202ADBDB55490A68504900233D
:10A55000CB569B004C490831CA504D490978491CDB
:10A5600049B24B4A11704A4900228A56032A00DA3E
:10A570005AE700214C4A11804A4A11702DE049499E
:10A5800000228A565100434A515E002907DA4549A4
:10A5900000228A5651003F4A515E494205E0414936
:10A5A00000228A5651003B4A515E3D4A11601146D5
:10A5B00009683D4A0023D35E994208DD384909887D
:10A5C00009B21180374A002151562F4A117035497E
:10A5D0000978491C49B2334A1170324900228A561F
:10A5E000032ACCDB7F21C943304A11707F21304AD6
:10A5F000117000212B4A11702DE02A4A002151567A
:10A6000006225143415E294A0023D356994208DD70
:10A61000244A0021515606225143415C49B2234A43
:10A620001170204A0021515606225143415E204AB2
:10A630000023D356994208DA1A4A002151560622BD
:10A640005143415C49B21A4A117016490978491CB4
:10A6500049B2144A1170134900222BE00126002050
:10A6600000260020102600200C2600200D260020A9
:10A670000E2600201826002019260020142600206F
:10A680001A260020312600209C5C0020172600207E
:10A6900016260020F4250020FA250020F0250020B1
:10A6A0001C26002015260020202600203E26002003
:10A6B0003F2600208A56202A9FDBFE4A0021515661
:10A6C000FD4A0023D356C91A032904DDFB49097842
:10A6D000491CFA4A1170FA4900228A5E002A03DAFC
:10A6E00000228A5E514202E0F54A0021515E36297D
:10A6F00012DDF34904228A5E002A03DA04228A5E0C
:10A70000514202E0EE4A0421515E122904DAED4979
:10A710000978491CEB4A1170704710B5FEF7E3F851
:10A72000E948EA4908600020E94948700870E749AB
:10A7300009680880E54909684880E648E6490860F4
:10A740000020E649087024E00021E4484256500009
:10A75000E14A126811520020E0490A565100D84AD5
:10A760005052DE490A565100DD4A50520021DB4862
:10A7700042565200D648801C8152D8484256920018
:10A78000D34808308150D5480078401C40B2D349A6
:10A790000870D248002141560329D5DB0020CF495B
:10A7A00008700AE00020CF49CC4A1356C85410461E
:10A7B0000078401C40B211460870C848002141563C
:10A7C0000429EFDB0020C8490870C8490870C34954
:10A7D00008700BE00620C649C04A0023D356C8546F
:10A7E00010460078401C40B211460870BB4800215A
:10A7F00041560429EEDB0020B84908700BE0002028
:10A80000B6490A565100BB4A5052B4480078401C21
:10A8100040B2B2490870B148002141560329EEDB2D
:10A820000020B5490870B5490870B548B549088099
:10A8300048800020B4490880B4490880488001203D
:10A84000B3490870487088706420B24908700120CC
:10A85000B14908700020B1490870B1490870B14988
:10A8600008603C20B0490870002096490870934960
:10A8700008707F20C0438F4908707F208E49087080
:10A880000020AA490870AA490880944908700BE082
:10A89000FF20A849914A0023D356C8541046007897
:10A8A000401C40B2114608708C48002141560629D0
:10A8B000EEDB10BD70B504460D46B420005B0028E9
:10A8C00013D1B620005B00280FD1B820005B002810
:10A8D0000BD1AE20015BB4200153B020015BB62048
:10A8E0000153B220015BB8200153BA20005B00285D
:10A8F00013D1BC20005B00280FD1BE20005B0028D4
:10A900000BD1B420015BBA200153B620015BBC20FF
:10A910000153B820015BBE20015300208649087016
:10A920002BE000206D4908701CE06C49002008569F
:10A93000062148430019804900228A565100405E92
:10A940008111664A002010560622504300197A4AA7
:10A950000023D3565A00815260480078401C40B210
:10A960005E4908705D48002141562029DDDB7248B0
:10A970000078401C40B2704908706F480021415671
:10A980000329CEDB2046FFF74BFD6C481AF096FA00
:10A990006A48807800026949497840186749C88048
:10A9A0000846C08866490988884205DD6348C08832
:10A9B00064490988884211DB614800886149098837
:10A9C00088420DDD5D48C0885D490988884205DC04
:10A9D0005A48C0885B490988884201DAFEF7F1FDD0
:10A9E00000203E4908700FE03E493C4A00201056C6
:10A9F000401C095C3B480023D356C15410460078E4
:10AA0000401C40B2114608703448002141560329C9
:10AA1000EADB2F488168C06809182D4800690818CA
:10AA2000642806DA01202F492C4A0023D356C85443
:10AA300004E000202B49294A1356C8540020274916
:10AA4000087010E02748254900228A56805C0028BB
:10AA500003DD2046FFF773F870BD20480078401CE6
:10AA600040B21E4908701D48002141560429E9DB07
:10AA700017480078002807D115488068322803DA83
:10AA80002046FFF75CF8E7E711488168C0680818BE
:10AA90002D49884202DD01200D4908700C49002033
:10AAA000085601228A56904272D00846002141562B
:10AAB00048004BE03E2600203F26002033260020A1
:10AAC000F42500203D2600200C5C0020EC25002011
:10AAD0009C5C0020A4250020F025002015260020E5
:10AAE000FA250020E725002000260020012600206E
:10AAF00002260020062600200C2600200D2600201D
:10AB0000FF7F0000102600200E26002022260020B5
:10AB1000E4250020312600203026002032260020A7
:10AB2000AA250020AC2500203C260020402600203D
:10AB30003A2600203426002016260020B0250020CA
:10AB4000A0250020A2250020F0550000FE49085E47
:10AB5000002807DAFD48002141564800FA49085EFE
:10AB6000404205E0F948002141564800F649085E98
:10AB7000F64901228A565100F34A515E002908DA4B
:10AB8000F24901228A565100EF4A515E494206E0DD
:10AB900077E0EE4901228A565100EB4A515E401A95
:10ABA0002DD5EA48012141564800E749085E0028B2
:10ABB00007DAE648012141564800E349085E404271
:10ABC00005E0E248012141564800DF49085EDF49BF
:10ABD00000228A565100DC4A515E002907DADB491F
:10ABE00000228A565100D84A515E494205E0D749B1
:10ABF00000228A565100D44A515E401A2CE0D348B4
:10AC0000002141564800D049085E002807DACF48A5
:10AC1000002141564800CC49085E404205E0CB483F
:10AC2000002141564800C849085EC84901228A5699
:10AC30005100C54A515E002907DAC44901228A56EB
:10AC40005100C14A515E494205E0C04901228A567D
:10AC50005100BD4A515E401A202808DABC484068BD
:10AC6000002804D0B9484078B849087009E00020AD
:10AC7000B84908700120FEF7C0FDB4480078B34918
:10AC80004870B5484078B4490870084680784870E4
:10AC9000AE48C068962802DA0020887002E00120E1
:10ACA000AD498870FEF7DBFD002806D10120FEF7D4
:10ACB000A4FD2046FEF743FFCEE6A4480221415EF4
:10ACC000002903DA0221415E484202E09F49022046
:10ACD000085E3C285FDA9D480421415E002903DAC2
:10ACE0000421415E484203E098480421415E084641
:10ACF0003C2850DA95480621415E002903DA0621F6
:10AD0000415E484203E091480621415E08463C28E6
:10AD100041DA8E488168C0680818904988423ADA5A
:10AD20008A480621415E002903DA0621415E494234
:10AD300002E086480621415E84480222825E002AA3
:10AD400003DA0222825E504202E0804A0220105E54
:10AD50000A3081421FDA7D480221415E002903DA70
:10AD60000221415E484202E078490220085E014625
:10AD7000143176480422825E002A03DA0422825EBD
:10AD8000504203E071480422825E1046814202DD97
:10AD900000206E4908706D480078002878D16E4810
:10ADA000007800280AD16C484078002806D16A480B
:10ADB0008078002802D16A4908700DE06648007862
:10ADC000012809D164484078012805D1624880787B
:10ADD000012801D1624908705C480221415E0029C6
:10ADE00003DA0221415E484202E058490220085E2F
:10ADF0003C2820DA55480421415E002903DA042169
:10AE0000415E484203E051480421415E08463C2827
:10AE100011DA4E480621415E002903DA0621415E1F
:10AE2000484203E049480621415E08463C2802DAD0
:10AE300000204B4908704A48007800280AD10421B4
:10AE40002046FEF769FD47480068FFF716F84649B7
:10AE5000086009E004212046FEF75EFD41480068D5
:10AE6000FFF750F9404908603E48006840300088CC
:10AE70003C49096808803B480068403040883949AF
:10AE80000968488038490878FEF79DFCA9E0FFE78B
:10AE90002E480078012803D02C48007802286DD174
:10AEA0002A4800782E490870304840782F490870A9
:10AEB00008468078487025488168C06808182C4981
:10AEC000884203DD01202949887002E000202749DB
:10AED000887000202749087063E0244825490978D4
:10AEE000405C012858D100202349087017E022490E
:10AEF00000200856062148430019194909784900DD
:10AF0000415A1D4A00201056801C4000154A126804
:10AF1000115219480078401C40B217490870164871
:10AF2000002141562029E2DB0E480068FEF73FFE73
:10AF30000D4908600B4800684030008809490968DD
:10AF40000880084800681AE0F42500209C5C002076
:10AF50008C5C002000260020E42500201027000043
:10AF600030260020EC2500201C2600202C26002066
:10AF7000A86100002F2600201526002031E0403077
:10AF800040883F49096848803E490878FEF71BFC25
:10AF90002046FEF7D4FD5FE53B480078401C3A4967
:10AFA000087039480078022897DB04212046FEF714
:10AFB000B3FC33480068FEF760FF32490860304850
:10AFC0000068403000882E49096808802C480068D5
:10AFD000403040882A49096848802A490878FEF7A5
:10AFE000F2FB2046FEF7ABFD00BF35E570B5044629
:10AFF0000D460020254908703CE0244900200856F1
:10B0000006214843215A2248007806225043214A0B
:10B0100011521E4900200856062148430019418854
:10B020001B480078062250431A4A8018418017496D
:10B0300000200856062148430019818814480078EA
:10B0400006225043134A8018818011480078401C22
:10B050000F490870084600781F2805DD0020087099
:10B0600020211046FFF726FC08480078801C40B2DB
:10B07000064908700548002141562029BDDB70BDF6
:10B08000EC2500201C2600202F260020152600205D
:10B0900041260020CA5C00200021FE4A11702FE0EA
:10B0A000FC490978491C06225143FB4A525AF94986
:10B0B000097806235943F84B5A52F6490978491C36
:10B0C000062251431A4689184A88F249097806230C
:10B0D0005943F14BC9184A80EE490978491C0622A8
:10B0E00051431A4689188A88EA4909780623594340
:10B0F000E94BC9188A80E7490978491CE54A11706B
:10B10000E44909780729CBDB0288E249097806235C
:10B110005943E14B5A524288DE4909780623594384
:10B12000DD4BC9184A808288DA49097806235943D9
:10B13000D94BC9188A80D94909881A4612888A1AAF
:10B14000D449097806235943D34B595A511809B2A7
:10B15000D24A1180114649881A4652888A1ACD4926
:10B16000097806235943CC4BC9184988511809B2AC
:10B17000CA4A5180114689881A4692888A1AC54956
:10B18000097806235943C44BC9188988511809B254
:10B19000C24A9180114600228A5ED1100180BF49C7
:10B1A00002228A5ED1104180BC4904228A5ED110FD
:10B1B0008180704730B50B46002B16D1B84C2468FF
:10B1C0006400B74D2C600224045F002C03DA0224D3
:10B1D000045F644201E00224045F4B2C16DDB04C96
:10B1E0002468641CAE4D2C6010E00022AC4C216839
:10B1F00003E04C1E2140541CE2B20029F9D10C2A74
:10B2000001DD012400E00024A64D2C7030BDA648CD
:10B210000078704700209F4908701CE00020A34977
:10B2200008700FE000219B480078062250439A4A9C
:10B2300080189E4A1278520081529C480078401C27
:10B240009A490870994800780328EBDB9148007808
:10B25000401C904908708F4800780828DEDB0020E9
:10B260008C49087014E000208A49097849008B4A0B
:10B2700050528849097849008D4A505285490978C9
:10B2800049008C4A505283480078401C814908701C
:10B29000804800780328E6DB00208149086001200F
:10B2A0008549087000207F49087084490870FF2094
:10B2B0008349088040428349088000208249087001
:10B2C00082490870734908701CE0002077490870B3
:10B2D0000FE000216F480078062250437C4A801816
:10B2E000724A12785200815270480078401C6F49AF
:10B2F00008706E4800780328EBDB66480078401C35
:10B3000064490870634800780C28DEDB002071492E
:10B310000880714908807149088071490870FE20D1
:10B32000C043704908807049088000206F49087048
:10B330006F4908806F4908806F4908805A49087032
:10B340006E4908706E490870FE20C0436D49088040
:10B35000FF206D49088040426C49088000206C49FC
:10B3600008706C4908704B4908701CE000204F4978
:10B3700008700FE000214748007806225043664AD3
:10B3800080184A4A12785200815248480078401C7E
:10B3900046490870454800780328EBDB3D480078B3
:10B3A000401C3C4908703B4800780828DEDB002040
:10B3B0005A4908805A4908805A490880704710B590
:10B3C000002955D13B4B02229A5E394B02241C5F67
:10B3D000A24227DA374A535E354C625E521E9342D0
:10B3E00020DD23465A5E364B5C5EA24202DA304ACA
:10B3F00012881A802E4B02229A5E324B00241C5F68
:10B40000A24202DD2A4A52881A802C4A1278521C23
:10B410002A4B1A701A461278022A02DD0022264BA5
:10B420001A70ACE0254A1278092A14DD214B022259
:10B430009A5E244B00241C5FA21A222A0BDD1D4BAE
:10B4400000229A5E1E4B00241C5F121B112A02DD93
:10B4500001221D4B1A70FF22194B1A805242194BC0
:10B460001A800022154B1A700122134B1A7086E0C5
:10B47000104B02229A5E0E4B02241C5FA24261DA3C
:10B4800002229A5E0F4B00241C5FA2424DDD084A47
:10B49000528849E08D2600208A5D00205026002039
:10B4A000582600205C2600208C2600208E260020B6
:10B4B0004A260020442600205D2600205E2600202B
:10B4C0006026002062260020682600206A260020D0
:10B4D000BA5D00206C2600206E2600207026002019
:10B4E0005F260020642600206626002069260020B2
:10B4F0007226002074260020762600207C2600205C
:10B500007D2600207E260020802600208226002026
:10B510008426002085260020025E0020862600204A
:10B52000882600208A2600201A80F74A1278521CAA
:10B53000F54B1A701A461278022A20DD0022F34BCE
:10B540001A701CE0F04A1278092A0BDDF04B022237
:10B550009A5EF04B00241C5FA21A462A02DD0122EB
:10B56000ED4B1A70FE22D243EA4B1A80FF22EB4BBE
:10B570001A800022E44B1A700122E44B1A7010BDAD
:10B5800010B5002953D1E24B02229A5EE44B02240B
:10B590001C5FA24225DADE4B5A5EE14B5C5EA242A2
:10B5A0001FDA5A5EDF4B5C5EA24202DDDC4A128883
:10B5B0001A80DB4B02229A5EDB4B00241C5FA24206
:10B5C00002DDD74A52881A80D84A1278521CD74BCB
:10B5D0001A701A461278022A6FDD0022CB4B1A70BD
:10B5E0006BE0D24A1278092A14DDC94B00229A5E18
:10B5F000CC4B00241C5FA21A222A0BDDC44B022272
:10B600009A5EC94B00241C5FA21A112A02DD012296
:10B61000C74B1A70FE22D243C24B1A80C24B1A800B
:10B620000022C24B1A700122B84B1A7045E0B84B89
:10B6300002229A5EBA4B02241C5FA24221DA002247
:10B640009A5EB84B00241C5FA24202DDB44A128805
:10B650001A80B34B02229A5EB34B00241C5FA242B5
:10B6600002DDAF4A52881A80B04A1278521CAF4BA2
:10B670001A701A461278022A1FDD0022A34B1A7094
:10B680001BE0AA4A1278092A0BDDA14B02229A5E1E
:10B69000A54B00241C5FA21A3A2A02DD0122A44B0A
:10B6A0001A70FE22D2439F4B1A809F4B1A800022B1
:10B6B0009E4B1A700122954B1A7010BD944A0221BC
:10B6C000515E974A0223D35E99423ADA0221515ED3
:10B6D000984A0023D35E994202DD9149498811803E
:10B6E0008B4A0421515E491E8D4A0423D35E994240
:10B6F0000FDA0421515E904A0023D35E994202DDA5
:10B700008749898811808D490978491C8B4A1170B5
:10B7100054E07F4A0421515E814A0423D35E99425A
:10B720004CDD0421515E864A0023D35E994202DA41
:10B730007B498988118083490978491C814A1170A5
:10B740003CE07E490978062911DD714A0221515EEB
:10B75000784A0023D35E591A252908DD6C4A042152
:10B76000515E754A0023D35E591A142915DC7549B8
:10B770000978062914DD664A0221515E6D4A0023CC
:10B78000D35E591A25290BDD614A0421515E6C4AAA
:10B790000023D35EC91A142902DD01216A4A1170FF
:10B7A0000021664A1170674A1170FE21C943614A3F
:10B7B0001180614A1180FF21614A1180704710B5E4
:10B7C000044620885249088060884880A088888084
:10B7D00008460021415E88114D4908800846022133
:10B7E000415E88114A49488008460421415E88111B
:10B7F000474988800846FFF74FFC00214448FFF77F
:10B80000D9FC52480078002846D000203E490870F4
:10B8100046490870FF204149088040423D49088060
:10B8200000204B4908804B4908804B490880FE2086
:10B83000C0433C4908803C490880002047490880B3
:10B840004749088047490880474908703F490870C0
:10B850004649087001202D49087000202E490870C3
:10B8600033490870354908703649087040490870F6
:10B87000FE20C04330490880FF2031490880404203
:10B880002C49088000203B4908803B4908803B49FF
:10B8900008802D49087010BD1C48007800280BD086
:10B8A0001D480078002807D121480078002803D1DE
:10B8B00001211748FFF77EFC2C48007800287DD135
:10B8C0001548007800285BD119480078002857D126
:10B8D0001D480078002853D10F480078002803D174
:10B8E00000210B48FFF76BFD11480078002803D1B9
:10B8F00000210748FFF744FE13480078002802D1D2
:10B900000348FFF7DBFEB5E25E2600205D2600203F
:10B9100044260020622600206826002060260020A1
:10B920004A26002064260020662600205F2600208C
:10B9300069260020822600207E2600207C2600200A
:10B94000802600207D260020842600208C260020D2
:10B950006C2600206E260020702600207226002013
:10B9600074260020762600206A2600205C2600200F
:10B970008526002086260020882600208A26002092
:10B98000FE48007800287DD0FD480188FD480078F9
:10B9900006225043FC4A1152F9484188F948007880
:10B9A00006225043F84A80184180F5488188F548BE
:10B9B000007806225043F44A801800E0A1E3818019
:10B9C000F0480078401CEF490870084600780C28C1
:10B9D00099D10020ED490880ED49087065E0EC48F8
:10B9E000007806214843E849085E24280FDAE84831
:10B9F000007806214843E449085E1D21C943884276
:10BA000005DDE4480088401C00B2E2490880E048B7
:10BA1000007806214843DC4940180221415E112983
:10BA200011DADB48007806214843D7494118022043
:10BA3000085E4E21C943884205DDD7480088401C76
:10BA400000B2D5490880D248007806214843CE4943
:10BA500041180420085E0721C943884211DACC4806
:10BA6000007806214843C84941180420085E48214F
:10BA7000C943884205DDC9480088401C00B2C74957
:10BA8000088000E0A8E0C248007806214843BE498B
:10BA900040188088BD490988401800B2BB49088019
:10BAA000BB480078401CBA490870B94800780C2897
:10BAB00095DBB8480021415E09291ADDB64800210E
:10BAC000415E0A2915DDB5480021415E092910DDD6
:10BAD000AE490020085EB24988420ADDAB49002029
:10BAE000085E6321C943884203DA0120AD4908702A
:10BAF00009E70020A7490880A7490880A7490880CE
:10BB0000A9490870A949087061E09E480078401E64
:10BB10009C490870002099490870A44909780622B8
:10BB20005143994A88180021FFF749FC934800784F
:10BB3000002847D09D480078401C9C490870002090
:10BB40009349087035E09948007891490978401880
:10BB5000062148438C49095A8D48007806225043F3
:10BB6000894A11529148007889490978401806217C
:10BB700048431146401841888548007806225043C2
:10BB8000814A8018418089480078814909784018A5
:10BB9000062148431146401881887D4800780622D6
:10BBA0005043794A8018818079480078401C784950
:10BBB00008707E4800780C21081A75490978884277
:10BBC000C1DC08E079480078401C78490870774863
:10BBD00000780C2899DB96E67548007800287DD01F
:10BBE000674801886748007806225043664A115228
:10BBF000634841886348007806225043624A8018AF
:10BC000041805F4881885F480078062250435E4A41
:10BC1000801881805B480078401C5A4908700846AB
:10BC200000780C28D7D1002058490880584908705E
:10BC300063E057480078062148435349085E1928B5
:10BC40000FDA53480078062148434F49085E2C21FB
:10BC5000C943884205DD57480088401C00B2554959
:10BC600008804B4800780621484347494118022084
:10BC7000085E5421C94388420FDD454800780621FB
:10BC80004843414940180221415E142905DA4A48D7
:10BC90000088401C00B2484908803D4800780621D1
:10BCA0004843394941180420085E5421C943884259
:10BCB0000FDD3748007806214843334941180420F6
:10BCC000085E411D05DA3D480088401C00B23B4932
:10BCD00008802F4800780621484300E0CBE02A493D
:10BCE0004018808829490988401800B227490880EF
:10BCF00027480078401C26490870254800780C2801
:10BD000097DB2C480021415E09291ADD2A480021D1
:10BD1000415E092915DD29480021415E092910DD10
:10BD20001A490020085E1E4988420ADD1749002092
:10BD3000085E9F21C943884203DA0120194908702F
:10BD4000E1E500201B4908801B4908801B49088049
:10BD50001B4908701549087087E00A480078401EA2
:10BD60000849087000201249087010490978062215
:10BD70005143054A8818002124E00000682600206D
:10BD8000442600206A260020BA5D00207A26002082
:10BD90008D2600206C2600206E26002070260020B4
:10BDA00012FDFFFF8C2600205E2600208E2600203C
:10BDB00069260020722600207426002076260020A6
:10BDC0005F260020FFF7DCFBFE480078002847D004
:10BDD000FD480078401CFC4908700020FB490870B1
:10BDE00035E0F9480078F9490978401806214843B8
:10BDF000F749095AF548007806225043F44A11528F
:10BE0000F1480078F1490978401806214843114665
:10BE100040184188ED48007806225043EC4A8018CB
:10BE20004180E9480078E9490978401806214843EB
:10BE3000114640188188E548007806225043E44ABC
:10BE400080188180E1480078401CE0490870DE4895
:10BE500000780C21081ADD4909788842C1DC09E024
:10BE6000D9480078401CD8490870D74800780C2879
:10BE700000DA72E7FDE3D74800780028FAD0D64808
:10BE80000188D648007806225043D54A1152D2483C
:10BE90004188D248007806225043D14A8018418018
:10BEA000CD488188CD48007806225043CC4A80187E
:10BEB0008180CA480078401CC8490870084600784C
:10BEC0000828D7D10020C7490880C7490880BF4942
:10BED000087070E0BD48007806214843C049085EFC
:10BEE0001B21C94388420DDDB8480078062148432C
:10BEF000BB49085E142805DABC480088401C00B223
:10BF0000BA490880B148007806214843B44941182D
:10BF10000220085E4021C94388420FDDAB4800780B
:10BF200006214843AE4940180221415E052905DA41
:10BF3000AF480088401C00B2AD490880A348007893
:10BF400006214843A64941180420085E4521C943FB
:10BF5000884211DD9D48007806214843A0494118D8
:10BF60000420085E0921C943884205DAA1480088F7
:10BF7000401C00B29F49088094480078062148433D
:10BF800097494018408897490988401800B2954958
:10BF900008808E48007806214843914940188088DF
:10BFA00091490988401800B28F4908808748007875
:10BFB000401C864908708548007808288ADB8B4831
:10BFC0000021415E052928DD89480021415E0529BF
:10BFD00023DD88480021415E05291EDD81490020BE
:10BFE000085E8549884218DD7E490020085EFF21F1
:10BFF0002D31884211DA7C490020085E7E493231B9
:10C0000088420ADD78490020085E5921C9438842E8
:10C0100003DA0320794908702BE300207349088074
:10C02000734908807349088075490870754908701C
:10C030006549087060E069480078401E67490870EB
:10C040000020644908706049097806225143644A17
:10C050008818FFF733FB5F480078002847D05A481C
:10C060000078401C5849087000205849087035E095
:10C0700055480078554909784018062148435849E1
:10C08000095A5248007806225043554A11524E48E8
:10C0900000784E4909784018062148431146401857
:10C0A00041884A480078062250434D4A8018418012
:10C0B000454800784549097840180621484311460B
:10C0C000401881884148007806225043444A80182D
:10C0D00081803E480078401C3C4908703A4800780E
:10C0E0000821081A394909788842C1DC08E0364835
:10C0F0000078401C344908703348007808289ADBDF
:10C10000B7E241480078002814D12E480078002872
:10C1100010D13D480078002803D101212E48FFF7B7
:10C120004EF9284800780028EAD101212A48FFF773
:10C1300027FA9EE23448007800286BD02648018810
:10C140003248007806225043214A11522248418841
:10C150002E480078062250431D4A801841801E4810
:10C1600081882A48007806225043194A8018818025
:10C1700026480078401C25490870084600780C289D
:10C18000BED1002018490880104908708DE00F4882
:10C190000078062148430E49085E23280FDA0B4831
:10C1A0000078062148430A49085E1D21C943884298
:10C1B00005DD17480088401C00B215490880034877
:10C1C000007828E0692600208E2600208D26002099
:10C1D000BA5D002084260020442600208526002009
:10C1E000025E0020782600207A2600208626002085
:10C1F000882600208A26002076FDFFFF8C2600205E
:10C200007C2600207D260020682600206A2600204B
:10C210006C260020E1E006214843FE494018022137
:10C22000415E102911DAFC48007806214843F9499B
:10C2300041180220085E5421C943884205DDF748B1
:10C240000088401C00B2F5490880F34800780621B8
:10C250004843F04941180420085E0921C943884237
:10C2600011DAED48007806214843EA4941180420D4
:10C27000085E4A21C943884205DDE9480088401C20
:10C2800000B2E7490880E448007806214843E149C4
:10C2900040188088E3490988401800B2E1490880C5
:10C2A000DD480078401CDC490870DB4800780C2829
:10C2B00000DA6CE7DC480021415E09291ADDD74825
:10C2C0000021415E092915DDD5480021415E09297B
:10C2D00010DDD4490020085ED44988420ADDD149E6
:10C2E0000020085EC721C943884203DA0120D049F3
:10C2F0000870BEE10020CC490880C8490880C849C0
:10C300000880CC490870CC49087061E0CB480078BF
:10C31000401ECA4908700020C9490870C6490978FA
:10C3200006225143BB4A88180121FFF748F8C44848
:10C330000078002847D0C0480078401CBE490870EB
:10C340000020B549087035E0BB480078B24909784B
:10C35000401806214843AF49095AAF4800780622E1
:10C360005043AC4A1152B4480078AB4909784018A0
:10C3700006214843114640184188A7480078062204
:10C380005043A44A80184180AB480078A2490978FC
:10C390004018062148431146401881889E4800787D
:10C3A000062250439B4A801881809B480078401C9D
:10C3B00099490870A04800780C21081A9649097814
:10C3C0008842C1DC08E09C480078401C9A4908700B
:10C3D000994800780C2899DB4BE19A4800780028AE
:10C3E00087D0994801889548007806225043894AA9
:10C3F0001152954841889148007806225043854A59
:10C4000080184180904881888C48007806225043EB
:10C41000804A8018818089480078401C87490870CC
:10C42000084600780C28D7D100207E4908807A4938
:10C43000087061E078480078062148437549085E35
:10C440001E280FDA74480078062148437149085EB7
:10C450004521C943884205DD7C480088401C00B264
:10C460007A4908806C480078062148436949401899
:10C470000221415E1A2911DA6748007806214843F3
:10C48000644941180220085E4A21C943884205DDFB
:10C490006F480088401C00B26D4908805E480078F3
:10C4A000062148435B4941180420085E811C11DACB
:10C4B0005948007806214843564941180420085E2F
:10C4C0005421C943884205DD62480088401C00B2FF
:10C4D0006049088050480078062148434D4940187B
:10C4E000808850490988401800B24E4908804A485F
:10C4F0000078401C48490870474800780C2899DBB0
:10C5000052480021415E09291ADD51480021415E4F
:10C51000092915DD4F480021415E092910DD4149F7
:10C520000020085E414988420ADD3E490020085E3D
:10C530006321C943884203DA01203D49087098E02D
:10C540000020424908804249088042490880424907
:10C5500008703949087086E038480078401E37492D
:10C560000870002037490870334909780622514382
:10C57000284A88180121FFF703F83248007800287C
:10C580006CD02D480078401C2B49087000202249AF
:10C59000087035E0284800781F49097840180621BE
:10C5A00048431C49095A1C48007806225043194A3E
:10C5B000115221480078184909784018062148434B
:10C5C0001146401841881448007806225043114A09
:10C5D00080184180184800780F49097840180621D2
:10C5E00048431146401881880B4800780622504382
:10C5F000084A8018818008480078401C0649087065
:10C600000D4800780C21081A034909788842C1DCDA
:10C610002EE023E0BA5D00208D2600206E2600204B
:10C62000702600207A2600206C260020E0FCFFFF08
:10C630008C2600205E2600208E2600206A26002000
:10C64000682600206926002044260020722600204B
:10C6500074260020762600205F2600200B480078F4
:10C66000401C0A490870094800780C2800DA73E772
:10C6700000BF07480088074908800548408848806F
:10C6800003488088888000BFFFF705F98E260020C8
:10C69000442600204A26002030B50B4601460020E3
:10C6A0002022012409E00D46D5409D4205D31D46B8
:10C6B0009540491B2546954040191546521E002DB0
:10C6C000F1DC30BD70B500242546002801DA0124D4
:10C6D0004042002901DA01254942FFF7DDFFAC4263
:10C6E00000D04042002C00D0494270BD10B5431A22
:10C6F000934209D28318881803E0401E01785B1E1C
:10C700001970521EF9D210BD03460B439B0703D08C
:10C7100009E008C9121F08C0042AFAD203E00B7806
:10C720000370401C491C521EF9D210BDD2B201E068
:10C730000270401C491EFBD270470022F6E710B57C
:10C7400013460A4604461946FFF7F0FF204610BD7F
:10C75000421C0178401C0029FBD1801A704710B59B
:10C76000002200E0521C835C8C5CA34201D1002BB0
:10C77000F8D1D8B2E1B2401A10BD30B5044600205D
:10C78000034600E05B1C934203D2E05CCD5C401B9F
:10C79000F8D030BD30B505460020034600E05B1CF4
:10C7A000934205D2EC5CC85C201A01D1002CF6D172
:10C7B00030BD0321001D401E037812021A43491E9A
:10C7C000F9D510467047034603220870000A491C39
:10C7D000521EFAD518467047F0B50746084658402D
:10C7E00087B0C00F049048000E4659004008490821
:10C7F000BC1A884105D2384631461E4617460B46BC
:10C8000002465800400810434CD0300D03904005BC
:10C810005900400D490D0590401A0290402872DAE7
:10C8200018030121000B09050843019004980092A8
:10C83000002805D0019952420020884100920190C1
:10C84000029840210A1A0199009800F0C7F905469C
:10C850000C466B4607CB00F0E2F9C0197141039A10
:10C860000E0D0023D71756401A467A40164344D07F
:10C87000049A002A2DD0029A012A039A15DC120587
:10C88000C01A914101263605001C7141D20F059E48
:10C89000D2070093019202962A46234600F0DFF960
:10C8A00007B0F0BD38463146FAE71605224A0F4672
:10C8B000B218C01AB74101210905001C4F410018E8
:10C8C0007F41114618187941E20F10436D196441F8
:10C8D00013E0E2076D0815436408C2071443039A86
:10C8E00001261205C01A91413605001C7141CE0780
:10C8F000400830434908C01851412A46234600F0F9
:10C90000A1F9CDE7FFE7049801224000C117121AF0
:10C9100000238B4104983146C417381AA141EEE731
:10C9200030B40124E407634030BC55E730B401243F
:10C93000E407614030BC4FE70000E0FFF0B51FB4F2
:10C9400088B00B990998002448400999C00F490004
:10C9500049080991C0070B990090490049080B91BB
:10C9600009990898A64608431CD00B990A980843D1
:10C9700018D0099801244000420D4800410D099843
:10C9800024050003000B204309900B980003000BC3
:10C9900020430B9050181C49401800220190144667
:10C9A000104605E0002001460DB0F0BD032801DA75
:10C9B000034600E003239C46C11A0AAE0AE05F006A
:10C9C00008ADED5B4F00F75B7D430027AA187C4163
:10C9D000491C5B1E6145F2DD410004AB5A52210443
:10C9E000120C0A43240C401C0828DFDB019802903B
:10C9F0000099704601910090059B049A079906984A
:10CA000000F02DF9D0E700000DFCFFFFF0B50C465B
:10CA10005C4085B0E40FE40703944C0000266408F2
:10CA200059009446490802460296224321D06246A4
:10CA30000A431ED06200570D4A000E032303550D12
:10CA4000012402462C492405781B1B0B360B401889
:10CA500023432643614600901C46501AB44103D339
:10CA60000098401C009002E0921800985B4100285A
:10CA700003DA0020014605B0F0BD002001210905C0
:10CA80000746864611E064461D46141BB54106D391
:10CA90006546521BB341744607430C43A646CD0777
:10CAA00040084908284392185B4105460D43EAD1E6
:10CAB0001046184313D06046194650407140084351
:10CAC00006D06046101AB34106D20122002306E0C8
:10CAD00000220123DB0702E00122D2435310009819
:10CAE00074460105381C6141029C039D001969418F
:10CAF00000F0A8F8BFE70000FD0300000EB50549EF
:10CB00000291002100910A460B46019100F0A7F81E
:10CB100003B000BD330400004A0009030123090BE0
:10CB20001B051943094B10B5520D9A4201DA00203A
:10CB300010BD064B34339A4203DC9A1A00F05EF8BB
:10CB400010BD03495118884010BD0000FF030000CC
:10CB5000CDFBFFFF10B5002904DB0124E4074042B0
:10CB60008C412146002B04DB1C460123DB0752428B
:10CB7000A341994200D1904210BD0000F0B51FB40E
:10CB80000646002082B005464024019100901BE03B
:10CB9000019922460F46304600F030F8049A059B72
:10CBA000801A994110D310461946224600F016F813
:10CBB000361A8F410197224601200021009F00F084
:10CBC0000DF838184D4100902046641E0028DFDC27
:10CBD000019B00982946324607B0F0BD10B5202AC7
:10CBE00004DB0146203A9140002010BD91402023F3
:10CBF0009C1A0346E3401943904010BD10B5202A0B
:10CC000004DB0846203AD040002110BD0B46D3403B
:10CC1000D0402024A21A91400843194610BD10B5F7
:10CC2000202A06DBCB170846203A1041C1170B43D8
:10CC300006E00B461341D0402024A21A914008433D
:10CC4000194610BD10B5002B08DA0024401C6141C4
:10CC500092185B411A4301D14008400010BDF0B565
:10CC60001FB482B005460C0003D0084613F0D6FE70
:10CC700002E013F0D3FE2030024600902146284601
:10CC8000FFF7ACFF049B059A04460F461843114377
:10CC9000084314D0184610431BD0009840210A1AAC
:10CCA00018460599FFF7AAFF05460E46009A059912
:10CCB0000498FFF793FF084305D0012004E02046C5
:10CCC000394607B0F0BD0020C11705430E432C4381
:10CCD000374300990E986305401A7905E40A00224B
:10CCE0000C43FD0A0A3002D500200146E9E70105A0
:10CCF000101969410C9C0D9D00196941FFF7A2FFB5
:10CD0000DFE700004A0009030123090B1B05194353
:10CD10000A4B10B5520D9A4202DA0020014610BDAE
:10CD2000064B34339A4203DC9A1AFFF767FF10BDB3
:10CD3000034BD218FFF752FF10BD0000FF030000A5
:10CD4000CDFBFFFF064C0125064E05E0E36807CC4E
:10CD50002B430C3C98471034B442F7D3FBF7B4F99B
:10CD6000FCA403001CA5030070B58C180578401CBA
:10CD70006B075B0F01D10378401C2A1106D10278A2
:10CD8000401C03E006780E70401C491C5B1EF9D164
:10CD90002B0705D40023521E0DD40B70491CFAE753
:10CDA0000378401CCB1A921C03E01D780D70491CBF
:10CDB0005B1C521EF9D5A142D8D3002070BD10B51E
:10CDC00000F0D4F910BD0000F1B588B00020E44DAA
:10CDD0000290039068790127002809D028461C306A
:10CDE0000178427809028918C4788EB2007915E07A
:10CDF00006236A46122130200BF0B2FA012306AA5C
:10CE0000262130200BF0ACFA684600790102684612
:10CE10004079081886B268468478C078049010F08B
:10CE2000F3F8A871052E04D9B42E02D204980C2868
:10CE30001BD9E878401CC0B2E870A978002912D04C
:10CE4000032810D8C748468AA64205D20321288A5B
:10CE5000FFF722FC881904E00321288AFFF71CFC55
:10CE6000701AC4B203E0002701E00020E870352CFE
:10CE700010D2A878002807D00321288AFFF70CFCDD
:10CE8000B848807C401A00E0A87AC4B2352C13D28E
:10CE9000352411E0B42C11D9A878002807D003213B
:10CEA000288AFFF7F9FBAF48807C081800E0A87AD1
:10CEB000C4B2B42C00D9B4240020E871288A401CE4
:10CEC00080B2288204900A2803D86C810027AC81A4
:10CED000E6E0002FFCD0A87800286FD000260920BB
:10CEE000801B41009F48415AA14201D2601A00E0D4
:10CEF000081B730002AAD05270000590105A6422D9
:10CF00005043FFF7C9FB01460598761C02AAF6B20A
:10CF10001152032EE3D368460689232E16D9914871
:10CF2000408A0590A04206D21E2148437D21C900B7
:10CF3000FFF7B2FB52E01E2148437D21C900FFF7F5
:10CF4000ABFB52E0C4B20120E87151E01E2E1BD8A9
:10CF5000192E19D8142E15D98248408A0590A0425E
:10CF600007D270437D21C90036E070437D21C9009E
:10CF700039E07D217043C900FFF7A4FB0146059805
:10CF8000401ADFE70F2E05D97648408A0590A04267
:10CF9000EBD2E6E70A2E06D840890F2803D8694667
:10CFA000898914290BD96F48FF21408AF5310590F2
:10CFB000A04201D270430FE0704314E058E0042E09
:10CFC00003D8062801D80A2912D96648408A059054
:10CFD000A04206D27043C821FFF774FB05994018A0
:10CFE000B0E77043C821FFF76DFB0599081AA9E760
:10CFF000002E15D168464089002811D168468089E5
:10D0000000280DD103210498FFF746FB5548807C8A
:10D0100009180498C007C00F081AC4B20020E871AC
:10D02000514A9178A1420BD36878052808D2049A16
:10D030009207920F8918C207D20F891A891C0DE036
:10D040005278A2420ED8687805280BD20499890735
:10D05000890F511AC207D20F8918891ECCB2401C01
:10D0600068701DE0A1421BD2A24219D90020F7E747
:10D07000AC816E892046B44201D3801B00E0301A97
:10D08000642148433146FFF71DFB69460881684625
:10D0900000890A2802D3F4B2002000E00120E871E0
:10D0A000E12104980901884201D30B202882352C04
:10D0B00009D2288A03210446FFF7EEFAE007C00FE1
:10D0C000081A35300AE0B42C09D9288A032104460D
:10D0D000FFF7E2FAE007C00F081AB430C4B2002F1D
:10D0E0002CD0089804700020287228780A280DD2C5
:10D0F000A97800290DD142001A49401CC0B28C52B7
:10D1000028700A2817D30120A87002E0A878002808
:10D1100011D0E87900280BD01249002042005318A2
:10D12000401C5B88C0B28B520928F7D34C8214E0B4
:10D13000A878002811D1A88968810EE0287A401CBF
:10D14000C0B22872232808D305F0ACFC7D22D2009F
:10D15000022119F016FF00202872384609B0F0BDF0
:10D1600034250020245B00209E22002070B50C4C4A
:10D170000320206001200B494007C86006F091FFA2
:10D18000094800254079002802D005482838056064
:10D190000A2003F087FD042020600448057070BD5C
:10D1A0007407005000050050342500209A2200200A
:10D1B00010B50E490320086001200D494007886022
:10D1C00000240A2003F06EFD641CE4B20A2CF8D39C
:10D1D000022000F0A9F807490020088208720870B0
:10D1E00048708870C8700449087010BD74070050FA
:10D1F00000050050342500209A220020F0B587B0A9
:10D200000024009438A001940068029037A00068C0
:10D2100003903E21049468460170802141702A21C8
:10D220000171F82141716425314903200860314FB3
:10D23000E806B86000260A2003F034FD761CF6B23A
:10D240000A2EF8D303202A490004283908600A204E
:10D2500003F028FD3869C00CC007C00F04D138693D
:10D26000C00CC007C00F0AD06D1EF3D22248048242
:10D270000472047044708470C47007B0F0BD012360
:10D2800002AA0421302013F063FA052003F00AFDFE
:10D2900002236A460821302013F05AFA052003F0D1
:10D2A00001FD022301AA0A21302013F051FA0520C2
:10D2B00003F0F8FC012303AA2921302013F048FAD7
:10D2C000052003F0EFFC012302AA042130200BF01B
:10D2D00047F8052003F0E6FC012304AA3921302099
:10D2E0000BF03EF8C2E70000020000000100000061
:10D2F00074070050000500503425002010B508497F
:10D3000003200860012007494007886000240A20A4
:10D3100003F0C8FC641CE4B20A2CF8D310BD000072
:10D320007407005000050050044910B50A18012385
:10D330000421302013F00CFA10BD00004625002017
:10D3400070B5B6B0002400940194049430A0029407
:10D3500000680390C02105A8FFF7EFF92D4DA879CB
:10D36000022851D00120694608722B4A002005ACE2
:10D3700006214143535A401C5B0163528B185E885F
:10D38000091976014E809B88C0B25B018B802028F2
:10D39000EED3012303AA0E21302013F0D9F9287906
:10D3A00000281CD000256E1C684606700C204543E2
:10D3B000615B68460A0A427081702A1951880B0A1B
:10D3C000C3700171918807230A0A427181716A460C
:10D3D0001421302013F0BCF9F5B2102DE3D3012352
:10D3E00002AA2921302013F0B3F90A4A05231C327E
:10D3F000342130200AF0B4FF012304AA392130205F
:10D400000AF0AEFF36B070BD68460472ADE70000AA
:10D410001000000034250020385B0020F0B5002704
:10D42000A1B03E461897FFF7CAFCFFF767FF01203F
:10D4300010A90873034613AA0421302013F088F9B9
:10D44000232018F0E1FCFF2110A80172012312AA89
:10D45000002130200AF084FF10A8007A0028F2D1C1
:10D46000524813F090F91B90102168460024017077
:10D47000C4703A2101764E48102200681CA9001998
:10D480000FF0AEFC210A68464170847004201CA98C
:10D490006A460B18203B1B7F1354401CC0B2142853
:10D4A000F7D300200146535C491C1818C9B280B25A
:10D4B0001429F8D3FF210131081A1075002006AA9B
:10D4C00069460B5C3B491D094D5D410089184D7053
:10D4D0001D072D0F374B401C5B5DC0B28B701528AC
:10D4E000EED3FF2010A90872012312AA00213020D8
:10D4F0000AF036FF761CF6B2C82E01D3002603E0F0
:10D5000010A8007A0028ECD1002511A8FF21415570
:10D5100042190123002130200AF022FF6D1CEDB2D8
:10D52000032DF2D310A80079002813D110A8407958
:10D5300000280FD110A8807900280BD12B2306AA30
:10D540000021302013F004F9002803D01034002704
:10D55000A4B23E467F1CFFB2322F01D2189804E0DD
:10D5600018980027401CC0B218901E2806D301232B
:10D5700013AA042130200AF0F3FE04E00120C003C6
:10D58000844200D077E7094813F0FDF807481030CF
:10D5900013F0F9F80548243013F0F5F80348383053
:10D5A00013F0F1F81B9821B0F0BD000055250020C4
:10D5B0004C240020EBA40300F8B5154A002411798F
:10D5C000144D012388420BD000212960202800D16E
:10D5D000022189000602891C3143696010712B60A9
:10D5E0000D4803600D4E0E4F02E00120FAF792FD48
:10D5F0003868C00704D02046641CA4B2B042F4D9F5
:10D60000B44201D90748F8BDA86880B2F8BD00004F
:10D61000BE2100200075004000700040102700006F
:10D6200000740040FFFF00000938044AC0B2115CDA
:10D63000632901D2491C115470470000E6450020BF
:10D6400070B504F0D7FF792119F0A0FC002801D1B2
:10D650000DF0C6FB3E4CFF26A078002803D12671B2
:10D66000E6700320A07004F0C5FF3A4A802119F04B
:10D6700088FCE078002501280DD002280ED004286F
:10D680000FD0062810D0052811D0606A002811D0CC
:10D6900007F0CEFD2CE000F0EDF829E000F004F9F1
:10D6A00026E000F05DFA23E000F0C8F820E000F08A
:10D6B0003BFA1DE0A06A002802D008F023FD17E025
:10D6C000206A002802D00EF035FF11E0E06A002841
:10D6D00002D004F0CDFA0BE0206B002802D00CF051
:10D6E0005DFC05E0A57004F085FF802119F04EFC7B
:10D6F000A078012802D9401EA07070BD2671E67086
:10D70000A5700DF06DFB206A002803D019F0CCFC49
:10D7100025626574A06A002803D019F0C5FCA562D3
:10D72000E574E06A002803D019F0BEFCE5622575B7
:10D73000206B002803D019F0B7FC25636575606A7B
:10D740000028DAD019F0B0FC6562A57470BD000045
:10D750005C2200208813000070B5294C294DE07A26
:10D76000C1060BD5EF210840E0722878000605D5E8
:10D7700004F040FF6422212119F003FCE07A410704
:10D780000BD5FB210840E0722888C00505D504F0C0
:10D7900031FFC8221F2119F0F4FBE07A81070CD574
:10D7A000FD210840E0722878800606D504F022FFAB
:10D7B000FF222D321E2119F0E4FBE07AC1070CD0C4
:10D7C00040084000E0722878400606D504F012FFB9
:10D7D000FF2291321C2119F0D4FBE07A01070CD50D
:10D7E000F7210840E0722888800506D504F002FF82
:10D7F000FF22F532202119F0C4FB0020E07270BD39
:10D800003C230020C023002000B50B4A1C38D17AED
:10D81000030013F01AF906040F06080A0C0F012082
:10D8200006E0022004E0042002E0082000E01020CE
:10D830000143D17200BD00003C23002070B50B4CA9
:10D84000607B002810D1012525710620E07020465C
:10D85000294616300CF07AFD657304F0CBFEFF21EB
:10D86000034A063119F08DFB70BD00005C220020D8
:10D870008813000070B50A4C607B00280FD1012589
:10D8800025712046E570294616300CF05FFD657362
:10D8900004F0B0FEFF21034A063119F072FB70BD9F
:10D8A0005C2200208813000070B50B4C607B0028C0
:10D8B00010D1012525710220E0702046294616303E
:10D8C0000CF044FD657304F095FEFF21034A063118
:10D8D00019F057FB70BD00005C2200208813000087
:10D8E000164A10B5D11D081DFAF70AFD1449012882
:10D8F00011D0022820D0087800061BD511480178E5
:10D90000002917D00D490F390A7C0F4909788A423E
:10D910000ED9511A0DE0087840060BD504F06AFEC6
:10D92000C8227A2119F02DFB002002F0DBF801E07B
:10D93000002101700DF054FA10BD00006B22002090
:10D94000C0230020B5230020B0230020F0B56B4891
:10D950008BB0012403940178C51DF935082903D142
:10D96000052101701F212980077841780291817873
:10D970000191C17808910299614E401801994018AF
:10D98000001D0490089930680F2902D0012F77D12B
:10D990000FE03B0013F059F817230D1517231B1F39
:10D9A000231D1D1D1D1D1D1D1D1D1D1D1D1D1D1DA1
:10D9B0002300C00603D553480078800747D40024CD
:10D9C00045E0800600E040060028F8DA07E0C005E0
:10D9D000FAE70006F8E7800501D4002470E0019919
:10D9E000029840181330C1B2444800F0E5F809909D
:10D9F0000F21049800F0E0F884460020820042499C
:10DA000096468B5A099A934206D171444A886245D8
:10DA100002D10020039053E0401C012180B2890212
:10DA20008842EBD3394802888A4201D30021018021
:10DA30003648099A038834489900425262460818C9
:10DA4000428032485B1C03800398002838D03B009A
:10DA500012F0FBFF17360D1A22362731362C2C2CEC
:10DA60002C2C2C2C2C2C2C2C2C2C2C2C36003078C8
:10DA7000C00625D523480078800721D5244907E032
:10DA800035E0401C08701BE03078800618D521492D
:10DA90000878FF28F5D313E03078400610D51E49EA
:10DAA000F6E73088C0050BD51C49F1E73078000651
:10DAB00006D51B49ECE73088800501D51949E7E711
:10DAC0000398044213D00199029841180898081845
:10DAD000001DC2B2094938460BF028FF68880028AB
