:020000040001F9
:10C00000A041002015C101002FC1010031C1010074
:10C010000000000000000000000000000000000020
:10C0200000000000000000000000000033C101001B
:10C03000000000000000000035C1010037C1010010
:10C0400039C1010039C10100CDC4010039C101006D
:10C0500039C101000000000095C2010039C1010092
:10C0600039C1010039C1010039C1010039C10100E4
:10C0700039C1010039C1010039C1010039C10100D4
:10C0800039C10100E1C3010039C1010039C101001A
:10C0900001C4010039C1010055C4010039C10100CA
:10C0A00039C1010039C1010000000000000000009A
:10C0B0000000000000000000000000000000000080
:10C0C0000348854600F0A8F800480047C1F8010081
:10C0D000A0410020401E00BF00BF00BF00BF00BF46
:10C0E00000BF00BF00BF00BF00BF00BF00BFF1D155
:10C0F00070470000401E00BF00BF00BF00BF00BF70
:10C1000000BF00BF00BF00BF00BF00BF00BFF1D134
:10C11000704700000321094802680A43026008488A
:10C1200002680A4302600748804707480047FEE765
:10C13000FEE7FEE7FEE7FEE7FEE70000240500401D
:10C140005405004079C40100C1C0010030B50B4660
:10C15000014600202022012409E00D46D5409D42E1
:10C1600005D31D469540491B254695404019154667
:10C17000521E002DF1DC30BD70B50024254600288C
:10C1800001DA01244042002901DA01254942FFF782
:10C19000DDFFAC4200D04042002C00D0494270BDCF
:10C1A00003460B439B0703D009E008C9121F08C0D0
:10C1B000042AFAD203E00B780370401C491C521E7B
:10C1C000F9D27047D2B201E00270401C491EFBD286
:10C1D00070470022F6E710B513460A460446194692
:10C1E000FFF7F0FF204610BD30B50446002003469F
:10C1F00000E05B1C934203D2E05CCD5C401BF8D0B6
:10C2000030BD0321001D401E037812021A43491E4F
:10C21000F9D5104670470000064C0125064E05E092
:10C22000E36807CC2B430C3C98471034B442F7D357
:10C23000FFF74AFFC0160200E016020070B58C1826
:10C240000578401C6B075B0F01D10378401C2A1155
:10C2500006D10278401C03E006780E70401C491C91
:10C260005B1EF9D12B0705D40023521E0DD40B7091
:10C27000491CFAE70378401CCB1A921C03E01D7896
:10C280000D70491C5B1C521EF9D5A142D8D3002069
:10C2900070BD0000F8B50024FF25013501262746B2
:10C2A0000094284603F07AFE002808D034484068FD
:10C2B000304204D0334800212818344301602D1D3A
:10C2C00076007F1CADB2042FEBD3FF207D3003F04E
:10C2D00065FE002807D02C48002101604007044378
:10C2E0002A48006900902A4F200712D00126002515
:10C2F00026420AD02748AA00111808690969C00413
:10C30000C00E8903BA58890F904776006D1C042D22
:10C31000EED3002C30DA00241D4E082130194030B5
:10C320004156491C25D0077ABD06AD0E284601F0BE
:10C3300083FE80003658002E1BD0BF090121A94082
:10C34000154AA80080180068009A8003800F1142E7
:10C3500002D0022802D00CE003280AD1032F05D115
:10C3600002280AD00221284603F008FE3946284652
:10C37000B047641C062CCFD3F8BD0321F3E70000BF
:10C3800000630040006000407C61004000050050F8
:10C390006838002000650040000700508307FF2236
:10C3A000DB0E9A408907090E994000280BDA000736
:10C3B000000F0838830808489B001818C369934386
:10C3C0000B43C3617047830804489B001B1818681F
:10C3D000904308431860704700ED00E000E400E07F
:10C3E00010B506490020086048608860C8600349AD
:10C3F00040390860486004F0FBFE10BD4011014068
:10C40000FEB50020C043124D029068690190684655
:10C410002E6902F0D7FE074603F090F90446002F7C
:10C4200008D002AA0199009802F0ECFE029803F0ED
:10C43000CFF906E0029803F0CBF9002801D1002CD7
:10C4400002D0304601F020FF00206871FEBD0000E0
:10C450007829002010B507484068002807D0804799
:10C46000002803D00022114600F020FB10BD03F08D
:10C470009DF810BDA029002010B503F007F9002891
:10C4800005D00E490C484860C8130D4988610D4815
:10C49000018CC9B201290ED1818C09070BD1018D04
:10C4A0000906090F042906D1808D0006000F02D16C
:10C4B00005490120886010BDDFFF07C0000500406E
:10C4C000006C0040C00F00F0000600407CB51B4C23
:10C4D000A0681B4E0025002818D0A5601948806967
:10C4E000C1B2194800F017FB002805D001216A46A7
:10C4F00011700190684607E013488168C068401ACF
:10C50000012803D16846057071688847E0690028F2
:10C5100003D0E561032003F087FF606A00280BD099
:10C520006562084980390868086002216A4611700E
:10C5300001907168684688477CBD0000002100407A
:10C540002429002000250040483800200FB410B5F1
:10C5500003A9044B044A029800F024F810BC08BC5C
:10C5600004B0184711F301009C29002030B4744630
:10C57000641E2578641CAB4200D21D46635D5B00DF
:10C58000E31830BC184702E008C8121F08C1002A8F
:10C59000FAD170477047002001E001C1121F002A44
:10C5A000FBD17047FFB58DB00F460546002606E06B
:10C5B00025280AD0109A0F9990476D1C761C287870
:10C5C0000028F5D1304611B0F0BD00240121674AA2
:10C5D000009400E004436D1C2B780846203B9840F3
:10C5E0001042F7D128782E2815D10420044368780A
:10C5F0006D1C2A280AD101CF6D1C00900BE0009918
:10C600000A225143303940186D1C009028780146A9
:10C6100030390929F3D92878692843D006DC002865
:10C62000D0D063280BD0642804D13BE073280FD00E
:10C6300075284CD0109A0F999047761C94E0387862
:10C64000694608720020487202A80190012003E0A8
:10C65000386801900020C0433F1D61070CD50024BD
:10C6600000E0641C00998C420FDA8442F9DB0199E6
:10C67000095D0029F5D108E0002400E0641C844233
:10C68000FCDB0199095D0029F8D1361907E0019812
:10C6900001990078491C0191109A0F999047641EE6
:10C6A000F5D261E00A20019001CF002802DA404271
:10C6B0002D2102E0210504D52B216A4611720121AA
:10C6C00003E0E10701D02021F7E70C9104E00A2004
:10C6D000019001CF00210C910BA90B9108E0019969
:10C6E000FFF734FD0A460B993032491E0B910A7050
:10C6F0000028F4D10B9803A9081A20300190600794
:10C7000001D5009801E0012000900199884203DDE5
:10C7100001460198081A00E000200024009006E07D
:10C7200002A8109A005D0F999047641C761C0C9823
:10C730008442F5DB04E0109A30200F999047761C74
:10C740000099481E00900029F5DC08E00B980B9931
:10C750000078491C0B91109A0F999047761C01990B
:10C76000481E01900029F1DC6D1C28E70928010012
:10C7700038B50D4C6078022802D00C490120886041
:10C7800069460B4800F0A4F9002802D000F016F822
:10C7900038BD0848802181606A46074B1278DA610B
:10C7A00002226270416038BD242900200020004030
:10C7B0005838002000230040002500401CB50649E1
:10C7C0000120C8600549487003206A461070496816
:10C7D000684688471CBD0000002000402429002036
:10C7E00004490020487004490122CA604A60034994
:10C7F00008607047242900200020004000250040E8
:10C80000F7B582B000260546167000781446002859
:10C8100005D02846039903F07DF9060008D1A878D1
:10C8200000281ED02078039F001D1F2802D90C204D
:10C8300005B0F0BD684679DF0028F9D121780322E0
:10C84000481C20707A5421781922481C20707A5490
:10C850002078C1196846008804F038FD2178401816
:10C860002070E8780223002810D02078039A411C19
:10C870002170135420780399471C012227700A5411
:10C880002078EA78471C039927700A5468680028C2
:10C8900015D00021415620788C460246C01C0399D1
:10C8A0001F28C4D8501C20708B5422780A23501C97
:10C8B00020708B5420786246431C23700A542889C8
:10C8C000002809D028460094062202210830039B44
:10C8D00004F084FD0600ABD1288A002809D0284640
:10C8E0000094072203211030039B04F077FD06001B
:10C8F0009ED1288B002809D02846009415221421A7
:10C900001830039B04F06AFD060091D1286A0028C4
:10C9100005D02246039901F009FD060088D1686A16
:10C92000002805D02246039903F0C2F8060084D1FE
:10C930002C20405D002806D022462846039904F0AA
:10C9400095F90600C7D1304672E710B501220221E1
:10C95000002001F07FF9002801D0072812D107221A
:10C960000221012001F076F9002801D0072809D121
:10C9700000210A22084601F06DF9002801D007289D
:10C9800000D1002010BD000030B597B0302101A8C3
:10C99000FFF71FFC02216846017101248471052103
:10C9A000C171002585820695848311480890242151
:10C9B0000DA8FFF70EFC08A8047510A80470282025
:10C9C000B4211190129110A804731920C001009590
:10C9D00015911490074B0DAA002101A800F0AEFBA1
:10C9E000002803D00022114600F060F817B030BDD7
:10C9F00006280020B1FF0100044842680121C90552
:10CA00000B46934383600A40C260704700050050A4
:10CA100070B50024064D06E06968E000085C01215D
:10CA200003F08AF9641C28788442F5D3002070BD95
:10CA300050290020F8B515460C460646052A01D2B5
:10CA40000720F8BD03F046FA002803D103F018FAD6
:10CA50000028F6D1114900204E600C7008618D60ED
:10CA600048610F4D0DE0E000296880190091817840
:10CA70006A46517000780B4A694603F0ADF9002808
:10CA8000DFD12046641EE4B20028ECD10348064AF8
:10CA900000210C3000F03EF9F8BD000050290020C4
:10CAA00090150200D1F4010035E60100BFF34F8F6D
:10CAB00003490248C860BFF34F8FFEE70400FA0540
:10CAC00000ED00E0014B1B681847000024380020EF
:10CAD0008268C36893420AD0826883881A400368D8
:10CAE0009A5C0A708168491C8160002070470520AB
:10CAF0007047002906D0002A02D0531E134203D0EB
:10CB0000092070470E2070470160838000218160FA
:10CB1000C160084670478268C3689B1A8288934246
:10CB200008D8C36813400268D154C168491CC16069
:10CB3000002070470420704738B50C46A2680C23CB
:10CB40005A43064B09789D58054A126A00920246DC
:10CB5000204608302369A84738BD000084390020EA
:10CB60002C29002010B5064914230A785A4351187D
:10CB7000091DFFF7E1FF042004F06CF910BD00006F
:10CB8000B838002070B50F4B05241D785E78AE4292
:10CB900015D01D781C789E88B44201DA641C00E030
:10CBA00000241C705C88DE686C43A41904609B68D8
:10CBB000E800C418A4880C8018580024106020468F
:10CBC00070BD000068290020F7B53B4C82B060883A
:10CBD0000F4681426ED80020694608703849374EAA
:10CBE0004868C005C00D18D0103840B2002807DAD8
:10CBF0000207120F083A920892005118C96904E01E
:10CC00008108304A8900891809688007C00EC14030
:10CC10000806850F012D01D10AE00425684636DF9C
:10CC200002280CD0002803D000221146FFF73EFF57
:10CC300022786078A188884203DA401C02E072B64C
:10CC4000F6E70020C0B2904207D06678607888424C
:10CC500001DA401C00E000206070012D0BD062B6AC
:10CC60006846007837DF022805D0002803D000226C
:10CC70001146FFF71BFF1148864219D0A068F50046
:10CC800004994151029900290CD0002F0AD06088E4
:10CC90003A464643E0683018FFF782FAA068281841
:10CCA000878002E0002128188180002005B0F0BDB7
:10CCB0000420FBE70920F9E768290020FFFF0000B6
:10CCC00000ED00E000E400E00EB504E06846818875
:10CCD000029A0098904702AA01A96846FFF752FFFE
:10CCE0000028F3D00EBD000030B5CB0008339DB254
:10CCF00093070024002B01D0072030BD044B9A601D
:10CD00005219DA605C701C7058809980002030BD28
:10CD10006829002070B5114CA568002D06D0002AA6
:10CD200006D0002804D00023247809E0082070BD34
:10CD3000072070BD24265E43AE5D002E04D05B1C30
:10CD4000A342F7DB042070BD242401265C432E554A
:10CD500064196170A2610360002070BD7829002011
:10CD600010B50446082904D0002211461046FFF7EA
:10CD70009DFE21686068884710BD00001CB50191C8
:10CD80000090034A08216846FFF71EFF1CBD000003
:10CD900061CD0100FFB59807002481B01E461546FD
:10CDA0000F4600280BD1002E09D003F019FF2249AD
:10CDB0000A9888610F70324600208E6008E00720D4
:10CDC00005B0F0BD24234343D4549B181C75401C6C
:10CDD000B842F7DB24204743BB19032048700F46B5
:10CDE0001846CB6019461830002218232E465E43A1
:10CDF000D3005B181C705C709D7058603018521C1A
:10CE0000032AF5DB0020C0433861BC70FC700124AC
:10CE10000A482405046003211420FFF7BFFA0848DC
:10CE20000460084C0198A06003211120FFF7B6FAB6
:10CE3000606878610020C3E77829002080E200E084
:10CE400000E100E000150140FEB504461D4817460C
:10CE500082680D46002A0CD001788C4201D2052D43
:10CE600001D20720FEBD214624235943535C012BE8
:10CE700001D00820FEBD8818407801281DD000266A
:10CE800004F070FAC0000F490190C9684018694663
:10CE900004F092FA002812D0012101700A4944607E
:10CEA00049680830E2C007490198C96841180098EC
:10CEB000487004F02BF90020FEBD2E46E0E7042068
:10CEC000FEBD00007829002000150140F8B5144D82
:10CED0000446A868002809D029788C4201D307208D
:10CEE000F8BD24216143405C012801D00820F8BD31
:10CEF00004F038FAC600E8686946301804F05CFAB5
:10CF000000280AD0022101704460E86831180098B6
:10CF1000487004F0FBF80020F8BD0420F8BD0000C4
:10CF200078290020FFB5584F83B000260D460446EF
:10CF30007E707A6000292AD0A888296882B2534876
:10CF4000FFF7D7FD002823D1A889A96882B24F48EE
:10CF50001030FFF7CEFD00281AD160784C4903222B
:10CF600080004018026022783046920051180E600E
:10CF7000484D6178E96021786961A1686962454E30
:10CF800061794036002905D00E21F16203E00720C7
:10CF900007B0F0BDF0622379022B17D03E493F4A1B
:10CFA000012B45D004232B608860C861F06A4008DB
:10CFB0004000F062581FA860286101209060106056
:10CFC00078700C98008800283FD043E002F082FF80
:10CFD000002803D102F054FF0028D9D13048694617
:10CFE00000680090A07802F07DFF0028D0D1401E9C
:10CFF0002861A078A860F06A01210843F0622848FF
:10D00000284A40680190E07801A902F0E5FE002876
:10D01000BED1E078012102F08FFEE07802F026FF19
:10D02000002801D0002000E0012003F0FDF9C8E74E
:10D0300004232B608860C861F16A01200143F1621A
:10D04000E1782961A178A960B8E70C99387808805F
:10D05000401C387000211448C9438160A121890017
:10D060004160124904200860114B06991A68FF2498
:10D0700024048907090EA24309040A431A600D49D2
:10D080000860002084E700002429002048380020A0
:10D090000007005000250040002100400020004013
:10D0A000601502001DF501000023004080E200E051
:10D0B00000E400E000E100E010B501460448FFF79D
:10D0C0002AFD0446022003F0AFF9204610BD0000FF
:10D0D0005838002010B500221146FFF7E7FC10BDBC
:10D0E00070B50C4692B000216A4611700725117187
:10D0F000002809D0C17849070CD502A9FFF780FBA9
:10D10000002808D102AE00E00026002C0ED0E07806
:10D11000002802D0284612B070BD01AA0AA92046F4
:10D12000FFF76EFB0028F6D10AAA00E0002268464D
:10D1300003790178304672DFEDE7000070B50D46E7
:10D1400004991646040042D0002E40D042480022E6
:10D150004271C3600161242231464048FFF720F844
:10D1600000F0D4F83D4934310846103801602031D0
:10D17000816030215438FFF72CF838482178303856
:10D180000170A1788170E178C17061784170626945
:10D19000216942610161E268A168C2608160014663
:10D1A000E369A269CB618A61616A002919D00146ED
:10D1B000A4310246B03241628A60636A1B880B80E8
:10D1C000616A436A898899800021436A06E00E20DB
:10D1D00070BD666AB668765C5654491C9E888E425D
:10D1E000F7D8A16A00291CD01C4AAC3211460C3970
:10D1F0008A608162A36A9B888B80A16A836A09889E
:10D2000019800021836A04E0A66AB668765C5654E9
:10D21000491C9E888E42F7D82C210A5D0F4910398F
:10D220000A73216A002909D00B4914310162226A6C
:10D2300052884A80216A026A09881180616800293F
:10D2400004D00549891D4160616841600348294651
:10D250003038FFF745FF70BDAC280020E8330020D0
:10D2600010B502881C4C102A17D00021112A1AD0A0
:10D27000192A11D1807900280ED1607901281ED099
:10D28000022822D0032822D0042805D12171E26887
:10D290000846002A00D0904710BD017D0129FBD12E
:10D2A0008088208110BD6170808821898842F9D1F1
:10D2B000012005E021690029F4D0884710BD022033
:10D2C00000F04CF80028F5D110BD0320F8E703204A
:10D2D00020710420F4E70000AC28002010B50228DB
:10D2E00001D003280ED1084C207800280AD0002055
:10D2F0002070607900F032F8002803D021690029FD
:10D3000000D0884710BD0000AC28002010B50721D0
:10D310000148FEF75EFF10BDC428002010B50D487F
:10D320000078012814D10C4C6078002810D1607965
:10D33000002802D074DF00280BD1012060706079D2
:10D3400000F00CF8002803D02169002900D088479C
:10D35000002010BDE8330020AC280020F0B5754C4B
:10D3600087B06071002606A8069603F0D7F901275A
:10D37000082806D000286FD10698002802D0277010
:10D38000D4E00696FFF7C2FF6B4D6878002802D004
:10D390006079012805D0A87800280AD06079022891
:10D3A00007D1E168002903D0E7700820884700E032
:10D3B000E6706079012808D16878002809D05D48B6
:10D3C000193003F055F9002803D06079022802D003
:10D3D0000CE002206071A878002805D0554819306B
:10D3E00003F046F9002801D103206071287B002852
:10D3F00004D16079032801D104206071287E0028BF
:10D4000004D16079042801D166712671E168002990
:10D410000AD06079032801D0042805D12878002893
:10D4200002D06078002818D0A67018216846FEF750
:10D43000D0FE684606700196067203966079012850
:10D440000FD0022816D03C4E24363746543F0328CE
:10D450001CD004285ED13BE069E0A7700720884714
:10D46000E3E7344818300190684607704682068228
:10D47000277152E02F4818300190684607702989BB
:10D480004182A98801820220207146E0A88A69466B
:10D490004882288A08822848243004F003F80028AB
:10D4A00005D02878002802D06078002801D0032019
:10D4B0002FE002206946087204200396F8701E4887
:10D4C00000213038FFF70CFE002830D1052020E085
:10D4D000A88B69460882288C48821748243003F0BC
:10D4E000E1FF002805D02878002802D060780028C5
:10D4F00001D004200DE00220694608720420039642
:10D50000F8700D4800213038FFF7EAFD00280ED1F1
:10D51000062020716079002803D0684673DF002858
:10D5200005D1E168002901D020798847002007B0A3
:10D53000F0BD0000AC280020E8330020F0B5124B0D
:10D540009978002908D0114905790D71047B0C7375
:10D550000E4E0021303606E00820F0BD8A008768B4
:10D56000491CBF58B7508C42F8D8084C00211034E1
:10D5700004E08A000668491CB658A6508D42F8D8C7
:10D5800000209870F0BD0000AC2800200C34002072
:10D5900010B5002905D0002A01D0202A03D909207E
:10D5A00010BD0E2010BDC30003480124C454181838
:10D5B00042804160002010BD2436002010B5034990
:10D5C0000089898D012200F0E3FC10BDF4350020B4
:10D5D00038B5002821D000291FD00A68002A1CD0A5
:10D5E0000F4B00241861026049684160C472FF213A
:10D5F0008172611E01812E210A48FEF7EAFD0A4868
:10D600000A490462446207480470684601800221A6
:10D610008170074900F002F938BD0E2038BD0000C6
:10D62000CC280020F4350020B434002031F4000070
:10D63000F1E4010010B503490089098C012200F0D2
:10D64000A7FC10BDF435002010B50A88372A04D095
:10D65000382A01D102F096FE10BD03F009FE10BD7C
:10D660001278112A01D0142A01D189788172704769
:10D6700010B5044600F056F8002806D16168034C46
:10D68000206900F005F80021217010BDCC28002091
:10D69000F8B58446204824224368204D5A435B1C39
:10D6A0005B075B0F43601E4B52195B8A5383131D4C
:10D6B00013620024948301251576147151710D0AAB
:10D6C00095710D0CD571090E1172154D05230021B0
:10D6D0003035CE00AF5D012F10D1D7185B1C3971EA
:10D6E000012903D0022901D0032906D176197688B1
:10D6F000D7183E71360A7E719B1C641C491C082990
:10D70000E7D3D38361460989118002219170446176
:10D7100003F0AEFD0020F8BDCC280020D43400205A
:10D72000F43500200178032902D280780C2801D337
:10D73000072070470020704770B5054601461C223F
:10D740000F48FEF72DFD0F4C002626702968002992
:10D7500007D00822A018FEF723FD204608307ADF04
:10D7600002E0084808307BDF002808D1401E6080B6
:10D7700004486670044A0021001DFFF7CBFA70BD13
:10D7800084360020E428002001130200F8B5224C62
:10D79000028800271F4DE689102A16D029464968BD
:10D7A000112A21D0122A2DD0502A1CD1C288801DC6
:10D7B000B24218D1028B022A15D1C27E837E10029A
:10D7C0001843C007C00F0CD112E081886980014660
:10D7D0001048082216311030FEF7E2FC6F70002E60
:10D7E00001D100F0EBFDF8BD0020C04368806F70F0
:10D7F0000846FFF76BFB0028F5D0A1690029F2D09D
:10D800008847F8BD811D034808221030FEF7C8FC88
:10D81000E7E70000E42800208436002030B5002827
:10D8200015D0002913D00E4A1378002B11D093681D
:10D83000022B10D011D20B4CDD002C19058825804D
:10D84000408860805B1C61600020936030BD0E20CA
:10D8500030BD082030BD062030BD042030BD0000A2
:10D86000FC280020A036002000210448012281600D
:10D870000270C1604160084670470000FC2800202B
:10D8800070B5002815D0002913D0244A1278002A38
:10D890000FD00A88302A17D00CDC04464034102AF6
:10D8A00010D0112A05D16221FEF793FC0020C0435D
:10D8B000A08370BD322A2DD0332AFAD1091D02F07F
:10D8C00011FD70BD8888F3E70546C888091D00284A
:10D8D00007D00021284601F00FF8284602F076FD17
:10D8E00070BD2C46603420782E22504340194A895E
:10D8F00002808A894280CA894285098A81852846B0
:10D9000000F0A2FB0100EBD000206070284601F07F
:10D9100029F870BD091D02F07FFC70BDFC280020B5
:10D9200010B500280DD0144A1378002B0BD0936843
:10D93000002B08D0044660346378002B05D01120FA
:10D9400010BD0E2010BD082010BD0023D360536011
:10D9500023700346024640330848998301881180AA
:10D9600040885080988B012190DF0028ECD1012065
:10D970006070002010BD0000FC280020A0360020B0
:10D9800010B5044601F016F821460A48FFF778FF63
:10D990002046FFF7FBFE074821460C38FFF754FEF0
:10D9A000204600F089F8204602F0E8FB2046FFF709
:10D9B00057FC10BD683200201CB5002348221449D2
:10D9C000082003F07BFA002803D000221146FFF75D
:10D9D0006DF8002000900190684660DF002803D0B9
:10D9E00000221146FFF762F80A4803F05DFA0028AA
:10D9F00003D000221146FFF759F8074803F076FAE2
:10DA0000002803D000221146FFF750F81CBD00008B
:10DA1000B42C002081D90100E11002001CB504469D
:10DA200081786A460C4802F08DFE002812D1607899
:10DA30001C21484309491C2340181A46694602F034
:10DA400047FF064806494030807A80000A58214640
:10DA5000684690471CBD00001C290020E4370020C8
:10DA6000401502007CB5134E00250C46306000299D
:10DA700018D06946002000F0B3F8002819D101A998
:10DA8000012000F0ADF8002813D16846017900208C
:10DA9000002901D0022004E069460978002900D05D
:10DAA0000B2020707068002802D1FEF74EFF05465B
:10DAB00028467CBDA028002010B51C4C0188606859
:10DAC00010290DD011290AD1401E606007D1FEF740
:10DAD0003CFF002803D02168002900D0884710BDF2
:10DAE00000281ED100210122084600F0B3F80028CA
:10DAF00001D0072811D107220221012000F0AAF845
:10DB0000002801D0072808D104220221002000F0BB
:10DB1000A1F8002805D0072803D02168002900D0EB
:10DB200088476068401C606010BD0000A02800208D
:10DB300010B5032000F008FA002801D0062800D113
:10DB4000002010BDF8B507460024224802E0641CFE
:10DB5000042C19D2A2008258BA42F8D1042C13D254
:10DB60001D4E1E4DF069002928D001290DD0022933
:10DB70000AD16000201840194578002D04D0F168C2
:10DB8000002901D028468847F8BD6100621829465F
:10DB9000AD5C511800914978002909D071680A22BA
:10DBA00051430D4A521CFFF74FF9002800D17770FE
:10DBB00000988178084810300155DEE7FFF786F9B4
:10DBC00005486100611810304919005D8D78A84240
:10DBD000D3D0F8BDC014020080280020AA33002052
:10DBE00004280CD2074A1269074B80001B5C0120F5
:10DBF0009840904300D0012008700020704700201A
:10DC0000FAE7000000050050C014020010B5042817
:10DC10000CD0072817D00A2805D00E2805D10C48AB
:10DC2000FFF726FD08E003F0FBF810BD08481321BC
:10DC30001C38808876DF08E00028F6D000221146E4
:10DC4000FEF734FF10BDFFF769FB0828F4D110BDC3
:10DC50001C28002070B50023042811D244000419A8
:10DC60000D4D012A02D101290DD000224600801954
:10DC7000094E801900290CD0012906D0022906D0AE
:10DC80000723184670BD0D30C2B22A55F9E742701D
:10DC9000F7E78270F5E70000AA33002010B5054AC7
:10DCA0000146127A0020D20702D0084600F054F84C
:10DCB00010BD00008028002070B50E4620490546A2
:10DCC0004E608D600020CA60A9071ED50024012285
:10DCD00011462046FFF7BEFF641C042C02D2002828
:10DCE000F5D012E0002810D1720804211548FEF783
:10DCF000A1FE002809D1FEF78BFE002805D11048AF
:10DD0000114A00211C30FFF705F8E90706D00F2261
:10DD10000E4952058A600023CB608A6100280DD12C
:10DD200007480B4A00211430FEF7F4FF002805D104
:10DD30000348084A01211830FEF7ECFF70BD0000CF
:10DD400080280020D014020085DF0100000500506B
:10DD500025F70100F9C90100FEB5784906464F686C
:10DD60004B690093BB00FB18002001220193520570
:10DD70000546734C3300FEF7F9FB180D13133749B2
:10DD8000596C828E858E97A1A5A5A5A5A5C3C8CDE2
:10DD9000D4DADA120B225205A260E5600D70FEBDE6
:10DDA00005208005A060E56060680F235B05584092
:10DDB000800209D5A260E560022E02D1E120C000F8
:10DDC0000AE07D20400107E0E260A560022E01D15B
:10DDD000C82001E0FF2091300E706421FEF7B6F9F3
:10DDE00078430022014646E005208005A060E560FA
:10DDF00060680F235B055840800204D5A260E5608F
:10DE000019204001E8E7E260A560E1E70520800510
:10DE1000A060E56060680F235B055840800202D572
:10DE2000A260E560CDE7E260A560D3E7052080054C
:10DE3000A060E56060680F235B055840800202D552
:10DE4000A260E56001E0E260A5600E70790000224A
:10DE500011E005208005A060E56060680F235B0588
:10DE60005840800202D5A260E56001E0E260A56052
:10DE70000E70002239460098FEF7E6FFFEBD05232E
:10DE80009B0544E06068012189050A468243A2603F
:10DE90000840E06010E061680120800502468A4386
:10DEA000A2600140E160E4E761680120800502466C
:10DEB0008A43A2600140E1600199C8E70F2149054A
:10DEC000E1601BE00F468869FFF700F811218A1B0B
:10DED0001C4E01D0002802D0A660E560FEBD012ADC
:10DEE0000BD91046C82148436421FEF72FF9796801
:10DEF00000224143B869FEF7A7FFE660A560FEBDBA
:10DF00000F225205A260E56015E007239B05A36080
:10DF1000E5600EE00D225205A260E5600122920547
:10DF200007E00322D205A260E560921001E00F2213
:10DF30005205E260A5600E70FEBD00008028002042
:10DF40000005005000008000F0B500210B4C0C4D86
:10DF500003273F048A00A258920056193268012311
:10DF60008B40034000D00323BA431B0413433360A8
:10DF7000491C0429EED30020F0BD0000C0140200AB
:10DF80000007005010B500780221FFF7DBFD10BD3F
:10DF900070B50E4D24236C680D4E6343641C6407FA
:10DFA000640F9B196C6059830221D9831C1D1C626C
:10DFB00000249C8301241C761A71120A5A7118805D
:10DFC000997003F055F9002070BD0000CC280020A6
:10DFD000D43400200022D243830004490428CA50CC
:10DFE00002D30818403002717047000068380020E2
:10DFF000F0B50025ED43002A02D00023042601E0FD
:10E0000004230A260B4C04E09F00E7597F1C04D030
:10E010005B1CB342F8D32846F0BD26185DB220360B
:10E0200035729E00A151002AF5D1E11840310871E6
:10E03000F1E7000068380020024909182820085636
:10E04000704700006838002008B56021095C2E2266
:10E05000514309184030C27F002A08D0521ED2B264
:10E060000C235A435218D2896B46521C01E04A8D48
:10E070006B461A80898D5980808B194692DF08BDC6
:10E08000F8B53E481422017851430C18E0680C2181
:10E0900048433A492769CC314018058941890091A4
:10E0A000241D466802F0E0FB01463846FEF74EF8B4
:10E0B000002932D000200099A2884D436188AE1912
:10E0C0008918CD1900222E4900280A6109D002F0D2
:10E0D000CBFB6188884222D0B54202D1A0880028BB
:10E0E0001DD0A06803281AD002F0BEFBA188CA196F
:10E0F00001461046FEF72AF8214C8808E06002F03D
:10E10000B3FB01462846FEF721F8002911D0002074
:10E11000B5422FD000280ED02CE00120CBE702F032
:10E12000A3FB01463846FEF711F815494861032064
:10E1300021E00120ECE7ADB2B7B202F095FB014659
:10E140003846FEF703F8064602F08EFB01462846E5
:10E15000FDF7FCFF864201D1781B09E002F084FB49
:10E16000064602F081FB01462846FDF7EFFF701AD4
:10E1700080082061022002F06DFEF8BDB838002052
:10E180002C29002010B507481422017851430818A3
:10E190000079042802D000F059F810BD012002F0E7
:10E1A00059FE10BDB838002010B50B481422017874
:10E1B00051430818094AC18811620079012806D024
:10E1C000032801D0042801D1FFF75AFF10BD012018
:10E1D00002F040FE10BD0000B83800202C290020BD
:10E1E00014225043054A002180180171C180022287
:10E1F0000161C2604161018170470000B8380020B0
:10E20000F8B5104C069E65780A2D19D027787D192F
:10E210000A2D00D30A3D14277D432D1928716A6108
:10E2200003C92961E860EB802E816078401C607032
:10E2300005480078002801D1FFF7B6FF0020F8BD9F
:10E240000420F8BDB83800202C29002010B50D4C52
:10E2500014212078484301190020091DFEF76CFCA9
:10E260002078FFF7BDFF6078401E60702078401C6A
:10E27000C0B220700A2801D100202070002002F0D6
:10E28000E9FD10BDB8380020F8B5224801694A1CE4
:10E290003DD024225143826889184E681E494C683B
:10E2A00047690079E11B0D022D0AED1C002814D1ED
:10E2B00001201A4A00045060184A403A5060184938
:10E2C00040000860174908601749012008602F20A6
:10E2D000FDF710FF0F4901200871B54200D2354605
:10E2E000E81900020C49000A403108600A494968EF
:10E2F000001B091B0902090A0002000AC91C81420D
:10E3000004D901200649400480390860F8BD02F0B4
:10E3100067FCF8BD7829002000150140401301403A
:10E3200080E200E000E100E000100140F8B50D4699
:10E3300011780646881D14461F2801D90C20F8BD07
:10E3400033880720062BFAD31927FF01BB4202D9D5
:10E35000164A9342F3D17288062AF0D3BA4202D900
:10E36000124FBA42EBD1114FBB4203D0BA4201D097
:10E370009342E4D8481C052220706A542078122267
:10E38000411C21702A5420784119308802F09EFFE8
:10E3900021784018C0B220704119708802F096FFB1
:10E3A0002178401820700020F8BD0000FFFF000019
:10E3B00010B500221146FEF779FB10BDF8B51648DE
:10E3C00001F034F9144D0026103D144C002807D0FC
:10E3D000616900291BD001206A461070684615E06B
:10E3E0002878002805D06169002910D06846067099
:10E3F0000CE0687800280CD0A16800226868FEF75D
:10E4000023FD002803D0A169002900D088472E7081
:10E41000F8BD6168F1E70000F42800208436002090
:10E4200070B5094B04469E7A082000250E4207D09D
:10E430000648844202D01889A04202D1002015600B
:10E4400070BD052070BD000018380020FFFF0000DF
:10E450000C214843064910B5012240188272911ED2
:10E460000181FF21C1720721FDF7B3FE10BD00003D
:10E470001838002010B5134C207900071FD46069AC
:10E48000401C6061E068002801D0042004E001F035
:10E4900021F9002803D0022002F018FE10BD2069E7
:10E4A000002809D06068C10701D00320F4E70121EA
:10E4B000084360600020EFE7FFF764FE10BD02F044
:10E4C000F9FD10BD2C29002010B5084841680A0745
:10E4D00008D48A0702D5012211434160022002F0CC
:10E4E000F5FD10BD02F0E6FD10BD00002C29002056
:10E4F000F0B52A49024603780A320C6989B0002B2C
:10E5000006D1838826498B4202D18179022901D024
:10E5100001203CE0418821810021224D33E00C267E
:10E520000B4673431E1877891F4EBE191FD01F4F0D
:10E53000F6190FD01C4FFF1CFE4223D19E183379D1
:10E540002B73184BF7889B1E1F8237895F82768951
:10E550009E8217E0134E9B1820361F793771DF8893
:10E56000223E37851F8977855B89B3850AE09E182F
:10E5700033792B760B4BF7889B1E9F833789DF837C
:10E5800076891E84491C037A8B42C8D800206946CC
:10E59000087021686846884709B0F0BDCC28002083
:10E5A00031F40000F6350020F3EDFFFF244BFFFFB0
:10E5B000F3B50546603000782E2148432E464719B2
:10E5C0004036F47F0C206043C1193A79601C891DE4
:10E5D00083B0904226D101AB0022284601F034F8E6
:10E5E000002822D010E0401EA04201D1002003E00C
:10E5F0000C206043C01912300246009001AB28463F
:10E6000001F022F8002807D0049800210170B08B97
:10E6100001A993DF05B0F0BDF07F0099401C641C98
:10E62000F077E4B23879A042DDD804980121017076
:10E630000020EFE7F8B500260124154D23E06968B6
:10E64000F0004718387821466A698140114218D095
:10E650008A436A6101F00AFC3A7821462B699140AD
:10E6600019400346934099420BD17978012901D092
:10E67000012100E000217B684140002B01D01046C1
:10E680009847761CF6B228788642D8D3F8BD0000A9
:10E6900050290020FEB50E46044681786A4623487C
:10E6A00002F050F8002827D160780C21204F484311
:10E6B000C019807A400620D4022E1ED0012E1ED012
:10E6C0001C4DA0781C21484319490023F8394118F2
:10E6D0001C226846A847002813D0022E0CD02078B0
:10E6E0000C21484312490C314018807A12498000AD
:10E6F0000A58214668469047FEBD104DE1E7104D8F
:10E70000DFE7022EF8D060780C214843C019817AE7
:10E71000BF221140817260781C214843044934397A
:10E7200041181C231A466846A847D8E71C29002030
:10E73000183800203910020030150200110B0200B9
:10E74000310A020070B50546114A124800241C2304
:10E7500063431B189B7EFF2B04D0641C072CF6D34D
:10E76000104670BD0A78022A09D01C226243101894
:10E77000FD22827607221030FDF712FD04E01C21F5
:10E7800061430818FE2181762C700022E8E7000022
:10E790004380000020370020F7B505250F4F0646BF
:10E7A0000024002E0AD01C206043C01907223146E5
:10E7B0001030FDF719FD002807D00AE01C20604347
:10E7C000C019018B0298814203D101980025046091
:10E7D00002E0641C072CE4D32846FEBD203700204D
:10E7E0007CB5054681B26A46074801F0ABFF0400DC
:10E7F00008D15421684601F0D1FF040002D1284617
:10E8000001F042FF20467CBD1C29002070B5054662
:10E810000C46100003D000221146FEF747F92246AD
:10E8200029461248FEF71CFF2078112802D015282F
:10E830001AD10DE0042229460D48FDF7B1FC0C4821
:10E8400003210A38002289030069FEF7FDFA05E07A
:10E850006068018805480C30FFF762F8002803D093
:10E8600000221146FEF722F9002070BD5C32002024
:10E870000A2800201FB56946087301F0FBFF002835
:10E8800003D000221146FEF711F903A800F08CFA1C
:10E89000002803D000221146FEF708F96C46052136
:10E8A000601DFDF796FC6846427901210A43E1208C
:10E8B0000240DF200C32024068464271072282711A
:10E8C0001022C2710A480090684601710522611D3C
:10E8D0000848FDF765FC07486946123800F078FBE8
:10E8E000002803D000221146FEF7E0F81FBD00000B
:10E8F0000DE8010014280020F3B5044660300078CC
:10E900002E214843071981B0384602F04BF9060022
:10E9100023D0124D686802281FD24034A18B3822C0
:10E920000F4C5043031959800299002907D0002148
:10E9300021542E223946181DFDF732FC01E0022138
:10E9400021546868382141430919401C4E636860AE
:10E95000A968884201D101F0B3FEFEBDFC28002069
:10E96000B0360020F8B5044660300D4600782E2100
:10E970004843001902F016F9010016D00B4842680E
:10E98000022A12D240343823A68B5343084C1F4628
:10E990001B195E800126E6555D60521C596342607A
:10E9A0008068824201D101F08BFEF8BDFC28002076
:10E9B000B0360020F0B5054693B000200290FF2449
:10E9C000ED480E94007800284BD0EC4F38680028B2
:10E9D00047D001A800F0DAF9002803D00022114640
:10E9E000FEF764F8281D05902A2069460883FF2059
:10E9F000002688710E710396E04C28880C3C102884
:10EA00000ED0A88803AA0221FFF70AFD002807D12B
:10EA100003980C2141430919CA7A69468A714871E1
:10EA20002888132217287CD00FDC10281BD011282F
:10EA300053D0132876D0142813D103980C214843BF
:10EA40000019C07AFF2871D08DE0CD4918286BD00D
:10EA50001C286AD0522804D1B87A8000095801A82D
:10EA6000884713B0F0BDC74F03AA01213846FFF70E
:10EA7000D7FC0028F5D103990C2048430222001945
:10EA8000827211236A4613745171A9880181072289
:10EA9000A91DFDF785FB687DC10707D04108B64871
:10EAA0000830405CFF2808D00E9006E03A460EA9D8
:10EAB000A81DFFF771FE00280ED103990C225143C7
:10EAC00009190E98C8728A7A08231A438A7269460D
:10EAD000887101A8FEF7A2FF39E103980C21484391
:10EAE0000119887AFD2210408872010706D5C009F5
:10EAF0000DD0002101A8FFF7CDFD08E06846807920
:10EB0000FF2804D001F0C0FDFF20694688710398FA
:10EB10000C2250431021001981721220694608749A
:10EB200015E17FE030E001E0D5E00EE1EA890EA9D1
:10EB30000020FFF731FE00280ED103980C2250432D
:10EB400000190E99C172837A0822134383726846B2
:10EB5000817101A8FEF762FF03980C214843001958
:10EB6000C07AFF2806D003981C21484383494039C6
:10EB70004018029003981C21484383494218A888F2
:10EB80000023029982DF6CE768460274039B0C2025
:10EB900058430119887A042210438872C87AFF28E2
:10EBA00030D01620694608741820434373480E215C
:10EBB000243818180830FDF70CFB03980C21484343
:10EBC0000019817A40221143817203990C2200209E
:10EBD0004A430A901219D27A1C235A436A4B0C906A
:10EBE000D2180B921C2251431A46C432891807913D
:10EBF000089009903A1DA88807AB00217FDF002804
:10EC0000C1D1A4E00EA8FFF79DFD002801D0064663
:10EC1000DBE769460E98887103990C225143091964
:10EC2000C872D2E7787A400840007872039A0C20C4
:10EC30009446424311198B7AFB2003408B721420B7
:10EC40006F463874A879002804D0C87AFFF7C8FD49
:10EC5000AE797CE0E879400779D5B879FF2876D09D
:10EC600008273B438B72EB7A9B0708D51C2503468C
:10EC70006B43454D5B199D7E6D086D009D76CB7A8B
:10EC8000FF2B64D0A25C022A10D01C2250433E4DC0
:10EC9000072240191030FDF783FA684680791C215D
:10ECA00048434019817EFD2211400EE061461C223E
:10ECB0005143324A403A89184A8A1C214843324912
:10ECC00040180283817E490849008176012101A80C
:10ECD000FFF7E0FC3BE0A8790209012A23D10007F5
:10ECE000000F01281FD103980C2242431219927A77
:10ECF000120718D5182148432049243940180E21FD
:10ED00000830FDF766FA16206946087403980C214E
:10ED100048430119887A602210438872787A022168
:10ED2000084378720FE003980C2250430019827A4E
:10ED300080231A43827215206A461074B87A8000C4
:10ED4000095801A88847002601E068460274324647
:10ED500004A901A8FDF7B6FE6846007C122800D081
:10ED60007FE603980C2141430919897A0129F7D0DC
:10ED7000FFF76EFB75E600000C2900202438002008
:10ED800050150200FFFF000020370020002806D0A9
:10ED9000FF21017041708170C170002070470148EF
:10EDA000704700000E800000F0B585B0040036D03A
:10EDB000294800250560457285722846FFF748FB03
:10EDC000254818212438FDF704FA0026FF2730468D
:10EDD00001F05AFC21488755761C072EF7D35421A1
:10EDE000684681800721C1801D481C490090083178
:10EDF000684601F0C3FD00280FD1184E0120083EDF
:10EE00003070207800280CD069468888C98848432B
:10EE100081B23046103001F0C1FC05B0F0BD1148A0
:10EE2000FBE7114F00240D48A1B202AA083001F0FF
:10EE300089FC002809D11C206043C01900231C2232
:10EE400002A901F045FD002801D03570E5E7641CFA
:10EE5000072CE8D3E1E70000243800201429002023
:10EE60006DEE01000E80000020370020FFB55548F0
:10EE70008FB00068189F1E46002851D0542F4FD8DD
:10EE80006846FFF783FF002803D000221146FDF7F4
:10EE90000DFE002468460470047125460597069609
:10EEA000A9B20DAA484801F04DFC002806D108225D
:10EEB0000DA90F98FDF798F9002819D06D1C072DA2
:10EEC000EED3684680780790FF2829D01098202537
:10EED000032810D03D481C21301AFDF737F90127CF
:10EEE00007282DD204A80290119800281AD021E0FA
:10EEF00068468570E5E7542F03D0402069460871C5
:10EF000001E06846057169460879032108436946AE
:10EF1000087104A8029001A96846119AFDF7D2FD74
:10EF200013B0F0BD07993846884027491039496821
:10EF30000842F5D0079802F0D9F96846057138E023
:10EF400020481C214038301AFDF700F900280BD06A
:10EF50001C4D1821243D701BFDF7F8F800281AD02D
:10EF6000402069460871DBE704A8029068460571F5
:10EF7000447014480A940C300B904C380790684643
:10EF800080781C21484311494018089007A8069032
:10EF9000182005900DE03021684601714470C7705B
:10EFA00008480C38807A800703D428461821FDF7DA
:10EFB00010F9109869460228087901D00221A5E7C6
:10EFC0003843A5E7243800201C29002020370020E2
:10EFD00070B5064618480D46007800280ED017492F
:10EFE000002E0ED0002D0CD02868002809D0144C1B
:10EFF0002168002907D011480A3870BD0F48801FCA
:10F0000070BD084670BD20600522691D201DFDF7FA
:10F01000C7F82879A072207A0221400840000843EE
:10F02000FB2210402072E07901231843084310406E
:10F03000E0710020307070BD0C2900200E800000AF
:10F040002438002010B51349134B0978002910D03B
:10F05000002803D0017800290BD102E00E48801D62
:10F0600010BD0E490A68002A03D0407800280ED14E
:10F0700001E0184610BD094A0C3A947A012C06D0DA
:10F080001846A307F6D51089091D7EDF10BD02487A
:10F09000083010BD0C290020088000002438002012
:10F0A00010B5184A184B1278002A13D09A1D002860
:10F0B00005D0002903D00278002A0BD101E01046C8
:10F0C00010BD124C00222468002C03D04078002888
:10F0D0000CD101E0184610BD0C480C38807A01288C
:10F0E00004D02423184204D0012005E0064808304B
:10F0F00010BD000602D50220087000E00A70002052
:10F1000010BD00000C2900200880000024380020D9
:10F11000F0B5284A284B1278002A2BD09A1D0028D7
:10F120000BD0002909D00C68002C06D08C68002C6C
:10F1300003D0007800281DD101E01046F0BD1F4823
:10F140000068002816D000231C4C1A4618460C3CB8
:10F15000E57A854202D1A57AAD0724D40D7B95428C
:10F1600011D91C2506466E43154D7519AE7EF6075E
:10F1700002D008E01846F0BD8E689700F5510D4D9D
:10F180000835A854521C0D799D420CD91C25064601
:10F190006E430B4D7519AE7EB60704D49F00103533
:10F1A0000E685B1CF551401C0728D1D30B710A7304
:10F1B0000020F0BD0C290020088000002438002029
:10F1C0002037002010B50E4900238A78CC78A2425F
:10F1D00012D0521CD2B28A70022A00D18B708A7867
:10F1E000074B92001C339A580260486910180002BD
:10F1F000000A4861012010BD0360002010BD00001E
:10F2000078290020F7B5144C0025A76823691EE073
:10F2100024215943C9194E68864202D9301A4860E0
:10F2200017E0801B751900264E600E750E699C460E
:10F230000B6AB646002E0AD0019E76193602360AAF
:10F240008E607646CE6016680E6261461160591C6B
:10F25000DED12361FEBD00007829002010B5002812
:10F2600003D0112802D0FDF77DFC10BD0248082212
:10F2700041681143416010BD2C29002010B51C4C81
:10F28000217820464068012906D0022929D0032987
:10F2900012D1000717D513E0000711D41548142226
:10F2A000017851430818C188A28B891A0904090CF6
:10F2B000C18002D001F0C2FE10BDFEF7C7FF10BD35
:10F2C00000F0EAFB10BD6069401C606100F002FACA
:10F2D000002803D0207801F0BDFD10BDFEF752FFDD
:10F2E00010BD6078044980000858804710BD0000B8
:10F2F0002C290020B83800207C15020010B528DF2A
:10F30000FFF7ACFF10BD10B529DFFFF7A7FF10BD59
:10F3100010B50446C0B2FDF7CFFE204610BD002058
:10F32000704700207047002070470000F8B506467F
:10F330004078182104464C4324490C22504361185C
:10F34000224A00254B6818328018AE462F469C464C
:10F35000002B0CD0827A1346D20908D05A0606D464
:10F360000D461A4A614689B2175908358E46174C20
:10F37000008918343B4672462946A9DF0B2819D06C
:10F38000002800D01248012F13D170780C21484377
:10F39000001900890F4AA7DF00280AD00E498842C9
:10F3A00012D0082810D0891C88420DD011280BD00B
:10F3B0000020F8BD70780C21484301230019008912
:10F3C00072462946A9DFE0E70148F8BD0038002071
:10F3D00041800000FFFF00000230000070B50C46C5
:10F3E000014660781822084D50434019382301F037
:10F3F0006FFA002807D161781822514349194A68E9
:10F40000521C00D14A6070BD00380020F3B585B0B1
:10F410000D460E206946088268780C210327484370
:10F42000224E3B468019008904AA6946AADF0028BB
:10F4300038D1687818214843741A001969460A8A35
:10F440000830FCF7D1FE0028687807D0182148431F
:10F450000119496800290DD0154E0CE00C214143DB
:10F460008919897A89071DD4182148430019FCF7A6
:10F47000B0FE17E00F4E27506846028A68781821C0
:10F4800048430019426068784843001969460830CB
:10F49000FCF786FE687818214843011938231822A2
:10F4A0000598B047002007B0F0BD000018380020D4
:10F4B000110B0200310A020010B5FFF737FF10BD33
:10F4C00010B5FFF78BFF10BD10B5FFF79FFF10BD04
:10F4D00070B50646104C0125B540E068FDF7F6FC16
:10F4E00000280CD16169294207D1304600F0BEFCEA
:10F4F0000028206904D0284303E0A943616170BD5E
:10F50000A84320616069002228436061A168E06827
:10F51000FDF79AFC70BD00005029002010B500F0E6
:10F52000A5FC002801D0002000E0012000F07CFFB5
:10F5300010BD000070B51B4C207900072ED41A486E
:10F540001422017851430D182E6901F08DF90146FE
:10F55000E8882A89761E80188019FCF7F7FD216952
:10F560000025002909D06169814206D1E560606803
:10F5700001210843606000200AE000F0ABF8002899
:10F5800002D00220E56003E02069002803D00320B8
:10F5900001F09CFD70BDFEF7F5FD70BD01F08AFD28
:10F5A00070BD00002C290020B8380020F8B51E4C92
:10F5B0002078002837D02069002807D00026E0688E
:10F5C000002805D00025002E04D013E00126F6E720
:10F5D0000125F8E7684651DF052806D0002806D047
:10F5E00000221146FDF762FA04E0012602E02169DB
:10F5F00000988847002D12D1608869460880A0686D
:10F6000061DF052806D0002806D000221146FDF74C
:10F610004DFA04E0012502E0E168A0688847002E69
:10F62000D8D0002DCFD0F8BDA029002041880548B2
:10F630000288914204D34088814201D8012070475A
:10F6400000207047EC28002030B50989002A05D039
:10F65000D088491C814212D1002030BD0246603260
:10F6600014782E256C432418A48DA142F4D0491C93
:10F67000198011782E2251430818808D02E01980DC
:10F68000D088401E5880012030BD00001048018CF9
:10F69000C9B2012917D1818C090714D1018D09063E
:10F6A0000A0F03D1828D1206120F0ED0090F012905
:10F6B00003D1828D1206120F07D0032903D1808D4A
:10F6C0000006000F01D000207047012070470000A5
:10F6D000C00F00F070B50E481422017851430C1889
:10F6E000256901F0C1F80146E08822896D1E801865
:10F6F0004019FCF72BFD07494A69824206D3824232
:10F7000002D10869002801D0002070BD012070BD21
:10F71000B83800202C290020800701D00020704735
:10F720000120704710B50448017AC90702D000785B
:10F73000FEF712FB10BD000080280020F8B523481A
:10F7400001690091457833E02048E900C0680E184F
:10F7500034782AE0182060437168641C0818B17876
:10F76000E4B2A14200D100240178022902D0032989
:10F770001BD113E0154A40682421926841438F1839
:10F78000397D002911D001F0FBFC002038750CE018
:10F7900024277843C0180275006A03E00B49002251
:10F7A0008B680869471CF3D108617078A042D1D1F9
:10F7B00028466D1EEDB20028C6D1044801690098A4
:10F7C000814201D00120F8BD0020F8BD7829002039
:10F7D000F8B50446384800270169009146785CE096
:10F7E0003548F100C2688D1851E0601C07D0324ADC
:10F7F00024209268604321468018046A24E0287817
:10F80000182141436A68401CC0B252182870A97878
:10F81000884200D12F70284B516824209B684843B0
:10F82000C0181378012B34D1037D002B31D193689C
:10F830008360D368C360136903615269C2611E4A61
:10F840005279002A00D087601B4B82685B6996461C
:10F850009C46D31A1A02194B120A9A4202D2C36862
:10F86000D21808E0724663469A1A1202C368120A56
:10F87000934202D99A1A426000E0476087600122F1
:10F88000C7600275921E0262084601F047FC601CC8
:10F89000ABD1287869788842A7D13046761EF6B277
:10F8A00000289DD1044801690098814201D00120BF
:10F8B000F8BD0020F8BD000078290020FFFF7F0080
:10F8C0008AB0654806220090644B11460020FDF77F
:10F8D00061FA002803D000221146FDF7E7F8604ADC
:10F8E00000216048FDF716FA002803D000221146D7
:10F8F000FDF7DCF85C4A06AB07CA07C3002468467C
:10F900008484584801251038029058480490A80271
:10F91000059009A8009003950323554A02A906A85B
:10F92000FDF700FB002803D000221146FDF7BEF8CA
:10F93000504A51490320FEF7BFF9002803D00022A6
:10F940001146FDF7B3F869460020FEF78BF8002852
:10F9500003D000221146FDF7A9F868460078022876
:10F960006DD0002069460871FEF726F8434A0A2147
:10F970000820FDF7B9F9002803D000221146FDF751
:10F9800095F83FA0FCF7E2FD68460079FEF772FFAC
:10F99000FDF76AFF002803D000221146FDF786F824
:10F9A000364A0A21B03A0820FDF79EF9002803D014
:10F9B00000221146FDF77AF81120694608720422E8
:10F9C00032A102A87CDF002803D000221146FDF7F7
:10F9D0006DF8FF2091300094694601940880420040
:10F9E0004A808C80C88068467ADF002803D00022D5
:10F9F0001146FDF75BF801F077F9FCF7C5FF1C2114
:10FA00006846FCF7E6FB0520C00301900F200004C8
:10FA100002900094032168460173C48105741D4857
:10FA2000069005946846FDF787FE002803D0002263
:10FA30001146FDF73BF80320FDF790FC04E00120A0
:10FA400090E7FDF741F948DF0028FAD0002211467F
:10FA5000FDF72CF8F5E700007DCD0100B42900206A
:10FA6000250C020010280020B4140200FC2C0020F9
:10FA7000B51202000DDC0100CD0C0000AC310020FD
:10FA8000424C4520414E43530A000000414E43532F
:10FA900000000000B1E3010010B5044808224168ED
:10FAA00091434160007801F0D5F910BD2C29002068
:10FAB00070B5054600790E46801C1446C0B2117818
:10FAC000821C8A181F2A01D90C2070BD0A46491CC5
:10FAD0002170401CB0542078FF22411C2170325408
:10FAE00020788119288801F0F1FB21784018C0B2F4
:10FAF0002070AA88002A09D0A968002908D0801996
:10FB0000FCF74EFB2078297940182070002070BD4A
:10FB1000072070BDF8B514780746A01C15460E46A0
:10FB20001F2803D87878801C1F2801D90C20F8BD25
:10FB30001D20001B80B26946864608803019801C53
:10FB40007DDF0028F3D13878022805D16846008887
:10FB5000704501D8092107E078780821002801D0F4
:10FB6000704501D968460088421C3255641CE2B2D7
:10FB7000B1542978801C081828700020F8BD002096
:10FB800070470020704700207047000010B5044601
:10FB90001DA0FCF7DBFC207820498000095820A03C
:10FBA000FCF7D4FCA0781D4980003039095821A009
:10FBB000FCF7CCFCE17824A0FCF7C8FC27A0616826
:10FBC000FCF7C4FC2AA0FCF7C1FC6078C00702D097
:10FBD0002AA0FCF7BBFC6078800702D52AA0FCF7BE
:10FBE000B5FC6078400702D52BA0FCF7AFFC60782D
:10FBF000000702D52CA0FCF7A9FC6078C00602D54E
:10FC000029A0FCF7A3FC10BD0A0D4E6F746966694C
:10FC1000636174696F6E0A0D0000000054280020B3
:10FC20004576656E743A2020202020202025730A16
:10FC30000000000043617465676F72792049443A9F
:10FC40002025730A0000000043617465676F7279B4
:10FC500020436E743A25750A000000005549443A65
:10FC600020202020202020202025750A0D000000C3
:10FC7000466C6167733A0A0D000000002053696CFE
:10FC8000656E740A0D00000020496D706F7274611A
:10FC90006E740A0D00000000205072652D657869B1
:10FCA0007374696E670A0D0020506F73697469760A
:10FCB0006520416374696F6E0A0D000031B5054C13
:10FCC00004E0401E00902046FCF704FA009800284B
:10FCD000F7D138BDE70300008207D30EFF229A4018
:10FCE0008907090E10B5994000280BDA03071B0F8E
:10FCF000083B9C080C4BA400E318DC6994430C43BC
:10FD0000DC6107E08408094BA400E41823689343EE
:10FD10000B432360C106C90E0120884004490860D6
:10FD20000449086010BD000000ED00E000E400E0C0
:10FD300080E200E000E100E0F3B581B00F460198F9
:10FD400000F0D4FC012400281E4E019817D0FEF7C5
:10FD500073F98019403000798009032802D0012806
:10FD600006D007E01848006901998C40204201D173
:10FD7000022100E00321019800F000F9FEBD00F02F
:10FD8000C1FC0028FAD00198FEF756F9054681001B
:10FD9000C81D0E4AF93089180A6980B222430A61E7
:10FDA0000B49401800210160002FE7D00198FEF7B1
:10FDB00043F9800030580028E0D00648AC40446049
:10FDC000FEBD0000683800200005005000650040BE
:10FDD0000060004000630040F8B5204F0D46044627
:10FDE0003819282141560026C8171346401C01D057
:10FDF000082630E0EA7819462046FEF7F9F8411C5B
:10FE000028D0174BAA78A100C918002A03D00A6885
:10FE100002239A4301E06A7892000A60E978002997
:10FE200010D082000F482978101802690E4B1A4032
:10FE30000261E206D20C8907890B0A4301690A4371
:10FE4000026108E0381840302A78017992011143A4
:10FE5000017100E004263046F8BD0000683800203B
:10FE60000007005000650040FFE0FCFF03490969FE
:10FE7000C140C807C00F00D00120704700050050E6
:10FE800070B5124DA87B002801D0082070BD0F4925
:10FE900000204039421E0B182033401CC0B21A7299
:10FEA0002028F8D300242046FEF794F8641CE4B21E
:10FEB0000A2CF8D301210620FFF70EFF0120044988
:10FEC000C00748600120A873002070BDA83800203A
:10FED000006300400248807B002800D0012070476A
:10FEE000A8380020F8B504461F480D4600192030F8
:10FEF000082141560026491C01D008262FE0A97888
:10FF000000291DD0012200212046FEF771F8411C76
:10FF100014D0830015482A78181869780369144F9B
:10FF20003B4003610369E706FF0C9207920BC90788
:10FF3000C90A3B430A431343036104E004260EE06D
:10FF40000121C94301720B4A0320A10089180860EE
:10FF50006A780120A0400849012A02D0C8603046D2
:10FF6000F8BD8860FBE700006838002000650040AD
:10FF7000FFE0ECFF0007005000050050820006483B
:10FF80001018026803231B049A43026002680904E4
:10FF90000A43026070470000000700500349401800
:10FFA0000068012800D00020704700000060004079
:10FFB00000B595B00300FCF7D9FA0817050B0D152D
:10FFC000130B1A0B052006E000221146FCF76EFD0C
:10FFD00015B000BD0220FDF761FE0028F4D1F7E75F
:10FFE0000320F8E70420F6E700F01AFFF0E7082006
:10FFF00069460871087304A800900CA8029006488E
:020000040002F8
:10000000FFF786F8002803D000221146FCF74EFDCA
:100010006846FDF793FAE0E70228002010B5017862
:10002000002914D001293DD002292AD004290DD15C
:10003000838AC2692449807D002B2DD0C3008000B3
:100040009A180958526821A0FCF780FA10BD22A026
:10005000FCF77CFA6420FFF731FE2D48FDF7EAFA41
:10006000002803D000221146FCF720FD2848FDF7A8
:10007000A5FA002803D000221146FCF717FD25A0A1
:100080001FE01149C268603980680A62C861084689
:100090001C30FFF77BFD10BD8000095824A0FCF741
:1000A00055FA10BD0848254960388088884207D035
:1000B000132176DF002803D000221146FCF7F6FC5E
:1000C0001FA0FCF743FA10BD6028002025733A20DA
:1000D00025730A0D000000004170706C65204E6FA2
:1000E00074696669636174696F6E205365727669BD
:1000F000636520646973636F7665726564206F6EF3
:1001000020746865207365727665722E0A0000009F
:100110005C3200204E6F74696669636174696F6E4A
:100120007320456E61626C65642E0A0D000000004C
:1001300025733A20284E2F41290A0D00FFFF0000A9
:100140004170706C65204E6F746966696361746993
:100150006F6E2053657276696365206E6F742064DC
:100160006973636F7665726564206F6E207468656D
:10017000207365727665722E0A00000070B506461F
:100180000088194D102818D0112825D0392801D001
:10019000552811D115A0FCF7D9F91321A88876DFCD
:1001A000040009D000221146FCF780FC200003D097
:1001B00000221146FCF77AFC70BD0FA0FCF7C6F9CF
:1001C0000720FDF76BFD040003D000221146FCF769
:1001D0006DFCB088A880E9E70BA0FCF7B7F9002018
:1001E000C043A88070BD00000028002054696D65E0
:1001F0006F75742E0A0D0000436F6E6E6563746533
:10020000642E0A0D00000000446973636F6E6E6512
:10021000637465642E0A0D00F0B507460446603726
:1002200038782E225043061920464A88403089B03B
:100230000090002A3BD108310591357908782818BB
:10024000032800D9032030710020079014E007989C
:100250000A21484305990A2241180C206843801955
:100260000890801D891CFBF79BFF089800210182E4
:100270000798401C6D1C07903079A842E7D80C20E5
:100280004543A819418838782E2250430019808DA3
:1002900081420CD23079032809D00099C8772046D2
:1002A000FDF7D2FE01000FD00020787009E0009821
:1002B0000025C57701A92046FEF77AF9010005D08F
:1002C0007D702046FEF74EFB09B0F0BD6846007910
:1002D0000028F9D001212046FEF70EFB204600F051
:1002E00075F8F1E7FEB50446603001900D460078E0
:1002F0002E214843224603194032D07F0C267043FA
:10030000C018801D8446294668880831002812D10B
:100310001B4E0D880DE0062747437F18BF88B74264
:1003200006D106256843401841886046418102E0B5
:10033000401C8542EFD8002568460570D07F1979AA
:10034000401C884203D101206946087010E0D07734
:1003500069462046FEF72CF9010005D0019845704A
:100360002046FEF7FFFAFEBD684600780028FAD066
:1003700001212046FEF7C0FA204600F027F8FEBD16
:100380000229000070B5104A8C89D58B1346703352
:100390000C31AC420AD1147E1C71D28A5A808B88EF
:1003A0008A1D0949703100F015F970BD558DAC42B8
:1003B000FBD1054C203424791C71528C5A808A88D8
:1003C000891D00F075F870BDF435002070B5144932
:1003D0000446C8682546401CC86089680026603508
:1003E00088421BD220464030C67729782E22491CED
:1003F000C9B24A4329700B4B1219C900C9180B889E
:100400001380498851801671808B012190DF010093
:1004100003D06E702046FEF7A5FA70BD6E7070BDF9
:10042000FC280020A036002010B51D4A1D490300FD
:10043000FCF79CF805040B312027120048780128AE
:100440001FD0022808D1032005E04878002804D0F6
:10045000032801D10220487010BD134B04201860FE
:10046000124B012018609368D2689A42F3D0FCF7CF
:100470007FF910BD4878012806D0022804D003284F
:10048000F7D1FCF7ADF910BD9068D1688142EED18B
:10049000FCF794F910BD48780128E8D010BD0000A1
:1004A000583800202429002000250040002000406A
:1004B000F7B5464F444816460025454CF8617FE0A5
:1004C00020780300FCF752F806041A33384E7B18E4
:1004D0000198405D6D1C002801D005202070019816
:1004E000401900F0F8FE01213861217036492D1DB8
:1004F0004031C968884263D0052031E06169002934
:100500000CD00198405DB875C2002F486D1C1318BF
:100510005B68E360805C012804D005E00520207062
:100520006D1C4DE002202070491E616148E0019879
:10053000405DB8820320F2E70199B88A495D6D1CDD
:10054000090208430021B8826180002801D00420FC
:1005500006E004203870009801681C488847012094
:1005600020702DE0B87D184BC100C8184188608804
:10057000814209D9B98A814206D90199E268495D67
:100580001154401C60806D1CB98A80B2814205D034
:10059000B97DCA00D1184988814211D1E268002191
:1005A0001154B98A814201D9081A451901202070D5
:1005B00004203870009801680448884700E03546F8
:1005C000B54200D27CE7FEBD24360020B4340020C2
:1005D000CC280020F8B5254E15460C460746082BBA
:1005E00004D003203070396830468847287820725C
:1005F000607A69784008C9074000C90F08436072F3
:10060000FD21084069788907C90F490008436072D5
:10061000FB21084069784907C90F890008436072C7
:10062000F721084069780907C90FC90008436072BB
:10063000EF2108406978C906C90F090108436072B3
:10064000A878A072E878E072281D00F044FEE0600F
:1006500006480830FDF766F8002805D00320307002
:10066000396802488847F8BD0220F8E76436002060
:100670000021425C002A01D001207047491C062954
:10068000F7D300207047000070B505461C200B49C9
:1006900068434418204611300621FBF79AFD204696
:1006A0001021FBF796FDFF2121740020A176C043A5
:1006B0002083284600F01AFE70BD0000203700207D
:1006C00070B50024074D084E05E0382060438019BE
:1006D000416B8847641CA8688442F6D30020686098
:1006E00070BD0000FC280020B03600200449081826
:1006F00028214156042901DB012070470020704762
:10070000683800200449081828214156042901D2DC
:100710000120704700207047683800200749097998
:10072000490701D408207047002804D004494978BB
:100730000160002070470E20704700002C29002027
:10074000B838002070B5134B1B795B0701D4082023
:1007500070BD002817D0002A15D00368022B10D2D4
:100760000C240D4D5C432E59002E0AD046686019AA
:100770000489458940686143654371182818884297
:1007800003D8072070BD0E2070BD1360002051609B
:1007900070BD00002C29002084390020FEB50446DD
:1007A00026480E460079400701D40820FEBD002CE3
:1007B00025D02068022836D20C21214D48432958E3
:1007C000002930D0401941890289406851430918F5
:1007D0006068814227D9FEF79FFF002811D060682A
:1007E000019021680C2251434F1979680091401AF9
:1007F00039890D46FBF7AAFC002914D103E00E202D
:10080000FEBD1020FEBD29463046FBF79FFC0029A7
:1008100009D1002E07D078890099454301984919DC
:100820008019884201D90720FEBD002002460090B1
:10083000334621460320FDF7E3FCFEBD2C290020B2
:100840008439002010B507484469601C06D000F0C8
:100850000BF801462046FBF779FC10BD012000078C
:10086000406910BD0010001001200007006980B22F
:100870007047000070B5002413482546047044708A
:100880002846FDF7ADFC6D1C0A2DF9D30F4D6C8089
:10089000FFF7D8FFC61EFFF7E7FF46430A4A0020CE
:1008A000AE60CC326C610C214143545089180C81EC
:1008B000401C4C810228F6D32C70AC610420EC6102
:1008C0006860002070BD0000B83800202C2900208E
:1008D000FFB5284881B000791F4616460C464007F0
:1008E00002D4082005B0F0BD002C1DD001980028CE
:1008F0001AD02068022815D20C211F4D48432958D0
:1009000000290FD041194A89088949684243511882
:100910006268914206D9002E04D0B04202D3F11988
:10092000814203D90720DDE70E20DBE70198FEF7BF
:10093000F3FE00281BD03846FEF7EEFE002816D046
:100940006068FEF7E9FE002811D060683246C119E0
:100950000198FBF725FC009620680C2148432D5890
:10096000002202212046019BA8470020BAE7102060
:10097000B8E700002C29002084390020F8B52A4D62
:10098000044628790E46400701D40820F8BD002C03
:1009900020D0002E1ED0206800281BD0FFF764FF57
:1009A0000146A088814213D3102811D3E088002883
:1009B0000ED0FFF747FF471EFFF756FF4743E28879
:1009C000A088A96842435218974201D3800703D0F8
:1009D0000720F8BD0E20F8BD6888022821D003C684
:1009E0000C22124B5043C218516021681950A08844
:1009F0001081E0885081FFF737FF0146A088E28828
:100A00005043401EFBF7B8FB441CFFF72DFF014687
:100A1000A86861430818A8606888401C68800020A6
:100A2000F8BD0420F8BD00002C29002084390020E6
:100A3000F8B5044621481E46007915460F46400782
:100A400001D40820F8BD002F1CD0002C1AD021683A
:100A5000022915D20C20414319484258002A0FD0D0
:100A600008184289018940684A4310186268904218
:100A700006D9002D04D0A94202D3A819884203D96F
:100A80000720F8BD0E20F8BD3846FEF745FE0028C9
:100A900011D03046FEF740FE00280CD06068FEF70B
:100AA0003BFE002807D02B463A46214601200096FF
:100AB000FDF7A6FBF8BD1020F8BD00002C29002092
:100AC0008439002010B5114902460878002811D059
:100AD00004280FD0022A16D0032A0BD10A79120754
:100AE00011D48A69521C8A61032A08D0022802D0D4
:100AF00000F0B0F910BD487800F0E8FA10BD0D2004
:100B0000FCF730F810BDFEF7B9FB10BD2C29002012
:100B1000F8B5044621481E46007915460F464007A1
:100B200001D40820F8BD002F1CD0002C1AD0216859
:100B3000022915D20C20414319484258002A0FD0EF
:100B400008184289018940684A4310186268904237
:100B500006D9002D04D0A94202D3A819884203D98E
:100B60000720F8BD0E20F8BD3846FEF7D5FD002859
:100B700011D03046FEF7D0FD00280CD06068FEF79B
:100B8000CBFD002807D02B463A462146042000968C
:100B9000FDF736FBF8BD1020F8BD00002C29002021
:100BA0008439002070B50D4B00210B4A9B680EE084
:100BB000CC00A518AD788678B54207D1145B0588BE
:100BC000AC4203D1C8008018406870BD491C9942EE
:100BD000EED3002070BD0000A0360020FC280020CD
:100BE00070B501240B49600408600B49401088600F
:100BF000094940398860094D6C602F20FBF77AFA6B
:100C0000AC60074D00242F206C61FBF773FA2C7148
:100C100070BD000080E100E0401301400010014081
:100C20007829002008B50F480F498088884218D0DD
:100C30000C4869460A30FEF733FA002803D0002238
:100C40001146FBF733FF68460078002809D10548B4
:100C50000A30FEF7F7F9002803D000221146FBF70F
:100C600025FF08BD00280020FFFF0000F7B582B077
:100C700002981446806A0F46002833D00298002557
:100C80002030009028E00298816A0C2068430E18FA
:100C9000217830794A1C2270C01C785420781622A2
:100CA000411C21703A542078C119308800F00EFBA5
:100CB00021784018C0B22070B288002A09D0B168EB
:100CC00000290FD0C019FBF76BFA20783179401852
:100CD00020706D1C0098EDB2007BA842D3D8002094
:100CE00005B0F0BD0720FBE73EB54549454863DF49
:100CF000002803D000221146FBF7D8FE02AC424880
:100D0000A11C63DF002803D000221146FBF7CEFEB2
:100D1000A11C3E4863DF002803D000221146FBF7E8
:100D2000C5FEA11C3A4863DF002803D0002211460B
:100D3000FBF7BCFE002000900190202235490120E5
:100D4000FCF726FC002803D000221146FBF7AEFE7C
:100D50003049202220310220FCF71AFC002803D061
:100D600000221146FBF7A2FE2A492022403103202F
:100D7000FCF70EFC002803D000221146FBF796FE7C
:100D80002449202260310420FCF702FC002803D013
:100D900000221146FBF78AFE1E49202280310520E1
:100DA000FCF7F6FB002803D000221146FBF77EFE7D
:100DB00018492022A0310620FCF7EAFB002803D0C6
:100DC00000221146FBF772FE12492022C031072093
:100DD000FCF7DEFB002803D000221146FBF766FE7D
:100DE0000D4800900D4801900A4869466E38FCF79E
:100DF000EFFB002803D000221146FBF757FE3EBD53
:100E000001280020F0140200001502001015020055
:100E100020150200CA3200201D000200D5D00100BA
:100E200010B50020FCF73AFF002803D0002211463D
:100E3000FBF73CFEFCF77CFE002803D000221146A5
:100E4000FBF734FE3CDF002803D000221146FBF7FD
:100E50002DFE10BD10B50F490028087009D00128DB
:100E600011D0022812D0032802D14869FEF746FAB1
:100E700010BD00208861C861074840780028F7D07D
:100E8000FDF792F910BD00F0D9F810BD00F038F868
:100E900010BD00002C290020B838002010B50846ED
:100EA0001146C046C04610BD002803D00249C860A4
:100EB000002070470E207047A029002070B500293F
:100EC00001D08C0701D0072070BD064C0125A16020
:100ED00062800549636010DF0028F5D12570162077
:100EE0002EDF70BDA02900209D0E0200002803D037
:100EF00002490861002070470E207047A029002099
:100F0000F8B5164C14226068400840006060144830
:100F1000017851430E183769FFF7A6FC01463846A1
:100F2000FBF714F905466061FFF79EFC0146F08867
:100F30007F1EC019FBF70AF902228542606801D1C1
:100F4000104300E090436060E1681040084303D024
:100F5000002000F0BBF8F8BD0220FAE72C290020A1
:100F6000B838002010B502484069FEF7C7F910BD37
:100F70002C29002010B5FFF765FC441EFFF774FC18
:100F80004443FFF771FC04494A69521E5043CA6842
:100F90002146FEF7B8F910BD2C290020F8B51048FD
:100FA0001422017851430C182569FFF75DFC0146B6
:100FB000E088228980184019FBF7C8F80F46FFF730
:100FC00041FC461EFFF750FC4643E0882289F11998
:100FD0008018044A40191269FEF795F9F8BD00001F
:100FE000B83800202C29002070B5FFF73DFC0546DD
:100FF000FFF728FC441EFFF737FC60432946FBF748
:10100000A5F8FEF77BF970BD70B5FFF72DFC8608DB
:10101000FFF72AFC0749496948430446FFF712FCD9
:10102000451EFFF721FC684332462146FEF76BF967
:1010300070BD00002C2900200020704770B51448B6
:101040001422017851430C18241DFFF70DFC618810
:10105000104E884211D2FFF707FC61880D1AFFF786
:1010600003FC8208A188E0684018216940194919E9
:10107000FEF749F9FFF7F8FB07E0A288E06880185F
:101080008A082169FEF73FF96088F06170BD0000B1
:10109000B83800202C29002010B505480079000739
:1010A00003D4012000F012F810BD00F003F810BDC9
:1010B0002C29002010B50448082241689143416062
:1010C000407800F003F810BD2C2900200249487038
:1010D00002498000085800472C29002068150200AA
:1010E00010B50446FFF7EEFC2046FCF7F7F810BDFC
:1010F00010B505480079000702D4FDF743F810BD8C
:10110000FFF7D8FF10BD00002C2900200120024964
:10111000000508607047000000E200E0F0B5174FDE
:101120002421BC6841430D1939694A1C09D0242285
:101130004A4316196B687268934204D8D21A7260D7
:1011400029623861F0BD0A4602E00A46396A9B1BF3
:101150004E1C0BD024264E4337197E689E42F4D392
:1011600024264E4336197768FF1A77606B60296230
:1011700024214A4311190862F0BD0000782900209B
:1011800070B5194C2269A5681346114606E08142E4
:1011900007D00A46242671434919096A4E1CF6D124
:1011A00070BD002EFCD08A420CD124204343581934
:1011B000006A2061401C05D10C4B0120986000237F
:1011C00063616071242041434819242341685A43D4
:1011D000006A52191062421CE2D024225043401986
:1011E00042685118416070BD78290020001001400C
:1011F000F8B51D4C2569681C35D01C480026406890
:101200006169401A07023F0A19E024204543A0689B
:101210002A185068B84214D8A3693F1A8619156A6B
:10122000002B09D0D16990699847002807D0002287
:101230001146FBF73BFC02E09169D0698847681CC6
:10124000E3D1A178E078814206D1401CC0B2E070C1
:10125000022801D10020E07003490006800D1C31F6
:101260000E50FFF753FFF8BD78290020001501400C
:1012700010B50E4C6168A068884210D024210C4A39
:10128000484381188B78012B0AD0105A183197DF08
:10129000002804D1207A401C4007400FA06010BDF8
:1012A000105A8988002295DFF2E70000CC28002040
:1012B000D434002010B50178022901D0012904D1CD
:1012C000002240681146FBF7F1FB10BD0870000AD0
:1012D00048700220704710B50446FAF792FF0002EA
:1012E000E178000A0906084310BD00000121814091
:1012F000024842688A434260704700000C2900207F
:1013000038B51549154A488890420FD04A78144C90
:10131000521CD2B24A70237B934208D3083175DF46
:10132000002803D0A169002900D0884738BD0025D6
:101330004D70217C002907D03B2176DF002803D0A7
:10134000A169002900D0884761690029EED068466C
:101350000570884738BD0000E4280020FFFF00002A
:101360008436002012494868C005C00D19D01038D5
:1013700040B2002807DA0207120F083A92089200DA
:101380005118C96904E081080A4A89008918096866
:101390008007C00EC1400806800F012803D0032833
:1013A00003D00220704700207047012070470000E2
:1013B00000ED00E000E400E042788378521C9342A4
:1013C00000D100220378934201D1002070470A60C7
:1013D000416840781822504308187047F8B5154600
:1013E000069C1E4607460222009400F00AF80028D8
:1013F00006D13346102229463846009400F001F801
:10140000F8BDFFB583B0074600200C9C86462678C1
:1014100005463AE07868A90041180A886846828043
:101420004988C1800022694601A865DF002810D1E3
:10143000684601780598814226D17046002801D07F
:10144000002200E002222078891841181F2902D9C1
:101450000C2007B0F0BD7146002908D1401CC0B275
:10146000411C069B049A21701A540120864621785B
:1014700006980A18694601A865DF0028E9D169467F
:1014800020780978401820706D1C3888A842C1DC8B
:101490007046002804D020780699801B401E88558D
:1014A0000020D6E70179002902D1007B002800D076
:1014B000012070470B09080A0100000000E0D70175
:1014C00011000000120000001300000014000000D2
:1014D0001100030045DB01001200030045DB0100A1
:1014E0001300030045DB01001400030045DB01008D
:1014F000D0002D121E4B0FA4994ECEB531F40579B4
:10150000D9D9AAFDBD9B2198A849E145F3D8D16955
:10151000BD1DA299E625588CD94201630D12BF9FCB
:10152000FB7B7CCE6AB344BEB54BD624E9C6EA2227
:1015300087FB01000DF4010027F30100C9F401004D
:1015400083FB0100DDF3010023F30100C1F401007E
:101550007FFB01002DF301001FF30100B9F401002E
:101560000001000003000000E90F02000910020062
:10157000650F02009D0F0200750F02009910020016
:10158000C9E4010075E40100F110020035F5010025
:101590000300000041646465640000004D6F6469ED
:1015A000666965640000000052656D6F76656400D1
:1015B000427573696E65737320416E642046696E6F
:1015C000616E6365000000004D65737361676500BF
:1015D0005469746C650000005375627469746C65BD
:1015E000000000005363686564756C6500000000CE
:1015F00044617465000000004D6573736167652088
:1016000053697A6500000000536F6369616C0000E4
:101610004E6567617469766520416374696F6E20F9
:101620004C6162656C000000506F73697469766587
:1016300020416374696F6E204C6162656C0000002C
:10164000566F696365204D61696C0000456D616985
:101650006C0000004D69737365642043616C6C001D
:10166000496E636F6D696E672043616C6C000000AA
:101670004C6F636174696F6E000000004F746865A1
:1016800072000000417070204964656E746966697B
:10169000657200004865616C746820416E64204684
:1016A00069746E65737300004E6577730000000007
:1016B000456E7465727461696E6D656E74000000CC
:1016C000E016020000280020B40100003CC2010026
:1016D0003C170200B4290020EC17000096C5010059
:1016E00041061BFFFF31F402147C16021A60041A33
:1016F00054041A40041A080414E415021A4C081A77
:10170000A8041A94041AB0102A70082910190C1A87
:101710009C041AA8041A84101AD0081AD8041AC8EB
:10172000041AF8041AF0041A28181A10040129934C
:0C17300024F4036EFFFF028F0100000094
:040000050001C0C175
:00000001FF
