:020000040003F7
:10C00000083C002011C403002BC403002DC403000E
:10C010000000000000000000000000000000000020
:10C02000000000000000000000000000D5C0030078
:10C03000000000000000000031C4030033C403000E
:10C0400035C4030035C4030035C4030035C4030000
:10C0500035C403000000000035C4030035C40300EC
:10C0600035C4030035C4030035C4030035C40300E0
:10C0700035C4030035C4030035C4030035C40300D0
:10C0800035C403000FD6030035C4030035C40300D4
:10C0900025D6030035C40300B1EE030035C4030008
:10C0A00035C4030035C40300000000000000000098
:10C0B0000000000000000000000000000000000080
:10C0C0000348854603F0A2F80048004795C20300E4
:10C0D000083C00200648704502D1EFF3098101E0D9
:10C0E000EFF30881886902380078024A104700009F
:10C0F000FDFFFFFF6DC10300401E00BF00BF00BF7A
:10C1000000BF00BF00BF00BF00BF00BF00BF00BF37
:10C1100000BFF1D170470000401E00BF00BF00BF4C
:10C1200000BF00BF00BF00BF00BF00BF00BF00BF17
:10C1300000BFF1D170470000056885F308884068AA
:10C14000FF2464B2EFF30585002D01D1A646004718
:10C150002546064621273FBAF0B4002400250026D4
:10C160000027F0B4F92040B20047000010B50C469B
:10C17000002802D00120086010BD2168002911D0DC
:10C180001E48421A814212D03C2A0DD201223C3074
:10C190003C310B7803701346521C401E491E3C2B49
:10C1A000F7D904E00E200BE03C2202F0F3FF00225E
:10C1B0003C21124801F008FE1049891E0880002029
:10C1C000206010BD70B505000BD000223C210B484B
:10C1D00001F0FAFD094CA41E2188884203D00B20EF
:10C1E00070BD0E2070BD3C220449284602F0D2FFEB
:10C1F0002088401C2080002070BD0000823F00206D
:10C200000A4610B50146734800F0EAFF10BD10B5AC
:10C2100000F037FF10BD10B56F4C86B01ECC0394F4
:10C220006C460EC4002807D0684618DF002803D0EB
:10C230000022114600F0D4FF0F20800313DF0028F6
:10C2400003D00022114600F0CBFF644B4822644922
:10C25000082002F009FE002803D00022114600F059
:10C26000BFFF00200490059001206946087404A8CF
:10C2700060DF002803D00022114600F0B1FF5948CA
:10C2800002F00EFE002803D00022114600F0A8FFA5
:10C2900006B010BD08B55448C169B12954D0002476
:10C2A000C069012852D000274F480126403046601F
:10C2B000FF2101614D480F2140698903884204D064
:10C2C00000221146104600F08BFF01200007006994
:10C2D00001218902884204D000221146104600F054
:10C2E0007FFF43480090434B05220321002001F0CB
:10C2F000C0F9002803D00022114600F071FF3F4929
:10C300003D48086001F0A9FC01F0EDFC0125ED05B8
:10C3100000281DD03A4EF56001F0F4FC002803D04F
:10C320000022114600F05CFF01206040FFF773FF20
:10C3300000F041F801F00CFD002803D00022114666
:10C3400000F04EFFB56009E00124A9E70127ABE743
:10C3500020467040FFF75FFF00F02DF8294E3C4368
:10C3600004D1B06801F0D0FB002810D1244CE56066
:10C3700002F08CFE02F017FE02F0CAFE01F07FFC14
:10C38000002803D00022114600F02AFFA560B06803
:10C3900001F0BAFB002806D001F0A5FC002802D16C
:10C3A000B06801F078FCBFF34F8F18491648C86099
:10C3B000BFF34F8FFEE70A4A10B548321421082018
:10C3C00000F01AFF002803D00022114600F008FFF9
:10C3D00010BD0000EFBEADDE68F20300EFEE03001B
:10C3E000182F00200FC203000005004000100010AD
:10C3F000AFDA0300D82C00200C00030050070050D7
:10C4000000050050003000000400FA0500ED00E0D7
:10C410000321094802680A430260084802680A4387
:10C4200002600748804707480047FEE7FEE7FEE74F
:10C43000FEE7FEE7FEE7000024050040540500404B
:10C4400049C40300C1C0030010B500F01DF8002866
:10C4500005D01F491D484860C8131E4988611E4801
:10C46000018CC9B201290ED1818C09070BD1018D34
:10C470000906090F042906D1808D0006000F02D19C
:10C4800016490120886010BD1348018CC9B20129EA
:10C4900017D1818C090714D1018D09060A0F03D128
:10C4A000828D1206120F0ED0090F012903D1828D41
:10C4B0001206120F07D0032903D1808D0006000F4A
:10C4C00001D000207047012070470000DFFF07C047
:10C4D00000050040006C0040C00F00F00006004066
:10C4E000FFB583B0074600200C9C8646267805469B
:10C4F0003AE07868A90041180A886846828049882D
:10C50000C1800022694601A865DF002810D1684675
:10C5100001780598814226D17046002801D000227A
:10C5200000E002222078891841181F2902D90C2026
:10C5300007B0F0BD7146002908D1401CC0B2411CB3
:10C54000069B049A21701A54012086462178069889
:10C550000A18694601A865DF0028E9D169462078F4
:10C560000978401820706D1C3888A842C1DC7046DC
:10C57000002804D020780699801B401E8855002092
:10C58000D6E7F8B51546069C1E46074602220094DB
:10C59000FFF7A6FF002806D1334610222946384669
:10C5A0000094FFF79DFFF8BDF7B582B00026054661
:10C5B000167000781446002805D02846039900F02C
:10C5C000CAF8060008D1A87800281ED02078039F5A
:10C5D000001D1F2802D90C2005B0F0BD684679DF88
:10C5E0000028F9D121780322481C20707A54217840
:10C5F0001922481C20707A542078C1196846008896
:10C6000000F0A4F8217840182070E8780223002870
:10C6100010D02078039A411C21701354207803997C
:10C62000471C012227700A542078EA78471C039996
:10C6300027700A546868002815D0002141562078D8
:10C640008C460246C01C03991F28C4D8501C207079
:10C650008B5422780A23501C20708B542078624619
:10C66000431C23700A542889002809D028460094C6
:10C67000062202210830039BFFF783FF0600ABD19F
:10C68000288A002809D02846009407220321103068
:10C69000039BFFF776FF06009ED1288B002809D068
:10C6A00028460094152214211830039BFFF769FFD8
:10C6B000060091D1286A002805D02246039900F08F
:10C6C0007FF8060088D1686A002805D022460399C1
:10C6D00000F0B5F8060084D12C20405D002806D07B
:10C6E00022462846039900F0DCF80600C7D1304600
:10C6F00072E770B50C4692B000216A4611700725AA
:10C700001171002809D0C17849070CD502A9FFF79B
:10C710004BFF002808D102AE00E00026002C0ED00E
:10C72000E078002802D0284612B070BD01AA0AA9FC
:10C730002046FFF739FF0028F6D10AAA00E00022C0
:10C74000684603790178304672DFEDE70870000A29
:10C75000487002207047F8B514780746A01C1546AB
:10C760000E461F2803D87878801C1F2801D90C207A
:10C77000F8BD1D20001B80B269468646088030192E
:10C78000801C7DDF0028F3D13878022805D1684667
:10C790000088704501D8092107E078780821002831
:10C7A00001D0704501D968460088421C3255641C8E
:10C7B000E2B2B1542978801C081828700020F8BD16
:10C7C000F8B50D4611780646881D14461F2801D974
:10C7D0000C20F8BD33880720062BFAD31927FF0158
:10C7E000BB4202D94D4A9342F3D17288062AF0D354
:10C7F000BA4202D9494FBA42EBD1484FBB4203D0AB
:10C80000BA4201D09342E4D8481C052220706A54F1
:10C8100020781222411C21702A5420784119308836
:10C82000FFF794FF21784018C0B22070411970883A
:10C83000FFF78CFF2178401820700020F8BD70B5FC
:10C84000054600790E46801C1446C0B21178821C41
:10C850008A181F2A01D90C2070BD0A46491C217074
:10C86000401CB0542078FF22411C217032542078A3
:10C8700081192888FFF76AFF21784018C0B220701C
:10C88000AA88002A09D0A968002908D0801902F0D6
:10C8900081FC2078297940182070002070BD072085
:10C8A00070BDF7B582B002981446806A0F46002822
:10C8B00032D0029800252030009028E00298816A4A
:10C8C0000C2068430E18217830794A1C2270C01C55
:10C8D000785420781622411C21703A542078C119CE
:10C8E0003088FFF733FF21784018C0B22070B2883B
:10C8F000002A09D0B16800290ED0C01902F04AFC04
:10C9000020783179401820706D1C0098EDB2007BC2
:10C91000A842D3D800205FE607205DE6FFFF0000B5
:10C9200038B56849684A488890420FD04A78674CC1
:10C93000521CD2B24A70237B934208D3083175DF70
:10C94000002803D0A169002900D0884738BD002500
:10C950004D70217C002907D03B2176DF002803D0D1
:10C96000A169002900D0884761690029EED0684696
:10C970000570884738BD70B5054601461C225348EE
:10C9800002F008FC4F4C002626702968002907D0C9
:10C990000822A01802F0FEFB204608307ADF02E0F1
:10C9A000484808307BDF002808D1401E6080454899
:10C9B0006670474A0021001D00F0AEFE70BD10B544
:10C9C0004048406800F043FF10BDF8B53D481030C6
:10C9D00000F06BF800263B4D3C4C002807D0616905
:10C9E00000291BD001206A461070684615E028789F
:10C9F000002805D06169002910D0684606700CE057
:10CA0000687800280CD0A1680022686800F0E2FE77
:10CA1000002803D0A169002900D088472E70F8BDF6
:10CA20006168F1E7F8B5294C02880027254DE689B1
:10CA3000102A18D029464968112A21D0122A2DD04F
:10CA4000502A0FD1C288801DB2420BD1028B022A1C
:10CA500008D1C27E837E10021843C007C00F13D0D6
:10CA6000FFF7B3FFF8BD81886980014615480822A9
:10CA70001631103002F08EFB6F70002EF0D0F8BD32
:10CA80000020C04368806F70084600F0E0FE002878
:10CA9000F5D0A1690029F2D08847F8BD811D094869
:10CAA0000822103002F076FBDAE7418805480830AA
:10CAB0000288914204D34088814201D80120704706
:10CAC00000207047042C0020FFFF0000B030002041
:10CAD00021C9030030B585B0002822D00388FE4C60
:10CAE000A34220D0FD4B1B78002B1CD0FB4B102504
:10CAF0005B1C1D705970002401259A700322694641
:10CB00000A820094019402940394028A0A808D7030
:10CB10008C8004A90291039300886946A6DF05B0C2
:10CB200030BD0E20FBE70820F9E7F0B58BB00446D6
:10CB3000022768460773002609968784C68408A8DA
:10CB40000A900D46A18A208809AAA5DF002804D0F2
:10CB5000E16A00291AD0884718E06846008CC007AF
:10CB6000C00F13D068460682208803A9A8DF0028DA
:10CB700013D1A97E28461B3001220B0002F058FB7E
:10CB800009460F1C2227292C442E4600FF20FE3088
:10CB900069460882208803A9A8DF0BB0F0BD6B4668
:10CBA0001E700BE006221EE069460A71029027E023
:10CBB000204690470020F0E76B461A702B8B022B23
:10CBC000F2D2EFE7684607706946A26AF0E70320F1
:10CBD00000E00420694612E00520FBE7298B0329C9
:10CBE00005D2032208212046FFF774FFD5E74178DC
:10CBF0000278080210436946888003D00620087036
:10CC0000A26AD5E70720FAE70920E3E70322EAE76B
:10CC100030B585B00D46040038D0002D36D0686898
:10CC2000002833D00020C043AD4B20800FCB0493AD
:10CC300001AB07C3AB486946088001A8811E63DFCA
:10CC4000002822D1221D69460120A0DF00281CD126
:10CC500068468078A071204600F0CEF8002814D1F4
:10CC6000204600F059F900280FD12946204600F04F
:10CC700004F9002809D16868A062A868002800D0DB
:10CC8000E062964901200870002048E70E2046E740
:10CC90003EB5002828D0002926D0826A002A23D059
:10CCA0000A88102A21D0112A30D0502A1FD0512AA8
:10CCB0001AD10A460446891D0878022814D14888EA
:10CCC000238A984210D1907A04280DD006280BD0E0
:10CCD000052809D02046891CFFF727FF002803D02C
:10CCE000E16A002900D088473EBD898810E0CB88E2
:10CCF00002899342F8D108226B461A708A7F1A7112
:10CD000020310291826A694690473EBD0021C943A5
:10CD100001803EBDF0B585B00A4605002DD02888BB
:10CD20006D4988422BD06D480078002827D06B4C85
:10CD30001020641C2070072060700127A770032159
:10CD4000684601820026E11C104600F04CF80146BE
:10CD50006846008A09186846018200960196029684
:10CD60000396298A01808770868004A80394029024
:10CD700028886946A6DF05B0F0BD0E20FBE7082035
:10CD8000F9E7F0B585B00A46050028D02888524951
:10CD9000884226D051480078002822D04F4C1120DC
:10CDA000641C20700127684607820026611C10461B
:10CDB00000F019F801466846008A091868460182A1
:10CDC0000096019602960396298A018087708680D4
:10CDD00004A80394029028886946A6DFCBE70E20BA
:10CDE000C9E70820C7E70870020A4A70020C8A7077
:10CDF000000EC8700420704730B58FB005461C2166
:10CE0000684602F0E0F9694608780421084369465B
:10CE10000870002401940394049405940694A8795E
:10CE200008A988702F486946801C0884601C000788
:10CE30000794000F0C77103048778A7FF920024062
:10CE4000F720921C0240EF200240012002438A7723
:10CE5000142109A802F0B7F908A8099007A80A90B8
:10CE600069468C851420CC8508860D942B46A888AD
:10CE7000083309AAA2DF0FB030BDF0B58FB00F465E
:10CE800005461C21684602F09EF968460178022694
:10CE90003143017000240194039404940594069492
:10CEA000A97908A881700F496846091D0184601C92
:10CEB0000107090F684610310794017700200146E9
:10CEC00068464177817FF9200140F720891C0140A5
:10CED000EF200140012007E0FFFF00001C2C002094
:10CEE00078F2030030150000014368468177142171
:10CEF00009A802F068F908A8099007A80A906846EE
:10CF00008685C48506860D972B46A888203309AAF6
:10CF10006946A2DF0FB0F0BD30B58FB005461C21C9
:10CF2000684602F050F96946087808210843102243
:10CF300010436946087000240194039404940594F6
:10CF40000694A87908A98870144869460884601C6A
:10CF500000070794000F0C7710304877887FF9217D
:10CF60000840F721801C084010430121084369460E
:10CF70008877142109A802F026F908A8099007A8C3
:10CF80000A9069468C851720CC8508860D942B461F
:10CF9000A888103309AAA2DF6DE700003115000050
:10CFA00031B5054C04E0401E00902046FFF7A4F880
:10CFB00000980028F7D138BDE7030000182250433D
:10CFC000854A0021801801718160416102228161DE
:10CFD0000261C160704770B57F4C182221780F2024
:10CFE00051430A197D4916795369121D4D68022E65
:10CFF0000ED0042E0BD1B006006981B2184602F0A3
:10D00000B3F8401928DF002801D10121A17070BDBB
:10D01000A802556851692D1A091892681818101835
:10D0200001229202954202D2AA0829DFEBE7FF22F1
:10D03000013229DFE7E7F8B5674C069E65780A2DCF
:10D040001DD027787D19EDB20A2D01D30A3DEDB22E
:10D0500018277D432D192871AA6103C9EE60AB60C2
:10D0600069612861A1780020002904D1FFF7B3FF8E
:10D07000112800D100206178491C6170F8BD04209E
:10D08000F8BDF8B5544C0022A17801293ED1002307
:10D09000A3700646214608781827054678434118AC
:10D0A000022E03D0032E31D10D202CE04B484668D0
:10D0B000761C46608968B6028E4214D3436060785D
:10D0C000401E6070681CC0B220700A2801D30A3864
:10D0D00020701820684301191046091D00F06BF8F4
:10D0E0002846FFF76BFF607800280FD0A078002853
:10D0F0000CD1FFF770FF002808D0112806D0217846
:10D10000182251430919091D00F055F8F8BD70B5F2
:10D110000024324E30487460047044708470254698
:10D120002846FFF74BFF6D1C0A2DF9D32B493460BD
:10D130000020083174608200401C8C500228FAD311
:10D14000002070BD10B5254B1A68022A09D00A606C
:10D150001C469100083400686050521C00201A6080
:10D1600010BD042010BDF8B507461D4616460C46F6
:10D17000084600F01AF800280CD0601900F015F8E5
:10D18000002807D033462246394602200095FFF793
:10D1900052FFF8BD1020F8BD08B50B46002201462D
:10D1A00004200092FFF747FF08BD800701D0002050
:10D1B00070470120704738B50C46E268074B920073
:10D1C00008339D58097862680092024620460C3068
:10D1D0006369A84738BD0000CC300020242C002013
:10D1E000BFF34F8F03490248C860BFF34F8FFEE77C
:10D1F0000400FA0500ED00E030B5CB0008339DB225
:10D2000093070024002B01D0072030BD574B9A60B4
:10D210005219DA605C701C7058809980002030BD13
:10D22000F7B5524C82B060880F4681426ED800201C
:10D23000694608704F494E4E4868C005C00D18D069
:10D24000103840B2002807DA0207120F083A920895
:10D2500092005118C96904E08108474A8900891879
:10D2600009688007C00EC1400806850F012D01D155
:10D270000AE00425684636DF02280CD0002803D0D7
:10D2800000221146FFF7ACFF22786078A18888421F
:10D2900003DA401C02E072B6F6E70020C0B290420A
:10D2A00007D066786078884201DA401C00E00020F0
:10D2B0006070012D0BD062B66846007837DF022817
:10D2C00005D0002803D000221146FFF789FF284827
:10D2D000864219D0A068F5000499415102990029AD
:10D2E0000CD0002F0AD060883A464643E0683018D8
:10D2F00001F050FFA0682818878002E0002128185C
:10D300008180002005B0F0BD0420FBE70920F9E78B
:10D310000EB504E068468188029A0098904702AAF8
:10D3200001A9684600F003F80028F3D00EBD70B5DF
:10D330000E4B05241D785E78AE4215D01D781C7802
:10D340009E88B44201DA641C00E000241C705C88F2
:10D35000DE686C43A41904609B68E800C418A488C4
:10D360000C80185800241060204670BD342C00201A
:10D37000FFFF000000ED00E000E400E08307FF2273
:10D38000DB0E9A408907090E994000280BDA000746
:10D39000000F08388308FB489B001818C3699343A3
:10D3A0000B43C36170478308F7489B001B1818683C
:10D3B000904308431860704770B50124F349600436
:10D3C0000860F34940108860F14940398860F14DA8
:10D3D0006C602F20FEF7A0FEAC60EF4D00242F20E4
:10D3E0006C61FEF799FE2C7170BDF0B5EA4F2421F7
:10D3F000BC6841430D1939694A1C09D024224A43AB
:10D4000016196B687268934204D8D21A7260296246
:10D410003861F0BD0A4602E00A46396A9B1B4E1C81
:10D420000BD024264E4337197E689E42F4D324261F
:10D430004E4336197768FF1A77606B6029622421A2
:10D440004A4311190862F0BD70B5D34C2269A56832
:10D450001346114606E0814207D00A46242671434E
:10D460004919096A4E1CF6D170BD002EFCD08A42C3
:10D470000CD1242043435819006A2061401C05D177
:10D48000C44B0120986000236361607124204143F4
:10D490004819242341685A43006A52191062421CF9
:10D4A000E2D024225043401942685118416070BDB7
:10D4B000F8B5B94C2569681C35D0B84800264068D5
:10D4C0006169401A07023F0A19E024204543A06819
:10D4D0002A185068B84214D8A3693F1A8619156AE9
:10D4E000002B09D0D16990699847002807D0002205
:10D4F0001146FFF775FE02E09169D0698847681C04
:10D50000E3D1A178E078814206D1401CC0B2E0703E
:10D51000022801D10020E0709F490006800D1C31D7
:10D520000E5000F0BDF9F8BDF8B504469A48002742
:10D530000169009146785CE09748F100C2688D1857
:10D5400051E0601C07D0944A242092686043214631
:10D550008018046A24E02878182141436A68401C36
:10D56000C0B252182870A978884200D12F708A4B17
:10D57000516824209B684843C0181378012B34D18C
:10D58000037D002B31D193688360D368C360136936
:10D5900003615269C261804A5279002A00D08760D3
:10D5A0007D4B82685B6996469C46D31A1A027C4B77
:10D5B000120A9A4202D2C368D21808E07246634641
:10D5C0009A1A1202C368120A934202D99A1A426046
:10D5D00000E0476087600122C7600275921E026208
:10D5E0000846FFF702FF601CABD1287869788842B3
:10D5F000A7D13046761EF6B200289DD16648016953
:10D600000098814201D00120F8BD0020F8BD654995
:10D610000020086048608860C8606249403908603E
:10D62000486045E7FEB50020C0435B4D0290686945
:10D63000019068462E6900F038F9074600F052F96B
:10D640000446002F08D002AA0199009800F092F930
:10D650000298FFF769FF06E00298FFF765FF0028D0
:10D6600001D1002C02D0304600F0ADF900206871E5
:10D67000FEBDFFB59807002481B01E4615460F4633
:10D6800000280BD1002E09D0FFF796FE42490A98D8
:10D6900088610F70324600208E6008E0072005B0D8
:10D6A000F0BD24234343D4549B181C75401CB8423E
:10D6B000F7DB24204743BB19032048700F46184668
:10D6C000CB6019461830002218232E465E43D30043
:10D6D0005B181C705C709D7058603018521C032AD7
:10D6E000F5DB0020C0433861BC70FC7001242E487B
:10D6F0002405046003211420FFF740FE23488038EE
:10D700000460264C0198A06003211120FFF736FE2B
:10D71000606878610020C2E770B51F4CA568002DD5
:10D7200006D0002A06D0002804D00023247809E07F
:10D73000082070BD072070BD24265E43AE5D002E1C
:10D7400004D05B1CA342F7DB042070BD2424012617
:10D750005C432E5564196170A2610360002070BDA6
:10D7600008494868C005C00D2ED0103840B20028C6
:10D770001CDA0207120F083A920892005118C96980
:10D7800019E0000000ED00E000E400E080E100E0CE
:10D790004013014000100140442C002000150140BE
:10D7A000FFFF7F004011014080E200E08108B24AA3
:10D7B0008900891809688007C00EC1400806800FDB
:10D7C000012803D0032803D00220704700207047AF
:10D7D00001207047FEB50446A848174682680D46EA
:10D7E000002A0CD001788C4201D2052D01D20720ED
:10D7F000FEBD214624235943535C012B01D0082050
:10D80000FEBD8818407801281DD00026FFF7A8FF2C
:10D81000C0009A490190C9684018694600F019F99A
:10D82000002812D0012101709549446049680830F0
:10D83000E2C092490198C96841180098487000F008
:10D840002FF80020FEBD2E46E0E70420FEBDF8B50F
:10D850008A4D0446A868002809D029788C4201D353
:10D860000720F8BD24216143405C012801D0082035
:10D87000F8BDFFF775FFC600E8686946301800F08C
:10D88000E8F800280AD0022101704460E8683118E5
:10D890000098487000F004F80020F8BD0420F8BD9E
:10D8A0000120784900050860704710B573490023CE
:10D8B0008A78CC78A24212D0521CD2B28A70022A44
:10D8C00000D18B708A786D4B92001C339A5802609D
:10D8D000486910180002000A4861012010BD036069
:10D8E000002010BDF8B5654801690091457833E026
:10D8F0006248E900C0680E1834782AE018206043B6
:10D900007168641C0818B178E4B2A14200D1002407
:10D910000178022902D003291BD113E0574A40683D
:10D920002421926841438F18397D002911D0FFF7D7
:10D930008BFD002038750CE024277843C018027551
:10D94000006A03E04D4900228B680869471CF3D147
:10D9500008617078A042D1D128466D1EEDB2002832
:10D96000C6D1464801690098814201D00120F8BD26
:10D970000020F8BDF7B5414C0025A76823691EE0DB
:10D9800024215943C9194E68864202D9301A486089
:10D9900017E0801B751900264E600E750E699C46B7
:10D9A0000B6AB646002E0AD0019E76193602360A58
:10D9B0008E607646CE6016680E6261461160591C14
:10D9C000DED12361FEBDF8B52C4801694A1C3DD06B
:10D9D00024225143826889184E6829494C68476956
:10D9E0000079E11B0D022D0AED1C002815D1012044
:10D9F000254A00045060244A403A506021494000C2
:10DA000080310860214908602149012008602F20E9
:10DA1000FEF782FB194901200871B54200D2354654
:10DA2000E81900021649000A4031086014494968A3
:10DA3000001B091B0902090A0002000AC91C8142D5
:10DA400003D901200F4940040860F8BDFFF7B4FC7A
:10DA5000F8BD42788378521C934200D100220378AB
:10DA6000934201D1002070470A6041684078182233
:10DA7000504308187047000000E400E0442C0020E8
:10DA80000015014000E200E04013014000E100E029
:10DA90000010014010B50446082904D000221146A8
:10DAA0001046FFF79DFB21686068884710BD1CB5D4
:10DAB00001910090024A08216846FFF7B1FB1CBDA6
:10DAC00095DA030010B5B7480378012B02D102297B
:10DAD00000D10170100003D000221146FFF780FB37
:10DAE00010BD10B5AF4C48DF002803D0002211460E
:10DAF000FFF776FBFFF70CFC2078022803D0032801
:10DB000001D00428EFD110BD38B50068401C19D0F1
:10DB10000024684600F04EF900980178012910D1E0
:10DB2000418800290AD08168032000038068002210
:10DB300000F04AF900994988814201D1012400E0AE
:10DB40000024204638BD10B5044696481C21001D0F
:10DB5000FFF722FB002803D000221146FFF740FB0D
:10DB6000904800231C222146001DFFF7FCFA0028E4
:10DB700003D000221146FFF733FB10BD0FB4F8B5F8
:10DB8000684600F017F96846027E418B0123854CF8
:10DB9000FF258548002A12D0012A16D0032A2AD050
:10DBA0000021022A36D0052A46D0042A4ED0062A61
:10DBB00001D104202070F8BC08BC04B01847418093
:10DBC000099981600370057110E04180089A0799F6
:10DBD0008918099A89188160A52101700571079932
:10DBE000C1600899426101610A99816123706E48A0
:10DBF000FFF7A9FFDFE700990A7802704A884280A0
:10DC000089688160AA2101710799C1600899016141
:10DC100009990BE0009A1678A52E09D0067056884F
:10DC20004680926882600571C16001614161DDE7F3
:10DC3000418081600570F6E700F0DCFC002803D02D
:10DC400000221146FFF7CCFA0320B3E74180816040
:10DC50000570009909790171C9E70EB5534A6B4601
:10DC600007CA07C3FFF753FA002807D14D49FF2021
:10DC70008002091D48606846FFF764FA0EBD10B5C2
:10DC800000F089F9002805D100F099FE0446FFF75D
:10DC900028FF204610BD70B511DF002803D00022F8
:10DCA0001146FFF79DFA424900200A68404B0121C6
:10DCB00080330C468440144204D0C506ED0E0C4659
:10DCC000AC401C60401C2028F3D303242403A0682C
:10DCD00013DF002803D000221146FFF781FAA06865
:10DCE00000F06EF870BD08B5684600F063F8009863
:10DCF0000178A52904D00079AA2801D0002008BD08
:10DD0000012008BD10B500F027FB002803D100F06A
:10DD100005FB00281BD06420FFF742F900F0A8FAA9
:10DD2000002803D000221146FFF75AFA00F014FB36
:10DD3000002803D000221146FFF752FA00F0D2FA71
:10DD4000040003D000221146FFF74AFA204610BD16
:10DD500000B5164987B014220C3101A801F01AFA57
:10DD60000598009001A80FC8FFF708FFFFF7B9FE5C
:10DD7000002007B000BD38B50446684600F01AF828
:10DD8000009801782170418861808168A1600179E3
:10DD90002171C168E1600169216141696161806946
:10DDA000A06138BD682C0020C031002088F203003B
:10DDB00000E100E0014901607047000000FC030041
:10DDC00010B5FEF7B9F910BD10B50446002A02D00F
:10DDD0001088002210E00A48FBE7030A0002034310
:10DDE000A05C584003061B0F43401803584083B201
:10DDF0001806C00C5840521C8A42EED310BD0000D9
:10DE0000FFFF000070B5F84C1E46607815460229E9
:10DE100002D0042916D108E0052813D1A369002BEC
:10DE200010D03246294604200BE002280AD1EF48E0
:10DE30004068804703206070A369002B02D03246FF
:10DE400029469847280003D000221146FFF7C8F959
:10DE500070BD00B5E44987B001200870052069460F
:10DE600008710598009001A80FC8FFF787FE07B05A
:10DE700000BD10B5DC4C2078002801D0082010BD72
:10DE80002069FFF7E4FC002803D000221146FFF7C9
:10DE9000A7F90F21002289042069FFF79BFC0400E9
:10DEA00003D000221146FFF79BF9204610BDCE4952
:10DEB00010B5CD481C31416102214170C1681C3050
:10DEC000FFF76AF9002803D000221146FFF788F90E
:10DED00010BD00B587B01422C54901A801F05AF958
:10DEE0000598009001A80FC8FFF748FEBFE700B5EE
:10DEF00087B0012168460171BB4881886846C180AE
:10DF00000320000380680590B848503841680291AA
:10DF100081680391C0680490059800900A46049BAC
:10DF200002990198FFF72AFE0020A0E710B586B0FD
:10DF3000142101A801F047F9002468460471AA4899
:10DF400081886846C180A9485038C0680490059807
:10DF5000009001A80FC8FFF711FE204606B010BDC3
:10DF600000B587B00321684601719F4881886846E3
:10DF7000C1809E4850384168029181680391C06811
:10DF80000490059800900A46049B02990198FFF7B7
:10DF9000F5FD00206BE73EB5954A6B46143207CA83
:10DFA00007C3914D0024AC702946AC801C316846F3
:10DFB000FFF7C8F8002801D06C703EBD03208A49E5
:10DFC000000380681C31486087488A4A002110306D
:10DFD000FFF7A2FB002803D000221146FFF700F94B
:10DFE0000F21002289042869FFF7F4FB002803D0E1
:10DFF00000221146FFF7F4F80120AC6068700020A1
:10E000003EBD794988617047F8B542687748146821
:10E01000536891685038D26804604360C260816080
:10E020000078440701D5840705D19C0703D18C07EC
:10E0300001D1940701D00620F8BD5B189A186A4BED
:10E04000DA600F239B02994212D86B4E6B4D6C4BDA
:10E050006C49664CC70707D0B068281A904207D3AE
:10E060002360694861600CE0B668AD1B954201D23F
:10E070000C20F8BD23606160800701D5634800E093
:10E080006348594EA0607078012802D008252846C0
:10E09000F8BDFFF7EEFE0500FAD12168F068884769
:10E0A000F5E770B5050004D0287A800703D010206A
:10E0B00070BD0E2070BD4C4C6078032803D004283E
:10E0C00001D0052801D0082070BD6868E16886008D
:10E0D000A0688019884204D90020C043A0600C20A9
:10E0E00070BDFFF7C6FE0028FAD1A9683246A368C2
:10E0F0006069FFF738F80028F2D1A1688919A1609A
:10E10000E2689142ECD0092070BD10B5364C082071
:10E11000A168002900D010BD61780429FBD13348E3
:10E12000A178403800F05AF9002802D00021A170EF
:10E1300010BD0521617010BDF8B52B4C0746607805
:10E14000032804D0042804D008252846F8BD04205C
:10E150006070A068002801D00820F8BDFFF789FE94
:10E160000500FAD178688600A0788119402901D984
:10E170000920F8BD1D4AB968403A1018324601F02E
:10E1800009F8A0788019A070DFE710B5164C607808
:10E19000052813D1E168A06888420FD1062060707D
:10E1A000FFF767FE002808D16069E168406800F069
:10E1B0004FF9002801D10721617010BD082010BD62
:10E1C00010B509484178072901D0082010BD006921
:10E1D000FFF73DFB002803D000221146FFF700F8AF
:10E1E00002488068804710BD742C00202C3200202B
:10E1F000A8F2030053DE03000030000000B4030067
:10E20000AFDE0300D3DE0300EFDE030061DF0300B7
:10E210002DDF030000B587B0062069460871059818
:10E22000009001A80FC8FFF7A9FC20E6F8B51C462E
:10E2300017460D46064600F0BBF8002817D001200F
:10E240000003854207D92346291B301B1A46FFF7D6
:10E25000EDFF00280BD13A462946304600F0B3F8CE
:10E26000002804D13A462946304600F0A1F8F8BD0E
:10E27000F0B589B06846FFF77EFD039800282AD0E4
:10E2800001210903069A4018904226D9501A4508E0
:10E290001046039A0C4687180246680016180019A3
:10E2A0000790032000038068039988420DD261190A
:10E2B0000846042200F087F800280CD121460422E9
:10E2C000084600F080F8002805D1BA1B2B463046DE
:10E2D0000799FFF7ABFF09B0F0BD039A069800F06D
:10E2E00072F8F8E700B58BB004A8FFF744FD089872
:10E2F00000280DD0079800280CD007990A984018DC
:10E30000019000210898009180080290684618DF6B
:10E310000BB000BD032000038068F1E700B58BB0AF
:10E3200004A8FFF728FD08980028F1D007980028D6
:10E330000ED007990A984018032100910F210290EE
:10E3400089030898019180080390684618DFDFE789
:10E35000032000038068EFE730B58FB06846FFF711
:10E360000AFD0398002814D001210903069A4018D9
:10E37000904214D9501A43081046039A5C00821840
:10E380000019611803242403A468039DAC4202D23F
:10E390000E200FB030BD121AFFF748FFF9E7032037
:10E3A0000BAB07C3039880080E900BA818DFF0E7AB
:10E3B0001FB50323019090080390009302916846D3
:10E3C00018DF04B00FE71FB50123019090080390F8
:10E3D00000930291684618DFF3E7000070B500254E
:10E3E0000C290ED304464318008941000919581A14
:10E3F0000A38C2B21E48022A027002D30A318B4286
:10E4000001D2092070BD1B4800F0C4FE1A491B4808
:10E410000A88824202D02388934217D149888142D8
:10E4200002D06088884211D1144A0323521E2089E9
:10E430001B03A8420AD9690009194989914203D0EE
:10E440009E896D1CB142F4D1002070BD0B2070BDBF
:10E4500010B50022FFF7B8FC064A5178127809027D
:10E460001143884201D00B2010BD002010BD0000D8
:10E47000982C00203832002080100010FFFF000090
:10E4800008280CD004DC002807D006280FD108E0AB
:10E490000B280AD00C280AD105E001207047022081
:10E4A00070470320704704207047042901D00620DC
:10E4B00070470520704770B515460A46032823D0DB
:10E4C000042820D1FC4C002906D0E088FB49884272
:10E4D00019D0132176DF10E0284600F019FC00283F
:10E4E00003D000221146FEF77BFEA069A8420AD1A4
:10E4F00001220321F248FEF7EDFA002803D00022A2
:10E500001146FEF76DFE70BD01211046FFF7B8FF02
:10E5100002460121EEE7F0B5054608790E4685B0C2
:10E5200081070CD0032211462846FEF7D3FA0028B3
:10E5300003D000221146FEF753FE05B0F0BDDE49C0
:10E540000090143100F0BDFB010011D1DA4CB1682C
:10E55000009A606900F01EFE009800F00CFC0100BB
:10E5600006D120466946143000F011FC010003D0AA
:10E57000284600F0EFFAE0E70420019000988008B8
:10E5800002906069039001A8FFF78BFD07000BD094
:10E59000092F10D0606900F0BBFB010002D02846B3
:10E5A00000F0D8FA3946E3E7307921694018206154
:10E5B0006069A061C1E73079216941182161607803
:10E5C0000028BAD06089401E0004000C6081B4D1DC
:10E5D0002846FEF7D6FB002803D000221146FEF79E
:10E5E000FFFD20896081A8E710B500221146FEF7E3
:10E5F000F7FD10BD10B5B04C01202070E088AF4988
:10E60000884208D0132176DF002813D0002211465B
:10E61000FEF7E6FD0EE0A07800280BD074DF00289E
:10E6200003D000221146FEF7DBFD152000F060FA52
:10E630000020A070FEF7C3F9002803D00022114685
:10E64000FEF7CEFD002010BD70B50D780446012008
:10E65000994A2B0000F0ECFD0A2B3043061320579B
:10E660005C466012FFF791FD0421FFF709FF0246A7
:10E6700004212EE000221146FEF7B2FD70BDFFF727
:10E68000B9FF002803D000221146FEF7A9FDFFF7CD
:10E6900097FD002808D170BDFFF7ACFF002803D01C
:10E6A00000221146FEF79CFDFFF7B4FD70BD10710E
:10E6B00088680078507170BD0220107188680078F9
:10E6C0000128F8D1FFF721FD0221FFF7D9FE02460C
:10E6D00002212046FEF7FEF90028CBD170BD0320B1
:10E6E000107170BD12792046012A06D0022A07D087
:10E6F000032AF6D1FFF70FFF70BD00F03EFA70BDA0
:10E7000000F079FA70BD507088881081508170BD1A
:10E7100000205070108170BD20461169FEF7FAFA92
:10E72000DAE710B5044666488EB081796846817094
:10E7300064490180302101A800F045FD02216846AE
:10E74000017100218171C471012181810490002136
:10E7500001A8FDF7CEFF002803D000221146FEF7E6
:10E760003FFD0EB010BDF0B5534C8BB0A078002823
:10E770003ED153481821183800F025FD2046504C52
:10E78000C078183C0025012600283BD02746483792
:10E7900000950195029510226946F81D039500F039
:10E7A0001DFD002826D0F81D0890099768460675BB
:10E7B00009A804906846067708A806900420FFF789
:10E7C000B0FF25700220207204A8E060282020827B
:10E7D0003B486582183873DF002803D000221146B9
:10E7E000FEF7FEFC012038494005C86032488670BB
:10E7F0000BB0F0BD0520FFF794FF2670676025720F
:10E800002582E5E70620FFF78CFF257065602572FD
:10E81000DCE7F0B50546284C008800270122E68891
:10E82000A7B0172810D024DC11284FD00EDC022806
:10E830007ED0102808D124498004C860152000F03B
:10E8400057F9A888E080A77027B0F0BD1C4C303481
:10E8500027461837132855D01428F5D1E889628D3A
:10E860000021904200D139460023A888E21D82DFB2
:10E870001BE0512873D00EDC18286FD01928E3D183
:10E88000A8790028E0D1A770E068401EE06054D06D
:10E89000FFF769FFD8E752287BD05528D4D1A87953
:10E8A0000028D1D11321304676DF0028CCD00022B9
:10E8B0001146FEF795FCC7E79C2C0020FFFF0000E7
:10E8C0005C320020301500000005005080206946B1
:10E8D00088803220E060162000F00AF9012301AAA6
:10E8E00006A9E088AADF002803D000221146FEF71F
:10E8F00077FC2078002801D1FFF735FF0020C043C6
:10E90000E080A1E70722D84910A800F043FC1022BC
:10E91000E11D0CA800F03EFC1C22394612A800F0B4
:10E9200039FC0CA80A9012A806ABD04A852100E059
:10E930000FE0099030467FDFB7E71422CC4906A8E4
:10E9400000F028FC0A9806AC00900FCCFFF716F9EF
:10E950007AE70021304667DFA7E700E019E0A979F0
:10E96000002997D0A87A042803D0062801D00528CA
:10E9700090D1022909D068460272FF20833069468F
:10E98000888102A93046A8DF8FE702206946087215
:10E99000F3E700F0B2F888E710B50446FEF742F856
:10E9A000B14821463038FEF773F92046FFF731FFB2
:10E9B00010BD10B500221146FEF712FC10BD70B557
:10E9C000AA4E00241C3E88B03470AA483471032536
:10E9D0000560001D0560152000F08AF8162000F083
:10E9E00087F8A54800F054FA00287BD1A348FFF728
:10E9F00008FB00F057F9002874D19B48FDF7E2FBB3
:10EA0000002872D0684671DF002803D0002211462A
:10EA1000FEF7E6FB69464878401C4870002070DF2E
:10EA2000002803D000221146FEF7DAFB11206946C8
:10EA30000872072292A102A87CDF002803D00022DE
:10EA40001146FEF7CDFB00940C216846019401802D
:10EA500018214180FF2184809131C1807ADF002814
:10EA600003D000221146FEF7BBFB06206946009446
:10EA7000088085480190854802907B483038FEF731
:10EA8000C7F8002803D000221146FEF7A9FB1C217D
:10EA9000684600F098FB7E480190012080030290B8
:10EAA000009468460573C48104747A4806900594FE
:10EAB0006846FDF760FF002803D000221146FEF7EC
:10EAC0008FFB6A49E1220878400840001040DF22AD
:10EAD0000C30104008700720487010208870FFF735
:10EAE00042FE002008B070BDFFE70120F0709DE7F6
:10EAF0000121814068488160704770B55B4C674D6B
:10EB00001C3CE088A84201D10820ECE7E17800290C
:10EB10001BD05549012308223431A9DF0028E2D156
:10EB2000022300221146E088A9DF0028DBD12A4613
:10EB30000C21E088A7DF5A49884204D0082802D077
:10EB4000891C8842CFD10020CDE700231A46194600
:10EB5000A9DFC8E710B50A46044603211046FFF7AF
:10EB60008FFC024603212046FDF7B4FF002803D0A6
:10EB700000221146FEF734FB10BD30B5054687B0C4
:10EB80000020009001900290039038486A461C389B
:10EB900040791070364A0C3A1068926804906846C2
:10EBA0000692059008790C2807D003221CE0002269
:10EBB0001146FEF715FB07B030BD8C68204600F00B
:10EBC00049F80190201D00F045F8029020460830D9
:10EBD00000F040F8039004A8FFF716FA0028EAD0E6
:10EBE0000121FFF74DFC024601212846FDF772FF87
:10EBF0000028DCD1DFE7FEB50446087982070ED095
:10EC00008207920F04239B1A0022154604E08E68A7
:10EC10003554401CC0B2521C9A42F8D308710120EE
:10EC20000090886802900879800801906846FFF794
:10EC300083FA00280DD00221FFF722FC02460221B0
:10EC40002046FDF747FF002803D000221146FEF7BB
:10EC5000C7FAFEBD10B5044600F0CDFA0002E17817
:10EC6000000A0906084310BD8C320020B82C002091
:10EC7000D4F203005407005099E90300B7E40300FD
:10EC8000446675546172670049E60300B3E9030006
:10EC9000CD0C0000E9E5030000050050FFFF000077
:10ECA000023000004B48002101704C484A4A026083
:10ECB0008160C16001610822416142608161084652
:10ECC000704710B500291DD000220A60434A5368DE
:10ECD000002B1BD0202817D85B1E5360D06824233C
:10ECE000401CD060106914684343E3180B60012393
:10ECF00083409169401C19434007400F91611061A6
:10ED0000002010BD0E2010BD0C2010BD042010BD31
:10ED1000F0B5324A0646916800292AD0576910207A
:10ED2000791A4907490F14680B4624254D43651984
:10ED3000B54206D1012495698C406540002095615B
:10ED400004E0491C4907490F8F42EED1491C4E0788
:10ED5000760F956901210C469C4025420AD19368A3
:10ED6000002B07D05B1E936053685B1C53603346D7
:10ED7000F1E70420F0BD194A2423117C1268491ED2
:10ED80004907490F5943203150500020704770B552
:10ED900000281AD0002918D0104AD368002B16D0AA
:10EDA0005B1ED360936824265B1C936053691568CF
:10EDB0001C467343EE1820330660E858641C086054
:10EDC0006007400F5061002070BD0E2070BD042010
:10EDD00070BD0000BD2C0020C8320020E8330020A8
:10EDE00010B508461146FDF70BFA10BDF8B5384CC2
:10EDF0002078002837D02069002807D00026E06856
:10EE0000002805D00025002E04D013E00126F6E7E7
:10EE10000125F8E7684651DF052806D0002806D00E
:10EE200000221146FEF7DCF904E0012602E0216928
:10EE300000988847002D12D1608869460880A06834
:10EE400061DF052806D0002806D000221146FEF713
:10EE5000C7F904E0012502E0E168A0688847002EB8
:10EE6000D8D0002DCFD0F8BD70B5002901D08C07C7
:10EE700001D0072070BD164C0125A16062801549A4
:10EE8000636010DF0028F5D1257016202EDF70BDDD
:10EE9000002803D00E49C860002070470E2070473C
:10EEA000002803D00A490861002070470E207047EF
:10EEB00010B507484068002807D08047002803D0D5
:10EEC00000221146FEF78CF910BDFFF78FFF10BD31
:10EED000C42C0020E1ED030010B5002904D000226D
:10EEE00011461046FEF77CF9FFF780FF10BD10B504
:10EEF0000021024A0846FEF793F910BDD9EE03003F
:10EF000070B504461C2000F012F91F2000F00FF924
:10EF100000251D2000F00BF9200603D51E2000F06F
:10EF200001F902E01E2000F002F91D2000F0FAF8BD
:10EF300060066D1C040EEDB2082DEAD31C2000F013
:10EF4000F1F870BD70B504461C2000F0F0F81F20E9
:10EF500000F0E8F800251D2000F0E9F8200603D5B0
:10EF60001E2000F0DFF802E01E2000F0E0F81D2077
:10EF700000F0D8F860066D1C040EEDB2082DEAD33F
:10EF80001C2000F0CFF870BD10B52030C4B22007AF
:10EF9000000FFFF7B5FF20091030FFF7B1FF10BDDC
:10EFA000B0210843ACE770B500242046FFF7F8FF16
:10EFB0000020FFF7E9FF00250020FFF7C3FF6D1CCD
:10EFC000EDB2402DF8D3641CE4B2062CEDD370BD35
:10EFD00010B5192000F0A6F8322000F0ADF8192085
:10EFE00000F0A5F8322000F0A7F8192000F09AF8F8
:10EFF000642000F0A1F8AE20FFF782FFD520FFF7D4
:10F000007FFF8020FFF77CFFA820FFF779FF2F20EC
:10F01000FFF776FFD320FFF773FF0020FFF770FFA5
:10F020004020FFF76DFF8D20FFF76AFF9520FFF767
:10F0300067FFA120FFF764FFC820FFF761FFDA2018
:10F04000FFF75EFF1220FFF75BFF8120FFF758FFFD
:10F05000CF20FFF755FFD920FFF752FF2220FFF7FF
:10F060004FFFDB20FFF74CFF0020FFF749FFA420F4
:10F07000FFF746FFA620FFF743FFAF20FFF740FF53
:10F08000FFF791FFAF20FFF73BFF10BD10B53249EE
:10F0900003200860091F0860091F0860091F086035
:10F0A0002D49183908601F2000F03CF81E2000F0A0
:10F0B00039F81D2000F036F81C2000F033F8FFF777
:10F0C00087FF10BDFFB583B00C981E46C708D00857
:10F0D0000024019018E001980019C0B2FFF760FF0A
:10F0E0000498FFF751FF002520467043009007E089
:10F0F000039900984919405CFFF724FF6D1CEDB29D
:10F10000B542F5D3641CE4B2BC42E4D307B0F0BD11
:10F1100008B5182003460090082214210F48FFF775
:10F12000D1FF08BD012181400D4881607047012158
:10F1300081400B48C160704710B50021094C07E0C1
:10F1400022461346521E92B2002BFAD1491C89B2B4
:10F150008142F5D310BD00007C070050E8F20300A7
:10F1600000050050E703000030B50B4601460020C3
:10F170002022012409E00D46D5409D4205D31D46BD
:10F180009540491B2546954040191546521E002DB5
:10F19000F1DC30BD03460B439B0703D009E008C9EF
:10F1A000121F08C0042AFAD203E00B780370401C37
:10F1B000491C521EF9D27047D2B201E00270401CC5
:10F1C000491EFBD270470022F6E710B513460A46E7
:10F1D00004461946FFF7F0FF204610BD30B504463F
:10F1E0000020034600E05B1C934203D2E05CCD5C50
:10F1F000401BF8D030BD0321001D401E03781202D1
:10F200001A43491EF9D5104670470000064C0125E7
:10F21000064E05E0E36807CC2B430C3C98471034BE
:10F22000B442F7D3FCF750FF30F3030050F3030070
:10F2300030B47446641E2578641CAB4200D21D466F
:10F24000635D5B00E31830BC184702E008C8121F7A
:10F2500008C1002AFAD170477047002001E001C1BF
:10F26000121F002AFBD170470200000000000000BE
:10F27000000000000000000023D1BCEA5F782315E5
:10F28000DEEF121200000000C5DA030000000000EB
:10F29000000000000200000000000000000000006C
:10F2A000000000000000000004000000000000005A
:10F2B00000000000000000000000000005DE030068
:10F2C000000000000000000003000000000000003B
:10F2D0000000000005000000000000000000000029
:10F2E0000000000000000000000000000080C0E0FE
:10F2F000F078383C1C1C1C1C383878F0E0C08000CA
:10F30000001C3870FFFFFF71381C00181818FFFF31
:10F3100018181880E3FFFF00000000000001000043
:10F32000000C1C1C38383838381C1E0F070301002D
:10F3300050F30300002C0020D80000004AF2030024
:10F3400028F40300D82C0020300F00005AF20300EC
:10F350000024F40000000000000000000000000095
:10F36000000000000000000000000000000000009D
:10F37000000000000000000000000000000000008D
:10F38000000000000000000000000000000000007D
:10F39000000000000000000000000000000000006D
:10F3A000000000000000000000000000000000005D
:10F3B000000000000000000000000000000000004D
:10F3C000000000000000000000000000000000003D
:10F3D000000000000000000000000000000000002D
:10F3E000000000000000000000000000000000001D
:10F3F0000000FFFF000000003200000000000000DD
:10F4000000000000000000000000000000000000FC
:10F4100000000000000000000000000000000000EC
:08F420000000000000000000E4
:020000041000EA
:0410140000C0030015
:040000050003C0C173
:00000001FF
